0C821005126103EL530 123579         201906000000507510050751KDN262S016  80070327   K527345C2939P00154457 
1C821005126103EL530399233586164    201906411400507510000000MORJAIN BIN MUDJI                  P00154457 
0C820428125431EL530 124700         201906000000628340062834KDN262S069  80057104   K527345C2939P00150892 
1C820428125431EL530399231546942    201906411200628340000000MD NADZRI BIN SERIJIL              P00150892 
0C670205126305EL53000018146        201906000000788690078869KDN262F131  80095463   K527345C2939P00124029 
1C670205126305EL530399223794824    201906410800365770000000PETRUS BIN SURUMPIT                P00124029 
1C670205126305EL530399231566342    201906411400422920000000PETRUS BIN SURUMPIT                P00124029 
0C630919125551EL53000020332        201906000000267510026751KDN262S083  80061903   K527345C2939P00104167 
1C630919125551EL530399229057880    201906410800267510000000MARDEKA BIN SANTONG                P00104167 
0C720227125277EL53000022360        201906000000749170074917KDN262Q104  80065232   K527345C2939P00173645 
1C720227125277EL530399232204724    201906411200749170000000SENIN B.HJ.ABD.HAMID               P00173645 
0C721114125435EL53000022450        201906000000588020058802KDN262F141  80096464   K527345C2939E00013953 
1C721114125435EL530399223871919    201906410400165100000000AHMAD SAH BIN YAHYA                E00013953 
1C721114125435EL530399228706155    201906411200422920000000AHMAD SAH BIN YAHYA                E00013953 
0C740908125481EL53000023670        201906000000609590060959KDN262S069  80062015   K527345C2939P00130670 
1C740908125481EL530399224508176    201906410100609590000000SAMSUL BIN SARIUL                  P00130670 
0C720126135695EL53000023724        201906000000676630067663KDN262F131  80095317   K527345C2939P00136526 
1C720126135695EL530399224164434    201906410800519540000000DRAHMAN BIN MOHAMAD                P00136526 
1C720126135695EL530399230300995    201906411200157090000000DRAHMAN BIN MOHAMAD                P00136526 
0C630920125241EL53000023900        201906000000578790057879KDN262S083  80064783   K527345C2939E00010363 
1C630920125241EL530399231678803    201906411200497120000000MARAIM BIN MONUNSUI(KPL:P00010363) E00010363 
1C630920125241EL530399235253655    201906411400081670000000MARAIM BIN MONUNSUI(KPL:P00010363) E00010363 
0C650527125817EL53000024681        201906000000688990068899KDN262S083  80060055   K527345C2939CH0647201 
1C650527125817EL530399230951909    201906410800688990000000NASIB BIN PG. AWANG ABAS           CH0647201 
0C741216135405EL53000025989        201906000001220420122042KDN262Q171  80095327   K527345C2939P00137473 
1C741216135405EL530399229203582    201906410801220420000000ROBERT ALLO ANAK TAJANG            P00137473 
0C700704065505EL53000026291        201906000001002920100292KDN262S083  80094776   K527345C2939P00124396 
1C700704065505EL530399231838952    201906411201002920000000ZUBIR BIN AHMAD                    P00124396 
0C700413035613EL53000026314        201906000000892090089209KDN262F131  80094773   K527345C2939P00124255 
1C700413035613EL530399222165830    201906410800287920000000AMRAN BIN YAZID                    P00124255 
1C700413035613EL530399230184801    201906411200604170000000AMRAN BIN YAZID                    P00124255 
0C670506136021EL53000027422        201906000000371770037177KDN262S083  80061095   K527345C2939P00120794 
1C670506136021EL530399232297074    201906410800241670000000ABANG BUSEMAN BIN ABG BOHAN        P00120794 
1C670506136021EL530399234745922    201906411200130100000000ABANG BUSEMAN BIN ABG BOHAN        P00120794 
0C710429125129EL53000027630        201906000000495420049542KDN262S241  80064808   K527345C2939E00012725 
1C710429125129EL530399232542810    201906411200495420000000WIRA JIKAR                         E00012725 
0C671203095087EL53000027658        201906000000311670031167KDN262F131  80095697   K527345C2939P00123759 
1C671203095087EL530399237816576    201906410100311670000000FAUZIHAD BIN JAYA                  P00123759 
0C770327125843EL53000029664        201906000001002920100292KDN262S112  80063222   K527345C2939P00130615 
1C770327125843EL530399237366639    201906411201002920000000RUSALAN B. PIKUL                   P00130615 
0C740527125744EL53000029788        201906000001437930143793KDN262S069  80062847   K527345C2939P00134227 
1C740527125744EL530399229856415    201906411200290010000000HALIMAH BINTI AYUB @ IMUT          P00134227 
1C740527125744EL530399224027422    201906410801147920000000HALIMAH BINTI AYUB @ IMUT          P00134227 
0C760419125075EL53000030021        201906000000725010072501KDN262S241  80064122   K527345C2939P00131997 
1C760419125075EL530399231889371    201906411200725010000000MOHAMAD BIN OSMAN                  P00131997 
0C620125125657EL53000030296        201906000000267230026723KDN262S112  80063121   K527345C2939P00109732 
1C620125125657EL530399232722460    201906411200267230000000ALI BIN ABU JAHIL                  P00109732 
0C770127125654EL53000031569        201906000001166680116668KDN262S211  80064146   K527345C2939P00134240 
1C770127125654EL530399224582847    201906410100997510000000NARZADIAH @ NORZADIAH BT PINGKUN   P00134240 
1C770127125654EL530399231384163    201906411400169170000000NARZADIAH @ NORZADIAH BT PINGKUN   P00134240 
0C790601125095EL53000031654        201906000000367510036751KDN262S083  80061626   K527345C2939P00132604 
1C790601125095EL530399223987006    201906410800174170000000STEPHEN JUBIE                      P00132604 
1C790601125095EL530399228686250    201906411200193340000000STEPHEN JUBIE                      P00132604 
0C690507125963EL53000032016        201906000001504840150484KDN262S069  80094765   K527345C2939P00123148 
1C690507125963EL530399230052031    201906411200145010000000PAUL BIN PIUS @ ROBERT             P00123148 
1C690507125963EL530399223629722    201906410101359830000000PAUL BIN PIUS @ ROBERT             P00123148 
0C760614035147EL53000032033        201906000000652510065251KDN262S241  80064108   K527345C2939P00131094 
1C760614035147EL530399234289517    201906411200652510000000AYUZI BIN IBRAHIM                  P00131094 
0C640530035813EL53000032301        201906000000580840058084KDN262S081  80063991   K527345C2939P00103011 
1C640530035813EL530399228740309    201906410800580840000000CHE MAHALENG BIN CHE SOH           P00103011 
0C660724045559EL53000032438        201906000001196860119686KDN262F131  80096138   K527345C2939P00122691 
1C660724045559EL530399232892414    201906411201196860000000AZAHAR BIN JA'AFAR                 P00122691 
0C720725125843EL53000032454        201906000001377580137758KDN262S082  80065227   K527345C2939E00012445 
1C720725125843EL530399224023277    201906410800351400000000SIPLUK BIN MULUK @ ZAINUDDIN BIN MUE00012445 
1C720725125843EL530399235374705    201906411600362510000000SIPLUK BIN MULUK @ ZAINUDDIN BIN MUE00012445 
1C720725125843EL530399236345109    201906411800663670000000SIPLUK BIN MULUK @ ZAINUDDIN BIN MUE00012445 
0C771125125065EL53000032539        201906000000879590087959KDN262S211  80063719   K527345C2939P00134533 
1C771125125065EL530399223853630    201906410100601670000000JUSTIN BIN MARADIL                 P00134533 
1C771125125065EL530399231627774    201906411200277920000000JUSTIN BIN MARADIL                 P00134533 
0C680916126095EL53000032860        201906000000500880050088KDN262S071  80065051   K527345C2939E00012477 
1C680916126095EL530399236808786    201906411400500880000000JEMIL BIN MALINGKAT                E00012477 
0C761106135891EL53000032866        201906000001690850169085KDN262F131  80096204   K527345C2939P00131206 
1C761106135891EL530399229788717    201906411200265840000000ABANG MOHAMMAD ALI BIN HJ.BOILI    P00131206 
1C761106135891EL530399223864542    201906410801425010000000ABANG MOHAMMAD ALI BIN HJ.BOILI    P00131206 
0C790110125592EL53000032990        201906000000712510071251KDN262S211  80062845   K527345C2939P00134197 
1C790110125592EL530399223256876    201906410100712510000000ERMELYN BINTI KIOH                 P00134197 
0C780620125665EL53000033028        201906000000603760060376KDN262F131  80095522   K527345C2939P00133269 
1C780620125665EL530399224135839    201906410800253340000000SIDUIN AH KOI                      P00133269 
1C780620125665EL530399231370827    201906411400350420000000SIDUIN AH KOI                      P00133269 
0C791027135655EL53000033170        201906000001002920100292KDN262S069  80064164   K527345C2939P00135012 
1C791027135655EL530399232215333    201906411201002920000000ROBERT GIRI ANAK RIMAN             P00135012 
0C790512125800EL53000034099        201906000000920520092052KDN262S211  80062495   K527345C2939P00136392 
1C790512125800EL530399221592823    201906410100195510000000RATNA BINTI OTHMAN                 P00136392 
1C790512125800EL530399231486217    201906411400725010000000RATNA BINTI OTHMAN                 P00136392 
0C760815126301EL53000034374        201906000000362510036251KDN262S241  80064119   K527345C2939P00131845 
1C760815126301EL530399232767728    201906410400362510000000HATIN BIN LAMIN                    P00131845 
0C701227125177EL53000034377        201906000000507510050751KDN262S062  80064724   K527345C2939E00012342 
1C701227125177EL530399236376532    201906411600507510000000MOHD SHAHWALI BIN MOHD SABLI       E00012342 
0C771203125045EL53000034587        201906000000422920042292KDN262F131  80095073   K527345C2939P00135393 
1C771203125045EL530399230349697    201906410800422920000000HAMIZAN BIN NASIP                  P00135393 
0C761026065707EL53000034639        201906000000597100059710KDN262F131  80094630   K527345C2939P00137449 
1C761026065707EL530399224072383    201906410800403760000000SHAIFUDDIN BIN MOHD.SUBIAN         P00137449 
1C761026065707EL530399231672840    201906411400193340000000SHAIFUDDIN BIN MOHD.SUBIAN         P00137449 
0C740705125123EL53000034801        201906000000310220031022KDN262S211  80064939   K527345C2939E00012729 
1C740705125123EL530399224721374    201906410100080630000000VITALIS MUSA                       E00012729 
1C740705125123EL530399232528965    201906411400229590000000VITALIS MUSA                       E00012729 
0C781230135109EL53000035003        201906000000913760091376KDN262S083  80062485   K527345C2939P00135092 
1C781230135109EL530399224617506    201906410800490840000000JOSEPH ROSEN ANAK REDAT            P00135092 
1C781230135109EL530399234257484    201906411500422920000000JOSEPH ROSEN ANAK REDAT            P00135092 
0C681204126219EL53000035226        201906000000401160040116KDN262S083  80064100   K527345C2939P00130545 
1C681204126219EL530399224429162    201906410800113970000000HAMID B.MUSA                       P00130545 
1C681204126219EL530399235412289    201906411200157090000000HAMID B.MUSA                       P00130545 
1C681204126219EL530399238211246    201906411400130100000000HAMID B.MUSA                       P00130545 
0C740407125117EL53000035508        201906000000759590075959KDN262S143  80063641   K527345C2939P00128992 
1C740407125117EL530399223956185    201906410100554170000000ASLI LO                            P00128992 
1C740407125117EL530399229115777    201906411200205420000000ASLI LO                            P00128992 
0C730909135041EL53000035749        201906000000707930070793KDN262S083  80095798   K527345C2939P00137507 
1C730909135041EL530399222321030    201906410800212510000000LAWRENCE YEO THIAN LIANG           P00137507 
1C730909135041EL530399236068051    201906411400495420000000LAWRENCE YEO THIAN LIANG           P00137507 
0C761120075629EL53000035870        201906000000401680040168KDN262F161  80096452   K527345C2939E00013945 
1C761120075629EL530399223776434    201906410100292920000000RIZALMAN BIN AWANG RAHMAN          E00013945 
1C761120075629EL530399228786280    201906411200108760000000RIZALMAN BIN AWANG RAHMAN          E00013945 
0C771202125019EL53000036424        201906000000645430064543KDN262S241  80062465   K527345C2939P00134253 
1C771202125019EL530399224053387    201906410400403760000000ALIXCIUS BIN GONGKI                P00134253 
1C771202125019EL530399229122245    201906411200241670000000ALIXCIUS BIN GONGKI                P00134253 
0C671112126239EL53000036657        201906000000060420006042KDN262F131  80094746   K527345C2939P00119237 
1C671112126239EL530399233221608    201906410100060420000000NAZRIE BIN GIMBOK @ WAHID          P00119237 
0C800601125040EL53000036903        201906000000471260047126KDN262S211  80059799   K527345C2939          
1C800601125040EL530399236095030    201906411200471260000000SUZULIANAH @ DAYANGKU SUZULIANAH             
0C760513125901EL53000038339        201906000000181260018126KDN262S211  80065137   K527345C2939E00013978 
1C760513125901EL530399230005248    201906410100181260000000MA PIANG HIN @ ROLAND              E00013978 
0C730914125841EL53000038789        201906000000557100055710KDN262S211  80063200   K527345C2939P00128832 
1C730914125841EL530399223046914    201906410100255010000000MOHAMAD JUMAT BIN SAHIBIL          P00128832 
1C730914125841EL530399232863415    201906411200302090000000MOHAMAD JUMAT BIN SAHIBIL          P00128832 
0C780416135831EL53000039907        201906000000327510032751KDN262F131  80095123   K527345C2939P00140559 
1C780416135831EL530399224069353    201906410800158340000000HASRI BIN JUNAIDI                  P00140559 
1C780416135831EL530399232071348    201906411200169170000000HASRI BIN JUNAIDI                  P00140559 
0C710123125759EL53000041282        201906000000181260018126KDN262F161  80096362   K527345C2939E00012305 
1C710123125759EL530399228519431    201906410400181260000000PADDALAN @ RAHIM BIN KADIR         E00012305 
0C800321135033EL53000042017        201906000000705430070543KDN262F131  80095126   K527345C2939P00140612 
1C800321135033EL530399223822005    201906410800427510000000RIKYNO ANAK NINGO                  P00140612 
1C800321135033EL530399229232581    201906411200277920000000RIKYNO ANAK NINGO                  P00140612 
0C801024055429EL53000042020        201906000000709590070959KDN262F131  80096035   K527345C2939P00140386 
1C801024055429EL530399224832421    201906410800649170000000WAN NADZRYN BIN OMAR               P00140386 
1C801024055429EL530399229231167    201906411200060420000000WAN NADZRYN BIN OMAR               P00140386 
0C620403126351EL53000042127        201906000000513690051369KDN262F141  80094744   K527345C2939P00117444 
1C620403126351EL530399228519229    201906410400513690000000KABIRANI BIN SABIRAN               P00117444 
0C800102135105EL53000042239        201906000000941270094127KDN262F131  80095125   K527345C2939P00140582 
1C800102135105EL530399224565366    201906410800760010000000SUJANTO BIN SUDARJO                P00140582 
1C800102135105EL530399228969873    201906411200181260000000SUJANTO BIN SUDARJO                P00140582 
0C760222136221EL53000042382        201906000000483340048334KDN262F141  80094200   K527345C2939P00136413 
1C760222136221EL530399229171755    201906410400483340000000AWANG ISMANDY BIN AWANG ZAIN       P00136413 
0C770923135183EL53000042757        201906000000836270083627KDN262F131  80096284   K527345C2939P00140587 
1C770923135183EL530399224125533    201906410800546260000000ZAIDI BIN MORNI                    P00140587 
1C770923135183EL530399231719724    201906411400290010000000ZAIDI BIN MORNI                    P00140587 
0C730525125223EL53000043524        201906000000760270076027KDN262S073  80062876   K527345C2939P00136311 
1C730525125223EL530399221907263    201906410800289010000000MOHD HALIM BIN AMIN                P00136311 
1C730525125223EL530399231189557    201906411400471260000000MOHD HALIM BIN AMIN                P00136311 
0C680603126369EL53000044040        201906000000530600053060KDN262S083  80061108   K527345C2939P00122521 
1C680603126369EL530399224772096    201906410800126140000000MARSIDEH BIN SAIRIN                P00122521 
1C680603126369EL530399231465807    201906411400241670000000MARSIDEH BIN SAIRIN                P00122521 
1C680603126369EL530399236377542    201906411500162790000000MARSIDEH BIN SAIRIN                P00122521 
0C731008126003EL53000044212        201906000000623510062351KDN262F121  80096403   K527345C2939E00012354 
1C731008126003EL530399224660043    201906410300200590000000ALIAN BIN BADIN                    E00012354 
1C731008126003EL530399237655518    201906411400422920000000ALIAN BIN BADIN                    E00012354 
0C680918125897EL53000044286        201906000001168770116877KDN262S052  80061638   K527345C2939P00134282 
1C680918125897EL530399220457923    201906410200620850000000HALIAM BIN MATASAN                 P00134282 
1C680918125897EL530399228145979    201906411200547920000000HALIAM BIN MATASAN                 P00134282 
0C771123125029EL53000044627        201906000000145010014501KDN262F131  80094877   K527345C2939P00137941 
1C771123125029EL530399230802163    201906410800145010000000FADLYIE BIN EDDIE                  P00137941 
0C750501135193EL53000045207        201906000000253760025376KDN262F141  80095109   K527345C2939P00138033 
1C750501135193EL530399228519734    201906410400253760000000SURYADIE BIN REDUAN                P00138033 
0C771112125808EL53000045585        201906000000263770026377KDN262S082  80058625   K527345C2939P00131425 
1C771112125808EL530399224170393    201906410800118760000000ROSNANI BINTI SULAIMAN             P00131425 
1C771112125808EL530399228588846    201906411200145010000000ROSNANI BINTI SULAIMAN             P00131425 
0C700831026277EL53000045962        201906000000773340077334KDN262S083  80094334   K527345C2939P00124994 
1C700831026277EL530399235194445    201906410800459170000000ZOLKHALI BIN BAHAROM               P00124994 
1C700831026277EL530399237519415    201906411200314170000000ZOLKHALI BIN BAHAROM               P00124994 
0C741212126077EL53000047274        201906000000665850066585KDN262F131  80095993   K527345C2939P00135584 
1C741212126077EL530399224508883    201906410100158340000000USMAN BIN YUSOF @ YUSUF            P00135584 
1C741212126077EL530399233897069    201906411400507510000000USMAN BIN YUSOF @ YUSUF            P00135584 
0C770910125795EL53000048021        201906000001041680104168KDN262S116  80095739   K527345C2939P00130593 
1C770910125795EL530399224439771    201906410400316670000000ASUI BIN LAMINIT @ MD. JAAFI ABDULLP00130593 
1C770910125795EL530399229068287    201906411200483340000000ASUI BIN LAMINIT @ MD. JAAFI ABDULLP00130593 
1C770910125795EL530399234912135    201906411400241670000000ASUI BIN LAMINIT @ MD. JAAFI ABDULLP00130593 
0C760917125705EL53000048406        201906000000471260047126KDN262S068  80065255   K527345C2939E00013927 
1C760917125705EL530399234484426    201906411200471260000000JALANI BIN MOHD TAHIR              E00013927 
0C651011105131EL53000048611        201906000000948780094878KDN262S043  80062335   K527345C2939P00112361 
1C651011105131EL530399230986261    201906410400948780000000MOHAMED JAMALUDIN BIN ABD SHUKOR   P00112361 
0C720430125213EL53000048984        201906000001027090102709KDN262S083  80063213   K527345C2939P00129574 
1C720430125213EL530399234071972    201906411400857920000000LIAU YUN KONG JUSLIM               P00129574 
1C720430125213EL530399235721275    201906411500169170000000LIAU YUN KONG JUSLIM               P00129574 
0C771220135253EL53000048990        201906000000483340048334KDN262Q054  80095049   K527345C2939P00130804 
1C771220135253EL530399230488733    201906410100483340000000GUMES AK JUNTAN                    P00130804 
0C750714135736EL53000050064        201906000000751680075168KDN262S211  80064115   K527345C2939P00131674 
1C750714135736EL530399223986602    201906410100316670000000MUNGA MUDIN                        P00131674 
1C750714135736EL530399231884422    201906411400435010000000MUNGA MUDIN                        P00131674 
0C780916125306EL53000050492        201906000000447090044709KDN262S083  80064587   K527345C2939P00136375 
1C780916125306EL530399229807006    201906410800447090000000DAYANG SUANAH BINTI KULNIH         P00136375 
0C630808086801EL53000050509        201906000002077170207717KDN262S069  80061474   K527345C2939P00107800 
1C630808086801EL530399232980219    201906411400917230000000ABDUL AZIZ HALIM BIN TAHIR         P00107800 
1C630808086801EL530399231581803    201906411201159940000000ABDUL AZIZ HALIM BIN TAHIR         P00107800 
0C790712125776EL53000050590        201906000000169170016917KDN262S069  80061225   K527345C2939P00136357 
1C790712125776EL530399231224216    201906411200169170000000MARLINAH BINTI ABD SALIM           P00136357 
0C651013125777EL53000052831        201906000000782740078274KDN262S211  80076267   K527345C2939P00118008 
1C651013125777EL530399235754520    201906410100782740000000MOBIN BIN MILIM AT MILLIM          P00118008 
0C690909125050EL53000052888        201906000000250480025048KDN262S211  80127299   K527345C2939CH0716272 
1C690909125050EL530399237736047    201906410100250480000000ALOHA BINTI RAMLIE                 CH0716272 
0C800317125625EL53000052894        201906000000976270097627KDN262F131  80095353   K527345C2939P00141210 
1C800317125625EL530399222866452    201906410800722510000000JAHAR BIN HADIS                    P00141210 
1C800317125625EL530399232047197    201906411200253760000000JAHAR BIN HADIS                    P00141210 
0C660504026065EL53000053168        201906000000311670031167KDN262S211  80061961   K527345C2939P00122912 
1C660504026065EL530399235377634    201906411200311670000000AZIZAN BIN HAMZAH                  P00122912 
0C781130125528EL53000053564        201906000000948360094836KDN262S211  80062913   K527345C2939P00140266 
1C781130125528EL530399223979326    201906410100356260000000DINI BINTI MOJINGKIN               P00140266 
1C781130125528EL530399235757045    201906411500507510000000DINI BINTI MOJINGKIN               P00140266 
1C781130125528EL530399236485252    201906411600084590000000DINI BINTI MOJINGKIN               P00140266 
0C671016125869EL53000053903        201906000000598230059823KDN262F161  80094030   K527345C2939G00011472 
1C671016125869EL530399232579182    201906411200422920000000SALIM BIN DAHLAN                   G00011472 
1C671016125869EL530399234640535    201906411400175310000000SALIM BIN DAHLAN                   G00011472 
0C730918125187EL53000054518        201906000001026070102607KDN262S133  80063767   K527345C2939P00137949 
1C730918125187EL530399223515140    201906410100494400000000MASRIN BIN SUNDANG                 P00137949 
1C730918125187EL530399232401350    201906411400531670000000MASRIN BIN SUNDANG                 P00137949 
0C660820125647EL53000055218        201906000002734140273414KDN262S153  80060243   K527345C2939R00013536 
1C660820125647EL530399238119296    201906411202734140000000MAJARI BIN AWAL JARI               R00013536 
0C740517125433EL53000055226        201906000000604170060417KDN262S043  80062512   K527345C2939G00021265 
1C740517125433EL530399230473373    201906410400604170000000BURHAN BIN MASRI                   G00021265 
0C690906045549EL53000055491        201906000001092680109268KDN262X411  80094325   K527345C2939P00123898 
1C690906045549EL53000055491        201906410100674760000000ABDULLAH BIN ABD.AZIZ              P00123898 
1C690906045549EL530399237762622    201906411400417920000000ABDULLAH BIN ABD.AZIZ              P00123898 
0C780730135135EL53000055920        201906000000567930056793KDN262S082  80064186   K527345C2939P00136505 
1C780730135135EL530399234457346    201906411200362510000000SUHARDI BIN SHARKAWI               P00136505 
1C780730135135EL530399234880914    201906411400205420000000SUHARDI BIN SHARKAWI               P00136505 
0C731231125273EL53000056015        201906000001700010170001KDN262S069  80063199   K527345C2939P00128791 
1C731231125273EL530399220558862    201906410101700010000000RICHARD EMANUAL BIN KAMOLIN        P00128791 
0C680211015539EL53000056319        201906000000893220089322KDN262F141  80094988   K527345C2939P00122867 
1C680211015539EL530399223697622    201906410400397800000000MOHD TAHIR BIN RADIN HASSAN        P00122867 
1C680211015539EL530399228855796    201906411200495420000000MOHD TAHIR BIN RADIN HASSAN        P00122867 
0C790903125533EL53000057365        201906000000441680044168KDN262S116  80096372   K527345C2939E00015153 
1C790903125533EL530399223804120    201906410400079170000000SHANIN BIN NUAR                    E00015153 
1C790903125533EL530399230916442    201906411200362510000000SHANIN BIN NUAR                    E00015153 
0C790722125454EL53000057391        201906000001241270124127KDN262S063  80060771   K527345C2939P00136060 
1C790722125454EL530399224294574    201906410100419590000000IMELDA BINTI ANDEREAS              P00136060 
1C790722125454EL530399234635683    201906411500725010000000IMELDA BINTI ANDEREAS              P00136060 
1C790722125454EL530399237042802    201906411600096670000000IMELDA BINTI ANDEREAS              P00136060 
0C731105125037EL53000057748        201906000001086270108627KDN262S116  80064090   K527345C2939P00129512 
1C731105125037EL530399223508773    201906410400760010000000ASMAN BIN ASMAT                    P00129512 
1C731105125037EL530399234884853    201906411400326260000000ASMAN BIN ASMAT                    P00129512 
0C750927125363EL53000057957        201906000000193340019334KDN262S069  80065080   K527345C2939E00014505 
1C750927125363EL530399236729772    201906411200193340000000RUJISSMANY @ KINON BIN SUAIB       E00014505 
0C710616125677EL53000058021        201906000000265840026584KDN262S133  80064073   K527345C2939P00126667 
1C710616125677EL530399231821774    201906411200265840000000HAZAMAN BIN JAWAN                  P00126667 
0C700306105321EL53000058034        201906000000740940074094KDN262X411  80060139   K527345C2939G00012537 
1C700306105321EL53000058034        201906410100378430000000MAHYUDDIN BIN KADIJOO              G00012537 
1C700306105321EL530399234308210    201906411200362510000000MAHYUDDIN BIN KADIJOO              G00012537 
0C770529135337EL53000058554        201906000000930430093043KDN262S211  80061216   K527345C2939P00135079 
1C770529135337EL530399231168642    201906411200761260000000JIMBUN ANAK JAMPI                  P00135079 
1C770529135337EL530399234251828    201906411400169170000000JIMBUN ANAK JAMPI                  P00135079 
0C721023125181EL53000059351        201906000001862040186204KDN262S052  80065194   K527345C2939E00013373 
1C721023125181EL530399235408552    201906411400181260000000AWANG YAZID BIN PG BAGUL           E00013373 
1C721023125181EL530399237490315    201906411500338340000000AWANG YAZID BIN PG BAGUL           E00013373 
1C721023125181EL530399223262738    201906410101342440000000AWANG YAZID BIN PG BAGUL           E00013373 
0C840422135485EL53000059815        201906000000293350029335KDN262S241  80062146   K527345C2939P00145814 
1C840422135485EL530399224606792    201906410800039590000000AHMAD BIN HIPNEE                   P00145814 
1C840422135485EL530399231847642    201906411400253760000000AHMAD BIN HIPNEE                   P00145814 
0C810118125621EL53000059963        201906000000268760026876KDN262F161  80093961   K527345C2939          
1C810118125621EL530399224399759    201906410100063340000000AZLIE BIN SALLEH                             
1C810118125621EL530399234833424    201906411200205420000000AZLIE BIN SALLEH                             
0C760523125753EL53000061211        201906000000424460042446KDN262F111  80094669   K527345C2939P00142735 
1C760523125753EL530999260791240    201906410100110290000000BEGO BIN KIMDA                     P00142735 
1C760523125753EL530399237681483    201906411500314170000000BEGO BIN KIMDA                     P00142735 
0C770227125029EL53000061809        201906000000193340019334KDN262F111  80095984   K527345C2939P00135346 
1C770227125029EL530399236184552    201906410100193340000000RAZALI ATIN                        P00135346 
0C741225125962EL53000062060        201906000000483340048334KDN262S143  80064510   K527345C2939P00129597 
1C741225125962EL530399228371911    201906410800483340000000JUNIAH BT SUNGGIN                  P00129597 
0C740421125148EL53000062440        201906000000456680045668KDN262S069  80064581   K527345C2939P00135439 
1C740421125148EL53000062440        201906410100142510000000ISNORIAH BTE HJ AMIT (KPL:E/13897) P00135439 
1C740421125148EL530399234624771    201906411200314170000000ISNORIAH BTE HJ AMIT (KPL:E/13897) P00135439 
0C750713125237EL53000065201        201906000000084590008459KDN262F141  80094602   K527345C2939P00133283 
1C750713125237EL53000065201        201906410400084590000000MOHD YUSRIE BIN SALUDON            P00133283 
0C781029125347EL53000065587        201906000000700840070084KDN262F131  80100428   K527345C2939P00135342 
1C781029125347EL530399233263438    201906411200700840000000LATIF BIN MATUSIN                  P00135342 
0C780926126185EL53000066692        201906000000523340052334KDN262F131  80094374   K527345C2939P00132856 
1C780926126185EL530399224066121    201906410800245420000000CHRISTOPHER BIN UNJIN              P00132856 
1C780926126185EL530399231370524    201906411400277920000000CHRISTOPHER BIN UNJIN              P00132856 
0C781203125597EL53000066695        201906000000667680066768KDN262F131  80095102   K527345C2939P00137915 
1C781203125597EL530399222921016    201906410200136010000000BASMAN BIN BENTILAN                P00137915 
1C781203125597EL530399230121244    201906411200531670000000BASMAN BIN BENTILAN                P00137915 
0C790428135387EL53000066865        201906000000216680021668KDN262S051  80064167   K527345C2939P00135090 
1C790428135387EL530399224693688    201906410100047510000000FARUKY BIN JAMALI                  P00135090 
1C790428135387EL530399231289284    201906411200169170000000FARUKY BIN JAMALI                  P00135090 
0C771218125080EL53000067679        201906000000782940078294KDN262S069  80059899   K527345C2939          
1C771218125080EL530399224841515    201906410100142510000000DAINAM BINTI ABDUL JALI                      
1C771218125080EL530399231900687    201906411400507510000000DAINAM BINTI ABDUL JALI                      
1C771218125080EL530399234330034    201906411500132920000000DAINAM BINTI ABDUL JALI                      
0C751008135485EL53000067854        201906000000809590080959KDN262F131  80095789   K527345C2939P00137370 
1C751008135485EL530399233406716    201906411200809590000000ISHAK BIN KIPRAWI                  P00137370 
0C770910135731EL53000068498        201906000001033760103376KDN262S083  80060783   K527345C2939P00136457 
1C770910135731EL530399223920621    201906410800767920000000WATSON ANTAS                       P00136457 
1C770910135731EL530399228597031    201906411200265840000000WATSON ANTAS                       P00136457 
0C671120125885EL53000068576        201906000000588970058897KDN262F131  80094764   K527345C2939P00123029 
1C671120125885EL530399224542835    201906410800347300000000ABDULLAH BIN HUSIN                 P00123029 
1C671120125885EL530399232184213    201906411200241670000000ABDULLAH BIN HUSIN                 P00123029 
0C761110125944EL53000069121        201906000000217510021751KDN262S164  80063262   K527345C2939P00134246 
1C761110125944EL530399237618536    201906410400217510000000SALINAWATI BINTI JAMIRIN           P00134246 
0C740713125668EL53000069542        201906000001392930139293KDN262S211  80064851   K527345C2939E00012421 
1C740713125668EL530399235986815    201906411200205420000000HAMELIAH BTE SANI                  E00012421 
1C740713125668EL53000069542        201906410101187510000000HAMELIAH BTE SANI                  E00012421 
0C760120065119EL53000069741        201906000000193340019334KDN262F111  80094225   K527345C2939P00138745 
1C760120065119EL530399229415972    201906410400193340000000MOHD SABRI BIN HUSSIN              P00138745 
0C760819075361EL53000069949        201906000000761260076126KDN262S052  80064530   K527345C2939P00131143 
1C760819075361EL530399234016301    201906411400761260000000RAZALI BIN RABIT                   P00131143 
0C760427125921EL53000070319        201906000000200020020002KDN262S241  80063349   K527345C2939P00144571 
1C760427125921EL53000070319        201906410100079170000000MOHD HARZAM BIN HJ AHMAD           P00144571 
1C760427125921EL530399234998324    201906411200036260000000MOHD HARZAM BIN HJ AHMAD           P00144571 
1C760427125921EL530399236160001    201906411400084590000000MOHD HARZAM BIN HJ AHMAD           P00144571 
0C740227125291EL53000070732        201906000000368760036876KDN262S083  80062429   K527345C2939P00131052 
1C740227125291EL530399236997635    201906410800368760000000JACKOL @ BOD BIN SUMBING           P00131052 
0C811202035447EL53000070929        201906000000486260048626KDN262S211  80059865   K527345C2939          
1C811202035447EL530399224834037    201906410100292920000000MOHD MURYADI BIN AHMAD                       
1C811202035447EL530399231262309    201906411400193340000000MOHD MURYADI BIN AHMAD                       
0C741105135277EL53000071244        201906000000495420049542KDN262F141  80094154   K527345C2939P00130817 
1C741105135277EL530399231683853    201906411200495420000000RAZAK B. JOHARI                    P00130817 
0C790218135637EL53000071838        201906000001380430138043KDN262S082  80063733   K527345C2939P00135060 
1C790218135637EL530399221163494    201906410800595010000000JOHN WALTON AK MEYOI               P00135060 
1C790218135637EL530399236840718    201906411500785420000000JOHN WALTON AK MEYOI               P00135060 
0C800513136129EL53000071850        201906000001149600114960KDN262Q273  80095358   K527345C2939P00142662 
1C800513136129EL530399223089956    201906410800340010000000AZMI BIN SADEK                     P00142662 
1C800513136129EL530399234170891    201906411400809590000000AZMI BIN SADEK                     P00142662 
0C780727136129EL53000071897        201906000001075430107543KDN262S116  80062474   K527345C2939P00134918 
1C780727136129EL530399232682246    201906411200604170000000ENCHI ADU GINDAY AK AMAN           P00134918 
1C780727136129EL530399236906796    201906411500471260000000ENCHI ADU GINDAY AK AMAN           P00134918 
0C810805125631EL53000072111        201906000000246680024668KDN262S069  80065145   K527345C2939E00015415 
1C810805125631EL53000072111        201906410200174170000000RAZALYNIZAM BIN ABDUL SHAMAD       E00015415 
1C810805125631EL530399235263153    201906411200072510000000RAZALYNIZAM BIN ABDUL SHAMAD       E00015415 
0C791104125427EL53000072622        201906000000241670024167KDN262S211  80062136   K527345C2939P00144020 
1C791104125427EL530399230273111    201906410100241670000000EDDIE DONNY KIM SIONG              P00144020 
0C811213016073EL53000072666        201906000000266680026668KDN262F131  80095591   K527345C2939P00140553 
1C811213016073EL530399223881316    201906410800182090000000YAZID BIN RAHMAN                   P00140553 
1C811213016073EL530399228869742    201906411200084590000000YAZID BIN RAHMAN                   P00140553 
0C750325125331EL53000073279        201906000000845840084584KDN262S241  80061710   K527345C2939P00142337 
1C750325125331EL530399235356820    201906411400845840000000AHMAD BIN MUHAMMAD YUNNUS          P00142337 
0C741212126149EL53000073281        201906000000609930060993KDN262S069  80062446   K527345C2939P00132073 
1C741212126149EL53000073281        201906410100187010000000JUNAIDI BIN BENU                   P00132073 
1C741212126149EL530399231674557    201906411200422920000000JUNAIDI BIN BENU                   P00132073 
0C711207125259EL53000073345        201906000001972510197251KDN262F131  80096386   K527345C2939E00013516 
1C711207125259EL530399237973190    201906410101972510000000LAMBRI BIN HJ.MUBIN                E00013516 
0C860416386593EL53000074127        201906000000193340019334KDN262F131  80095660   K527345C2939P00158879 
1C860416386593EL530399231500159    201906411200193340000000ZULKURNAIN BIN GHAZALI             P00158879 
0C791011135597EL53000074154        201906000000364180036418KDN262S082  80062989   K527345C2939P00156131 
1C791011135597EL530399224170696    201906410800134590000000MOHAMAD ALI BIN KAMAL MUSTAPHA     P00156131 
1C791011135597EL530399229371617    201906411200229590000000MOHAMAD ALI BIN KAMAL MUSTAPHA     P00156131 
0C820608016187EL53000074298        201906000000845840084584KDN262F131  80094238   K527345C2939P00142485 
1C820608016187EL530399228968257    201906410800845840000000ZULKEFLY BIN ABU                   P00142485 
0C820824015509EL53000074504        201906000000778760077876KDN262F131  80095858   K527345C2939P00153473 
1C820824015509EL530399223823116    201906410800609590000000HAMZAH BIN KASMAN                  P00153473 
1C820824015509EL530399232044066    201906411400169170000000HAMZAH BIN KASMAN                  P00153473 
0C621012136127EL53000074573        201906000001493220149322KDN262S082  80062318   K527345C2939P00108319 
1C621012136127EL530399231850066    201906411201493220000000BRAHIM B. JINI                     P00108319 
0C741002125180EL53000074626        201906000000749180074918KDN262S063  80133918   K527345C2939CH0885124 
1C741002125180EL530399231533097    201906411200640420000000ROSNITA BINTI HANI                 CH0885124 
1C741002125180EL530399234822007    201906411400108760000000ROSNITA BINTI HANI                 CH0885124 
0C771127135099EL53000075124        201906000000700010070001KDN262X411  80062140   K527345C2939P00145052 
1C771127135099EL530399224173730    201906410100506670000000ENANG ANAK ENTUSAN                 P00145052 
1C771127135099EL530399234185241    201906411400193340000000ENANG ANAK ENTUSAN                 P00145052 
0C790724136085EL53000075512        201906000001128940112894KDN262S116  80103360   K527345C2939          
1C790724136085EL53000075512        201906410400561010000000TUANKU SHARIF BIN WAN AHMAD                  
1C790724136085EL530399233954158    201906411200471260000000TUANKU SHARIF BIN WAN AHMAD                  
1C790724136085EL530399236706332    201906411400096670000000TUANKU SHARIF BIN WAN AHMAD                  
0C830220055437EL53000075624        201906000000261260026126KDN262F131  80094701   K527345C2939P00151834 
1C830220055437EL530399223782595    201906410800261260000000MOHD ZULRAIMIE BIN MOHD RADZI      P00151834 
0C730605125901EL53000075890        201906000001155850115585KDN262F131  80094582   K527345C2939P00130628 
1C730605125901EL530399220688804    201906410800575840000000FREDY WAGNER                       P00130628 
1C730605125901EL530399232844520    201906411400580010000000FREDY WAGNER                       P00130628 
0C790412135921EL53000076865        201906000001261680126168KDN262F141  80094435   K527345C2939P00140440 
1C790412135921EL530399229564607    201906411200241670000000MOHD HAZMEE BIN BOLHI              P00140440 
1C790412135921EL530399221633239    201906410401020010000000MOHD HAZMEE BIN BOLHI              P00140440 
0C790317125725EL53000077048        201906000000760680076068KDN262F131  80094235   K527345C2939P00141141 
1C790317125725EL530399220477626    201906410800374010000000JASON B BIMBILON                   P00141141 
1C790317125725EL530399233430560    201906411200386670000000JASON B BIMBILON                   P00141141 
0C770710135171EL53000077359        201906000000410840041084KDN262S082  80042670   K527345C2939P00139012 
1C770710135171EL530399229952001    201906410800410840000000ALIM BIN BORHAN                    P00139012 
0C790120125270EL53000086659        201906000000338340033834KDN262S069  80061656   K527345C2939P00136376 
1C790120125270EL530399231668594    201906411200338340000000HAIDAWATI BT LASTIP @ ELDACENDRA   P00136376 
0C730610125105EL53000087976        201906000000845840084584KDN262S211  80064499   K527345C2939P00128996 
1C730610125105EL530399235066123    201906411400845840000000IMRAN BINN WASLI                   P00128996 
0C860317525973EL53000088746        201906000000252520025252KDN262S241  80061771   K527345C2939P00154444 
1C860317525973EL530399224206567    201906410800071260000000JUNIOR SATU                        P00154444 
1C860317525973EL530399228514781    201906411200181260000000JUNIOR SATU                        P00154444 
0C710906125691EL53000090138        201906000000132920013292KDN262F131  80094583   K527345C2939P00130640 
1C710906125691EL530399231670719    201906410800132920000000NORDIN BIN ZAKARIA @ ZAKARA        P00130640 
0C820330125783EL53000090176        201906000000398760039876KDN262S043  80061285   K527345C2939P00144996 
1C820330125783EL530399232217555    201906411200398760000000JAHRRY BIN YASSIN                  P00144996 
0C620319065007EL53000093462        201906000000964590096459KDN262S241  80060473   K527345C2939P00095330 
1C620319065007EL530399235499084    201906410100964590000000HAMALI BIN MAN                     P00095330 
0C720409125120EL53000093858        201906000000229590022959KDN262S116  80065129   K527345C2939E00013321 
1C720409125120EL530399237020671    201906411200229590000000HASLINAH BTE NASILI                E00013321 
0C731024125748EL53000094509        201906000000241670024167KDN262F141  80064991   K527345C2939E00012414 
1C731024125748EL530399229247032    201906410400241670000000DAYANG LALIAH BTE HAMBUG           E00012414 
0C780424125297EL53000096958        201906000000496680049668KDN262S241  80063799   K527345C2939P00141601 
1C780424125297EL530399224014183    201906410400158340000000JUNIOR BIN EVARISTUS               P00141601 
1C780424125297EL530399229102946    201906411200338340000000JUNIOR BIN EVARISTUS               P00141601 
0C820513135909EL53000097096        201906000000351260035126KDN262Q331  80061773   K527345C2939P00154499 
1C820513135909EL530399224048539    201906410800182090000000MOHD FAIRUZ BIN KRIM               P00154499 
1C820513135909EL530399228572173    201906411200169170000000MOHD FAIRUZ BIN KRIM               P00154499 
0C821009125810EL53000100909        201906000000398760039876KDN262S241  80148171   K527345C2939          
1C821009125810EL530399231900283    201906411200398760000000ELLISA BINTI MADJABIL                        
0C810202135339EL53000101682        201906000000585010058501KDN262F131  80096084   K527345C2939P00153630 
1C810202135339EL530399223825742    201906410800174170000000BENDY TS HONG                      P00153630 
1C810202135339EL530399232895545    201906411500410840000000BENDY TS HONG                      P00153630 
0C620602086815EL53000101996        201906000002992640299264KDN262S116  80094295   K527345C2939P00093605 
1C620602086815EL530399228752029    201906411200265130000000SYED ABDUL HALIM BIN SYED OTHMAN   P00093605 
1C620602086815EL530399236169697    201906411400192920000000SYED ABDUL HALIM BIN SYED OTHMAN   P00093605 
1C620602086815EL530399223674986    201906410402534590000000SYED ABDUL HALIM BIN SYED OTHMAN   P00093605 
0C881103125758EL53000102547        201906000000580010058001KDN262S083  80118307   K527345C2939          
1C881103125758EL530399237563770    201906411400580010000000ANNUR ALIA FARHANA BINTI ISMAIL              
0C820813126019EL53000104147        201906000000544600054460KDN262F131  80087502   K527345C2939P00142810 
1C820813126019EL530399223776737    201906410800182090000000AMOS BENJAMIN                      P00142810 
1C820813126019EL530399231527441    201906411400362510000000AMOS BENJAMIN                      P00142810 
0C860812495556EL53000105167        201906000000490940049094KDN262S083  80127874   K527345C2939          
1C860812495556EL530399222058423    201906410800068010000000MASNI BINTI MOHD                             
1C860812495556EL530399236108972    201906411500072510000000MASNI BINTI MOHD                             
1C860812495556EL530399238039070    201906411600350420000000MASNI BINTI MOHD                             
0C840831125333EL53000105728        201906000000747180074718KDN262S116  80067736   K527345C2939P00156970 
1C840831125333EL530399222018411    201906410400578010000000SABLIRON BIN SAKIMIN               P00156970 
1C840831125333EL530399229633921    201906411200169170000000SABLIRON BIN SAKIMIN               P00156970 
0C811105135518EL53000105978        201906000001519390151939KDN262S082  80046748   K527345C2939P00155110 
1C811105135518EL530399220903012    201906410800431880000000KELANG ANAK ENGKAYAU               P00155110 
1C811105135518EL530399236298023    201906411500785420000000KELANG ANAK ENGKAYAU               P00155110 
1C811105135518EL530399237598328    201906411600302090000000KELANG ANAK ENGKAYAU               P00155110 
0C730611125027EL53000107414        201906000001385830138583KDN262S211  80061642   K527345C2939P00134572 
1C730611125027EL530399221303944    201906410100854160000000ABDUL WAHID @ FAIZAL BIN ANUMAN    P00134572 
1C730611125027EL530399228049787    201906411200531670000000ABDUL WAHID @ FAIZAL BIN ANUMAN    P00134572 
0C820925125248EL53000107554        201906000000532510053251KDN262S211  80072254   K527345C2939          
1C820925125248EL530399223150378    201906410100411670000000VERONELLA BINTI JOHN BAPTIST                 
1C820925125248EL530399228540245    201906411200120840000000VERONELLA BINTI JOHN BAPTIST                 
0C670718025569EL53000107609        201906000000580680058068KDN262F141  80094544   K527345C2939P00124098 
1C670718025569EL530399221356888    201906410400073170000000MOHD SUPI BIN ZAKARIA              P00124098 
1C670718025569EL530399228437686    201906411200507510000000MOHD SUPI BIN ZAKARIA              P00124098 
0C910921075959EL53000108014        201906000001227520122752KDN262S081  80135192   K527345C2939P00181392 
1C910921075959EL530399223809574    201906410700514590000000KAHLAICHELVAN THEVAR A/L SIVARAJA  P00181392 
1C910921075959EL530399231853807    201906411400567920000000KAHLAICHELVAN THEVAR A/L SIVARAJA  P00181392 
1C910921075959EL530399232859977    201906411500145010000000KAHLAICHELVAN THEVAR A/L SIVARAJA  P00181392 
0C770515126026EL53000108090        201906000000541680054168KDN262S052  80103651   K527345C2939CH0938809 
1C770515126026EL530399223948408    201906410700118760000000WINNIE BINTI SAIN                  CH0938809 
1C770515126026EL530399231275645    201906411400422920000000WINNIE BINTI SAIN                  CH0938809 
0C790305125373EL53000108202        201906000000604590060459KDN262F131  80096229   K527345C2939P00135536 
1C790305125373EL530399224150791    201906410800435420000000MUHAMMAD SHAHRIL RIEAL BIN ABDULLAHP00135536 
1C790305125373EL530399233079643    201906411200169170000000MUHAMMAD SHAHRIL RIEAL BIN ABDULLAHP00135536 
0C890318065611EL53000108258        201906000000702530070253KDN262S052  80133459   K527345C2939P00182052 
1C890318065611EL530399221632633    201906410700340010000000IZZAL FAZLIN BIN AHMAD NAZRI       P00182052 
1C890318065611EL530399233619712    201906411200181260000000IZZAL FAZLIN BIN AHMAD NAZRI       P00182052 
1C890318065611EL530399235263456    201906411400181260000000IZZAL FAZLIN BIN AHMAD NAZRI       P00182052 
0C831106145089EL53000108283        201906000000439350043935KDN262S116  80064647   K527345C2939P00146600 
1C831106145089EL530399221639909    201906410400391010000000MOHD SUKHRI BIN ABDUL HALIM        P00146600 
1C831106145089EL530399230605234    201906411200048340000000MOHD SUKHRI BIN ABDUL HALIM        P00146600 
0C720512135909EL53000108462        201906000000830200083020KDN262F131  80095090   K527345C2939P00136541 
1C720512135909EL530399223775424    201906410800636860000000MAS ZAHIDDEN BIN AHMAD             P00136541 
1C720512135909EL530399229182566    201906411200193340000000MAS ZAHIDDEN BIN AHMAD             P00136541 
0C740314055105EL53000108612        201906000001365420136542KDN262F131  80095936   K527345C2939P00128212 
1C740314055105EL530399233531503    201906411201365420000000MOHD SUHAIMI BIN MANSOR            P00128212 
0C791027125051EL53000108762        201906000000237510023751KDN262F131  80088083   K527345C2939P00139816 
1C791027125051EL530399224502823    201906410100237510000000VICTOR BIN GAIDIM                  P00139816 
0C641010126409EL53000109110        201906000000691260069126KDN262S083  80063561   K527345C2939P00110728 
1C641010126409EL530399229060813    201906410800691260000000JAMALIN BIN INGKAT                 P00110728 
0C821129035537EL53000110498        201906000000471260047126KDN262S241  80061722   K527345C2939P00145185 
1C821129035537EL530399232283435    201906411200471260000000KU ZAIB BIN KU LAH                 P00145185 
0C881226055251EL53000111181        201906000000774190077419KDN262F131  80104276   K527345C2939P00164167 
1C881226055251EL530399224583150    201906410100411670000000FEZRUEL ASHRAF BIN KEMEL           P00164167 
1C881226055251EL530399232128235    201906411400253760000000FEZRUEL ASHRAF BIN KEMEL           P00164167 
1C881226055251EL530399233073074    201906411500108760000000FEZRUEL ASHRAF BIN KEMEL           P00164167 
0C750502055355EL53000111365        201906000001170010117001KDN262S241  80061568   K527345C2939P00128481 
1C750502055355EL530399224620536    201906410400577920000000MOHD FAIRUS BIN ABD RAHIM          P00128481 
1C750502055355EL530399236525163    201906411500592090000000MOHD FAIRUS BIN ABD RAHIM          P00128481 
0C830228125161EL53000111458        201906000000453770045377KDN262S132  80069940   K527345C2939P00160790 
1C830228125161EL530399223112891    201906410100127510000000SAKIRIN MARIN                      P00160790 
1C830228125161EL530399232148746    201906411400326260000000SAKIRIN MARIN                      P00160790 
0C800302126019EL53000112760        201906000000882090088209KDN262S083  80090570   K527345C2939P00145182 
1C800302126019EL530399229320386    201906410800882090000000AZMI BIN TAGEH                     P00145182 
0C860727525765EL53000112940        201906000000827100082710KDN262S082  80100879   K527345C2939P00162085 
1C860727525765EL530399223712069    201906410800150420000000OSMAN BIN SARUN                    P00162085 
1C860727525765EL530399234245966    201906411400507510000000OSMAN BIN SARUN                    P00162085 
1C860727525765EL530399237356131    201906411500169170000000OSMAN BIN SARUN                    P00162085 
0C880722355101EL53000113222        201906000000520430052043KDN262F131  80109456   K527345C2939P00166752 
1C880722355101EL530399223823924    201906410800182090000000MUHAMMAD AFIQ BIN SAMAD            P00166752 
1C880722355101EL530399231513091    201906411400338340000000MUHAMMAD AFIQ BIN SAMAD            P00166752 
0C860823495818EL53000113306        201906000000578770057877KDN262S083  80109894   K527345C2939P00167387 
1C860823495818EL530399223849687    201906410800300840000000SURIANI BINTI JAMRI                P00167387 
1C860823495818EL530399235997323    201906411400193340000000SURIANI BINTI JAMRI                P00167387 
1C860823495818EL530399236663185    201906411500084590000000SURIANI BINTI JAMRI                P00167387 
0C870907526983EL53000113316        201906000000894170089417KDN262S082  80112200   K527345C2939P00168236 
1C870907526983EL530399232412262    201906411400894170000000JAMES TUPA ANAK MICHAEL            P00168236 
0C840710125062EL53000113421        201906000000632930063293KDN262S211  80114594   K527345C2939          
1C840710125062EL530399223919106    201906410100197920000000SALWATIE BINTI MD KASSIM                     
1C840710125062EL530399237535478    201906411500435010000000SALWATIE BINTI MD KASSIM                     
0C880323235405EL53000113498        201906000000287520028752KDN262F331  80104525   K527345C2939P00164078 
1C880323235405EL530399224583857    201906410100142510000000MOHD HAIRUL HASYIME BIN OTHMAN     P00164078 
1C880323235405EL530399230682733    201906411200145010000000MOHD HAIRUL HASYIME BIN OTHMAN     P00164078 
0C830307125426EL53000113536        201906000000182090018209KDN262S052  80126384   K527345C2939          
1C830307125426EL530399223910113    201906410700182090000000SAINAH BINTI SUMAN                           
0C861025336091EL53000113583        201906000000842930084293KDN262S083  80126530   K527345C2939P00176229 
1C861025336091EL530399223919207    201906410800166260000000HASRIMAN BIN ABD RAHIM             P00176229 
1C861025336091EL530399230929374    201906411200676670000000HASRIMAN BIN ABD RAHIM             P00176229 
0C810414115495EL53000113730        201906000000584590058459KDN262D024  80094670   K527345C2939P00142906 
1C810414115495EL530399223962350    201906410400197920000000MOHD JALALUDIN BIN JANTAN          P00142906 
1C810414115495EL530399229407181    201906411200386670000000MOHD JALALUDIN BIN JANTAN          P00142906 
0C830128045287EL53000113855        201906000001696680169668KDN262S081  80061735   K527345C2939P00147484 
1C830128045287EL530399232875438    201906411400604170000000MOHAMAD RIZALMAN B JALIL           P00147484 
1C830128045287EL530399224026109    201906410801092510000000MOHAMAD RIZALMAN B JALIL           P00147484 
0C861102035023EL53000113864        201906000000163340016334KDN262S082  80121861   K527345C2939P00173530 
1C861102035023EL530399224025806    201906410800102920000000MOHAMAD FIRDAUS BIN CHE ROSLI      P00173530 
1C861102035023EL530399234025492    201906411400060420000000MOHAMAD FIRDAUS BIN CHE ROSLI      P00173530 
0C821221125404EL53000113894        201906000000459170045917KDN262S116  80104169   K527345C2939          
1C821221125404EL530399234509886    201906411200459170000000MAZIAH BINTI AHMAD                           
0C870622025499EL53000114049        201906000000652930065293KDN262F131  80109256   K527345C2939P00166176 
1C870622025499EL530399224029745    201906410100435420000000MOHAMMAD NAZIMIE BIN RUSLAN        P00166176 
1C870622025499EL530399231512586    201906411400217510000000MOHAMMAD NAZIMIE BIN RUSLAN        P00166176 
0C841011126255EL53000114235        201906000000879190087919KDN262F131  80077042   K527345C2939P00151846 
1C841011126255EL530399224083905    201906410800395840000000ADZROL BIN MEJOR                   P00151846 
1C841011126255EL530399230684349    201906411200145010000000ADZROL BIN MEJOR                   P00151846 
1C841011126255EL530399233046503    201906411400338340000000ADZROL BIN MEJOR                   P00151846 
0C880609065719EL53000114240        201906000000446260044626KDN262F131  80104539   K527345C2939P00163795 
1C880609065719EL530399224082285    201906410800277090000000NORAZMI BIN WAHAP                  P00163795 
1C880609065719EL530399232844823    201906411200169170000000NORAZMI BIN WAHAP                  P00163795 
0C860503235769EL53000114328        201906000000546260054626KDN262F131  80109254   K527345C2939          
1C860503235769EL53000114328        201906410800316670000000NURUL ANDYSYARUDDIN BIN MISNAN               
1C860503235769EL53000114328        201906411400229590000000NURUL ANDYSYARUDDIN BIN MISNAN               
0C681112126457EL53000114339        201906000001408720140872KDN262S211  80062774   K527345C2939P00124561 
1C681112126457EL530399224080871    201906410100417880000000TSEU SU PHIN                       P00124561 
1C681112126457EL530399234282544    201906411400990840000000TSEU SU PHIN                       P00124561 
0C820607135803EL53000114359        201906000000812510081251KDN262S083  80085502   K527345C2939P00148414 
1C820607135803EL530399224197675    201906410800292920000000SUBOH ANAK GAWAN                   P00148414 
1C820607135803EL530399234688530    201906411500519590000000SUBOH ANAK GAWAN                   P00148414 
0C801015126125EL53000114360        201906000000730840073084KDN262S083  80135944   K527345C2939          
1C801015126125EL530399224144529    201906410800126670000000SAMLI BIN ANGKONG                            
1C801015126125EL530399234754309    201906411500604170000000SAMLI BIN ANGKONG                            
0C891223135079EL53000114394        201906000000875010087501KDN262Q110  80140816   K527345C2939          
1C891223135079EL530399224470891    201906410800633340000000ALPHONSUS ANSELM ANAK RAGU                   
1C891223135079EL530399228876210    201906411200241670000000ALPHONSUS ANSELM ANAK RAGU                   
0C890304045433EL53000114495        201906000000699600069960KDN262F131  80109720   K527345C2939P00166044 
1C890304045433EL530399224131997    201906410800300840000000ABDUL RASHID BIN HASHIM            P00166044 
1C890304045433EL530399231380224    201906411400398760000000ABDUL RASHID BIN HASHIM            P00166044 
0C701130135969EL53000114561        201906000000881630088163KDN262F151  80096141   K527345C2939P00123184 
1C701130135969EL530399224142812    201906410400519120000000MUHAMMAD FRANKLIN BIN ABDULLAH     P00123184 
1C701130135969EL530399228438595    201906411200362510000000MUHAMMAD FRANKLIN BIN ABDULLAH     P00123184 
0C780910125735EL53000114654        201906000000698770069877KDN262S092  80065260   K527345C2939E00014595 
1C780910125735EL530399224185551    201906410400118760000000ROMMY BIN MICHAEL YONG             E00014595 
1C780910125735EL530399237125553    201906411400580010000000ROMMY BIN MICHAEL YONG             E00014595 
0C861125495719EL53000114662        201906000000523340052334KDN262S082  80065093   K527345C2939E00016718 
1C861125495719EL530399224169484    201906410800245420000000JOSWIN BIN GAUN                    E00016718 
1C861125495719EL530399232660624    201906411400277920000000JOSWIN BIN GAUN                    E00016718 
0C770808065925EL53000114665        201906000000696680069668KDN262F141  80094794   K527345C2939P00130131 
1C770808065925EL530399224167666    201906410400237510000000MOHD SUHAIMI BIN IBRAHIM           P00130131 
1C770808065925EL530399228723333    201906411200459170000000MOHD SUHAIMI BIN IBRAHIM           P00130131 
0C850321095049EL53000114689        201906000000726680072668KDN262S083  80123092   K527345C2939P00175039 
1C850321095049EL530399224199897    201906410800134590000000MOHD ROHAIRI BIN MADISA            P00175039 
1C850321095049EL530399237414432    201906411600592090000000MOHD ROHAIRI BIN MADISA            P00175039 
0C910402015575EL53000114793        201906000001203340120334KDN262S081  80131095   K527345C2939P00179335 
1C910402015575EL530399224191413    201906410800055420000000MUHAMMAD NURAZMIR BIN HAMIDON      P00179335 
1C910402015575EL530399237845878    201906411501147920000000MUHAMMAD NURAZMIR BIN HAMIDON      P00179335 
0C790405125055EL53000114799        201906000000626680062668KDN262S211  80129626   K527345C2939          
1C790405125055EL530399224194544    201906410100095010000000FERRER PEATRUS                               
1C790405125055EL530399232364166    201906411500531670000000FERRER PEATRUS                               
0C821024125990EL53000115143        201906000000561260056126KDN262S211  80071988   K527345C2939          
1C821024125990EL53000115143        201906410200150420000000NORFARINI BINTI JAMAL                        
1C821024125990EL530399238208923    201906411400410840000000NORFARINI BINTI JAMAL                        
0C880209495461EL53000115254        201906000000555840055584KDN262S071  80065035   K527345C2939E00016711 
1C880209495461EL530399232113279    201906411400555840000000ALPHONSUS ALBERT JAB               E00016711 
0C860402125122EL53000115265        201906000001282100128210KDN262S083  80127918   K527345C2939          
1C860402125122EL530399224316095    201906410800158340000000S.ROSMAWATIH BINTI ANGGERIS                  
1C860402125122EL530399237247310    201906411501123760000000S.ROSMAWATIH BINTI ANGGERIS                  
0C680601055501EL53000115266        201906000000319290031929KDN262S082  80061545   K527345C2939P00122841 
1C680601055501EL530399224317210    201906410800077620000000MOKHTAR BIN MAJID                  P00122841 
1C680601055501EL530399234470480    201906411200241670000000MOKHTAR BIN MAJID                  P00122841 
0C890819126486EL53000115318        201906000000304180030418KDN262S043  80129335   K527345C2939          
1C890819126486EL530399224336004    201906410400110840000000KARMILAH BINTI JALIL                         
1C890819126486EL530399231979402    201906411400193340000000KARMILAH BINTI JALIL                         
0C840621015793EL53000115330        201906000000731260073126KDN262S081  80130755   K527345C2939P00179341 
1C840621015793EL530399224339741    201906410800102920000000HALID BIN SELIMAN                  P00179341 
1C840621015793EL530399236253058    201906411700628340000000HALID BIN SELIMAN                  P00179341 
0C850916065527EL53000115351        201906000000338760033876KDN262S116  80062203   K527345C2939P00156911 
1C850916065527EL530399224348835    201906410400205840000000MOHD MAKRAM BIN ZAKARIA            P00156911 
1C850916065527EL530399234396722    201906411200132920000000MOHD MAKRAM BIN ZAKARIA            P00156911 
0C890511235037EL53000115447        201906000001358770135877KDN262S081  80133757   K527345C2939P00180777 
1C890511235037EL530399224389756    201906410800380010000000MUHAMMAD KHALID BIN ALIMAN         P00180777 
1C890511235037EL530399234788156    201906411400978760000000MUHAMMAD KHALID BIN ALIMAN         P00180777 
0C841209125485EL53000115821        201906000000465430046543KDN262S083  80064970   K527345C2939E00015481 
1C841209125485EL530399224498779    201906410800102920000000CLAYCHARLES                        E00015481 
1C841209125485EL530399235800895    201906411500362510000000CLAYCHARLES                        E00015481 
0C850123065527EL53000115956        201906000000382100038210KDN262S052  80135388   K527345C2939P00181136 
1C850123065527EL530399224701772    201906410700261260000000ABDUL MANAN BIN ABDUL MAJID        P00181136 
1C850123065527EL530399231285648    201906411200120840000000ABDUL MANAN BIN ABDUL MAJID        P00181136 
0C830702125573EL53000116171        201906000001530020153002KDN262S211  80042925   K527345C2939P00159939 
1C830702125573EL530399224802008    201906410100950010000000NAPOLEON @ JOEJO BIN SOSONG        P00159939 
1C830702125573EL530399235023986    201906411500447090000000NAPOLEON @ JOEJO BIN SOSONG        P00159939 
1C830702125573EL530399236561943    201906411600132920000000NAPOLEON @ JOEJO BIN SOSONG        P00159939 
0C881112525104EL53000116455        201906000000723760072376KDN262S082  80110339   K527345C2939P00166854 
1C881112525104EL530399224791702    201906410800300840000000LAURA SHAM BINTI BUDIN             P00166854 
1C881112525104EL530399230938266    201906411200422920000000LAURA SHAM BINTI BUDIN             P00166854 
0C870609526141EL53000116507        201906000000460430046043KDN262F141  80107613   K527345C2939          
1C870609526141EL53000116507        201906410400158340000000KHAIRUL AZHAR BIN REJELI                     
1C870609526141EL53000116507        201906411200302090000000KHAIRUL AZHAR BIN REJELI                     
0C791008135991EL53000116709        201906000000277090027709KDN262S052  80062124   K527345C2939P00141067 
1C791008135991EL530399224769571    201906410700277090000000SABESTINO BONG                     P00141067 
0C680216125753EL53000116820        201906000000595730059573KDN262F131  80094745   K527345C2939P00117820 
1C680216125753EL530399224797156    201906410800329890000000PAISOON BIN BIBIT                  P00117820 
1C680216125753EL530399232289596    201906411200265840000000PAISOON BIN BIBIT                  P00117820 
0C840727126213EL53000116821        201906000000203350020335KDN262S083  80064899   K527345C2939E00016267 
1C840727126213EL530399224880820    201906410800118760000000MUHAMAD HARIF BIN ORONG            E00016267 
1C840727126213EL530399230856020    201906411200084590000000MUHAMAD HARIF BIN ORONG            E00016267 
0C780710125845EL53000116872        201906000001229610122961KDN262F111  80053783   K527345C2939R00016647 
1C780710125845EL530399224864652    201906410800395840000000MAIJOR BIN BABAK                   R00016647 
1C780710125845EL530399233463397    201906411200253760000000MAIJOR BIN BABAK                   R00016647 
1C780710125845EL530399237085036    201906411400580010000000MAIJOR BIN BABAK                   R00016647 
0C750218125889EL53000116995        201906000000745020074502KDN262F161  80096422   K527345C2939E00013952 
1C750218125889EL530399224651252    201906410600237510000000ZULKIFLEE BIN ABDUL LATIP          E00013952 
1C750218125889EL530399238058470    201906411400507510000000ZULKIFLEE BIN ABDUL LATIP          E00013952 
0C810220145397EL53000117338        201906000000785420078542KDN262S241  80062150   K527345C2939P00146608 
1C810220145397EL530399229200249    201906410400785420000000SHAHRIL BIN ABU BAKAR              P00146608 
0C700623135348EL53000117497        201906000000265840026584KDN262S211  80059952   K527345C2939CH0729302 
1C700623135348EL530399236068758    201906411200265840000000ASLINAH BINTI MASRIN               CH0729302 
0C900206025021EL53000117746        201906000001002920100292KDN262S082  80120782   K527345C2939E00021228 
1C900206025021EL530399238028057    201906411501002920000000MOHD FIRDAUS BIN MOHAMAD           E00021228 
0C820517125943EL53000118006        201906000000845840084584KDN262S092  80064770   K527345C2939E00016735 
1C820517125943EL530399238055036    201906411500845840000000AB AZIS BIN KATAMURA               E00016735 
0C780921125829EL53000118219        201906000000422920042292KDN262S241  80063764   K527345C2939P00137295 
1C780921125829EL530399232756513    201906411200422920000000MOHAMED FARIZ BIN NASRAH           P00137295 
0C820319125731EL53000118499        201906000000930430093043KDN262F131  80095620   K527345C2939P00148793 
1C820319125731EL530399230122254    201906410800592090000000ISMAIL BIN TAIB                    P00148793 
1C820319125731EL530399233423385    201906411200338340000000ISMAIL BIN TAIB                    P00148793 
0C820126125399EL53000118925        201906000000483340048334KDN262S051  80065082   K527345C2939E00015106 
1C820126125399EL530399232639709    201906411400483340000000BIEDY BIN EDWIN                    E00015106 
0C861023295687EL53000119177        201906000000362510036251KDN262T011  80119226   K527345C2939E00020026 
1C861023295687EL530399231598371    201906411200362510000000BUDI NORAFENDI BIN ABD RAZAK       E00020026 
0C800926125057EL53000119213        201906000000169170016917KDN262S091  80005441   K527345C2939P00141628 
1C800926125057EL530399232258981    201906411200169170000000NAZRI BIN AWANG @ KASSIM           P00141628 
0C890927115653EL53000119325        201906000001256670125667KDN262S092  80137273   K527345C2939P00183607 
1C890927115653EL530399236614382    201906411401256670000000MOHD BADRUL HISHAM BIN MAT JUSOH   P00183607 
0C780416125545EL53000119373        201906000000616260061626KDN262S043  80062855   K527345C2939P00134380 
1C780416125545EL530399231615650    201906411200616260000000MOHD.SABBRY BIN MUKRI              P00134380 
0C791102125343EL53000119566        201906000000471260047126KDN262S072  80022582   K527345C2939P00157122 
1C791102125343EL530399231604031    201906411400471260000000AZMAN @  OH SIAW MING BIN ADZAHARI P00157122 
0C830413126211EL53000119601        201906000000314170031417KDN262S241  80060037   K527345C2939          
1C830413126211EL530399229692626    201906410100314170000000MOHD HANIFF BIN HARIFFIN                     
0C841219145121EL53000119736        201906000000338340033834KDN262F141  80100752   K527345C2939          
1C841219145121EL530399228423542    201906410400338340000000MOHAMMAD NAZMI BIN SHAHRAN                   
0C840120135076EL53000119912        201906000000749170074917KDN262Q110  80063856   K527345C2939P00154706 
1C840120135076EL530399231390732    201906411200749170000000MORIANA ANAK SELA                  P00154706 
0C890131025433EL53000119989        201906000000398760039876KDN262F131  80110132   K527345C2939P00166623 
1C890131025433EL530399231718411    201906411200398760000000SHAHRIZUL BIN MUSA                 P00166623 
0C840305135945EL53000120031        201906000000338340033834KDN262S131  80061790   K527345C2939P00156419 
1C840305135945EL530399232597875    201906411200338340000000SHARIZAN BIN MOHAMAD ARSAD         P00156419 
0C830805135707EL53000120148        201906000000833760083376KDN262F131  80096089   K527345C2939P00156671 
1C830805135707EL530399233423587    201906411200833760000000MOHAMAD HAMRAH BIN SEROJI          P00156671 
0C850426035325EL53000120429        201906000000567920056792KDN262F131  80037407   K527345C2939P00148807 
1C850426035325EL530399232058012    201906411200567920000000MOHD SHAFIQ AZIM BIN OTHAMAN       P00148807 
0C750625125667EL53000120444        201906000000688770068877KDN262S083  80116241   K527345C2939          
1C750625125667EL530399234801189    201906411400616260000000AZMAN BIN ITON                               
1C750625125667EL530399237260949    201906411500072510000000AZMAN BIN ITON                               
0C860101495568EL53000120465        201906000000072510007251KDN262S083  80127982   K527345C2939          
1C860101495568EL530399237093524    201906411500072510000000MELISSA BINTI MALAIL                         
0C771128125802EL53000120772        201906000000845840084584KDN262S063  80061248   K527345C2939P00138140 
1C771128125802EL530399236363701    201906411400845840000000MASLINA BINTI MAPPA                P00138140 
0C781011126069EL53000121227        201906000000398760039876KDN262S241  80092352   K527345C2939P00151848 
1C781011126069EL530399229118205    201906410400398760000000ARIF BIN JAKARIHI                  P00151848 
0C890308015135EL53000121280        201906000000676670067667KDN262F131  80109852   K527345C2939P00166592 
1C890308015135EL530399232260597    201906411200676670000000MUHAMAD HAMIZE BIN HAMIN           P00166592 
0C830625125210EL53000121403        201906000000592100059210KDN262S211  80109055   K527345C2939          
1C830625125210EL530399231740437    201906411200447090000000BRENDA ROGER SIKIUS                          
1C830625125210EL530399236209107    201906411500145010000000BRENDA ROGER SIKIUS                          
0C880508125444EL53000121758        201906000000652510065251KDN262S211  80103078   K527345C2939          
1C880508125444EL530399231831373    201906411200652510000000FATHIAH BINTI NAWI                           
0C860602526457EL53000121934        201906000000181260018126KDN262F141  80095414   K527345C2939P00160752 
1C860602526457EL530399228364029    201906410400181260000000IHSAN BIN JUWEN                    P00160752 
0C830329135561EL53000122008        201906000000966670096667KDN262F151  80083052   K527345C2939P00184988 
1C830329135561EL530399232145716    201906411200966670000000PENDIN ANAK GUYU                   P00184988 
0C880411525695EL53000122156        201906000000531670053167KDN262S064  80116646   K527345C2939P00171455 
1C880411525695EL530399231428926    201906411200531670000000FAVIAN NORBERT ANAK WILLIAM AHIAT  P00171455 
0C811030125517EL53000122196        201906000000628340062834KDN262F141  80117105   K527345C2939          
1C811030125517EL530399230394763    201906410400628340000000ZAIDDIN BIN ABDUL RAHIM                      
0C680428125560EL53000122309        201906000000326260032626KDN262S082  80019887   K527345C2939P00106564 
1C680428125560EL530399228973109    201906410800326260000000NAZIRA BTE ABDULLAH @ MARY PHILIP KP00106564 
0C881022125027EL53000122472        201906000000193340019334KDN262S043  80129285   K527345C2939          
1C881022125027EL530399231029105    201906410400193340000000MOHD NOORHELMEE BIN AG MUMIN                 
0C890718135287EL53000122999        201906000000894180089418KDN262S083  80126643   K527345C2939P00176491 
1C890718135287EL530399231712448    201906411200785420000000SIDI ANAK CHENDAN                  P00176491 
1C890718135287EL530399236824348    201906411400108760000000SIDI ANAK CHENDAN                  P00176491 
0C740504126023EL53000123119        201906000000628340062834KDN262S083  80062002   K527345C2939P00129487 
1C740504126023EL530399231379315    201906411200628340000000REJOS BIN MONONGOH                 P00129487 
0C850124025279EL53000123771        201906000000507510050751KDN262F131  80049864   K527345C2939P00156009 
1C850124025279EL530399231597866    201906411200507510000000ABDUL RAHMAN BIN ISMAIL            P00156009 
0C831226125453EL53000123786        201906000000241670024167KDN262S241  80009231   K527345C2939P00147182 
1C831226125453EL530399234875759    201906410800241670000000HEMILTON BIN GULINTOK              P00147182 
0C911029125075EL53000123856        201906000000447090044709KDN262S083  80144646   K527345C2939E00022359 
1C911029125075EL530399237942474    201906411400447090000000VERYFOR DUNDUNGUT                  E00022359 
0C870206495635EL53000124524        201906000000797510079751KDN262S083  80118309   K527345C2939          
1C870206495635EL530399233558983    201906411200350420000000FEKRI BIN ASMAD                              
1C870206495635EL530399237586305    201906411400447090000000FEKRI BIN ASMAD                              
0C911109016653EL53000125042        201906000000954590095459KDN262S081  80130896   K527345C2939P00179359 
1C911109016653EL530399238096462    201906411500954590000000MUHAMAD RIZAL BIN MD JAIS          P00179359 
0C871004025381EL53000125234        201906000000471260047126KDN262F131  80141628   K527345C2939G00021823 
1C871004025381EL530399232242918    201906411200471260000000SURESHKUMAR A/L PANNIRSELVAM       G00021823 
0C850407145369EL53000125441        201906000000700840070084KDN262S081  80136871   K527345C2939P00184067 
1C850407145369EL530399234175440    201906411400700840000000KHAIRUL AFZAM BIN ZAKARIA          P00184067 
0C730101038433EL53000126248        201906000000132920013292KDN0641727  20001239   K527345C2939CA2405874 
1C730101038433EL530399229173270    201906410800132920000000SUHAIMI BIN MANSOR                 CA2405874 
0C870816055485EL53000126416        201906000000422920042292KDN262S083  80139107   K527345C2939P00185349 
1C870816055485EL530399237049771    201906411200422920000000MOHD ADI MAYA BIN ABD RAHMAN       P00185349 
0C820425135079EL53000126669        201906000000277920027792KDN262F141  80129139   K527345C2939P00177401 
1C820425135079EL530399228518522    201906410400277920000000JIHENG ANAK RAAG                   P00177401 
0C890321115253EL53000127093        201906000000543760054376KDN262C066  80137575   K527345C2939P00184211 
1C890321115253EL530399230684147    201906410800543760000000MUHAMMAD IMRAN BIN DAIK            P00184211 
0C790902715099EL53000127110        201906000000604170060417KDN262S211  80056029   K527345C2939G00019192 
1C790902715099EL530399229929971    201906410100604170000000PENGIRAN MOHAMMAD ZAMRI BIN PG OMARG00019192 
0C890726045337EL53000127337        201906000000362510036251KDN262F341  80109631   K527345C2939P00166577 
1C890726045337EL530399232047302    201906411200362510000000AYUB BIN MD YUSUFF                 P00166577 
0C830409135297EL53000127485        201906000000169170016917KDN262S072  80100633   K527345C2939P00145072 
1C830409135297EL530399231190264    201906411400169170000000RIO BIN GAMUL                      P00145072 
0C761005135665EL53000127498        201906000000169170016917KDN262F141  80094618   K527345C2939P00136417 
1C761005135665EL530399228385348    201906410400169170000000RIZAL RASHDI BIN JARAI'IE          P00136417 
0C830503126135EL53000127620        201906000000350420035042KDN262F141  80089635   K527345C2939P00153648 
1C830503126135EL530399228439407    201906410400350420000000NASRU BIN NAPING                   P00153648 
0C831123125485EL53000127621        201906000000447090044709KDN262S184  80021948   K527345C2939P00144636 
1C831123125485EL530399237378561    201906411400447090000000RUDY BIN ROBIN                     P00144636 
0C820226125353EL53000127626        201906000000181260018126KDN262F141  80091649   K527345C2939P00146149 
1C820226125353EL530399228446578    201906410400181260000000JUNAIDI BIN ASMADI                 P00146149 
0C800423035885EL53000127834        201906000000459170045917KDN262S112  80036202   K527345C2939P00158622 
1C800423035885EL530399231316667    201906410400459170000000AB RAHIM BIN AB HALIM              P00158622 
0C890112015379EL53000127869        201906000001425850142585KDN262S081  80130959   K527345C2939P00179362 
1C890112015379EL530399236422002    201906411400157090000000RAJA IRSHAD SHAFIQ BIN RAJA SULAIMAP00179362 
1C890112015379EL530399232517952    201906411201268760000000RAJA IRSHAD SHAFIQ BIN RAJA SULAIMAP00179362 
0C841011126183EL53000127949        201906000000604170060417KDN262S112  80090406   K527345C2939P00149512 
1C841011126183EL530399228597334    201906410400604170000000HAMIZAN BIN BAKU                   P00149512 
0C850101125218EL53000128017        201906000000048340004834KDN262S211  20052940   K527345C2939          
1C850101125218EL530399228653211    201906410100048340000000LYDIA EMELVA TOKIU                           
0C840519135983EL53000128034        201906000000483340048334KDN262S116  80145403   K527345C2939P00189606 
1C840519135983EL530399228668466    201906410400483340000000STANLEY ANAK RANTAI                P00189606 
0C810430125829EL53000128046        201906000000386670038667KDN262S117  80081168   K527345C2939P00143955 
1C810430125829EL530399228677459    201906410400386670000000MOHD ANUAR BIN PULAN TIGA          P00143955 
0C821018016595EL53000128077        201906000000193340019334KDN262A06R  80094241   K527345C2939P00143053 
1C821018016595EL530399228698475    201906410400193340000000RATNAVEL A/L KRISHNAN @ GOVINDAN   P00143053 
0C911031136283EL53000128098        201906000000435010043501KDN262F141  80129097   K527345C2939          
1C911031136283EL53000128098        201906410400435010000000MOHAMMAD KHALIFAH BIN SANUSI                 
0C850813136361EL53000128124        201906000000604170060417KDN262F221  80070963   K527345C2939P00185145 
1C850813136361EL530399228718986    201906410800604170000000MARKINGSTON SILANG ANAK SANG       P00185145 
0C830630135501EL53000128127        201906000000181260018126KDN262F141  80101078   K527345C2939P00162015 
1C830630135501EL530399228721111    201906410400181260000000BOLHASSAN BIN BAHROL               P00162015 
0C770530125304EL53000128152        201906000000700850070085KDN262S211  80062437   K527345C2939P00131494 
1C770530125304EL530399235037427    201906411200652510000000SARINAH BINTI SAHAD                P00131494 
1C770530125304EL530399236810002    201906411400048340000000SARINAH BINTI SAHAD                P00131494 
0C840123125893EL53000128286        201906000000362510036251KDN262S117  80037368   K527345C2939P00145242 
1C840123125893EL530399237200123    201906411200362510000000MUHAMMAD BIN HABAHI                P00145242 
0C690213125917EL53000128341        201906000000845840084584KDN262F141  80095470   K527345C2939P00124825 
1C690213125917EL530399228832558    201906410400845840000000JONIS BIN MOKUJA                   P00124825 
0C920501065323EL53000128356        201906000001244600124460KDN262S081  80137540   K527345C2939P00184370 
1C920501065323EL530399236190616    201906411500120840000000MOHD AL HAFIS BIN GHANI            P00184370 
1C920501065323EL530399234350040    201906411401123760000000MOHD AL HAFIS BIN GHANI            P00184370 
0C830526135843EL53000128410        201906000000181260018126KDN262F141  80094941   K527345C2939P00156687 
1C830526135843EL530399228870247    201906410400181260000000SAHRIL BIN SHAHNI                  P00156687 
0C891231025179EL53000128412        201906000000314170031417KDN262S083  80132365   K527345C2939P00178449 
1C891231025179EL530399234094103    201906411200314170000000MUHAMMAD LUQMAN HAKIM BIN NORIZAN AP00178449 
0C860521295335EL53000128505        201906000000241670024167KDN262F141  80104531   K527345C2939P00163793 
1C860521295335EL530399228917838    201906410400241670000000MUHAMAD ALI BIN AB RASSID          P00163793 
0C730109135860EL53000128594        201906000000205420020542KDN262S133  80063203   K527345C2939P00129400 
1C730109135860EL530399231787523    201906411200205420000000NORMAH BINTI ZAINI                 P00129400 
0C770414087515EL53000128618        201906000000761270076127KDN262S116  80076882   K527345C2939P00131060 
1C770414087515EL530399233984571    201906411200362510000000MOHD NIZAM BIN AHMAD NAJRI         P00131060 
1C770414087515EL530399237135152    201906411400398760000000MOHD NIZAM BIN AHMAD NAJRI         P00131060 
0C840130125218EL53000128656        201906000001220440122044KDN262S069  80149229   K527345C2939          
1C840130125218EL530399234919310    201906411400773340000000SAYZFAWATI BINTI KASSIM                      
1C840130125218EL530399237266609    201906411500265840000000SAYZFAWATI BINTI KASSIM                      
1C840130125218EL530399237900038    201906411600181260000000SAYZFAWATI BINTI KASSIM                      
0C650424016167EL53000128711        201906000000481350048135KDN262S083  80098901   K527345C2939R00017373 
1C650424016167EL530399229011505    201906410800481350000000HASLINA BIN HASAN (KPL P00112721)  R00017373 
0C880518526161EL53000128745        201906000000277920027792KDN262S116  80134445   K527345C2939P00181518 
1C880518526161EL530399229031107    201906410400277920000000KIPLI BIN HAJI TAMIN               P00181518 
0C870628055437EL53000128759        201906000000447090044709KDN262V111  80134175   K527345C2939P00180736 
1C870628055437EL530399232473088    201906411200447090000000AMIR BIN HALIP                     P00180736 
0C860716525727EL53000128841        201906000000422920042292KDN262L071  80114559   K527345C2939P00169301 
1C860716525727EL530399229073543    201906410400422920000000SIM MOH LIANG                      P00169301 
0C911110065313EL53000128857        201906000000072510007251KDN262S091  80143387   K527345C2939P00187080 
1C911110065313EL530399237895590    201906411700072510000000MOHAMAD SYAFIQ BIN RADZALI         P00187080 
0C881027565777EL53000128910        201906000000374590037459KDN262S069  80133161   K527345C2939P00181818 
1C881027565777EL530399229105471    201906410100374590000000MUHAMMAD HASROL KUSZAINI BIN AZMAN P00181818 
0C730717055397EL53000129019        201906000000193340019334KDN0641701  20001927   K527345C2939CA2586800 
1C730717055397EL530399229149224    201906410800193340000000MOHD ASRI BIN KOTRI                CA2586800 
0C900530146343EL53000129068        201906000000338340033834KDN262S113  80119485   K527345C2939E00020622 
1C900530146343EL530399229170644    201906410400338340000000MURUGAN A/L SOLAMALA               E00020622 
0C780527715089EL53000129128        201906000000326260032626KDN262F131  80092316   K527345C2939P00137271 
1C780527715089EL530399230687177    201906410800326260000000QUAZI BIN AHMAD                    P00137271 
0C840219145768EL53000129144        201906000000386670038667KDN262S116  80127173   K527345C2939          
1C840219145768EL530399231125293    201906410400386670000000NUR DINI BINTI ASRI                          
0C820305016091EL53000129151        201906000000181260018126KDN262S241  80064252   K527345C2939P00148366 
1C820305016091EL530399229189135    201906410800181260000000V.MUGHEELAN A/L VIRRA MOHAN        P00148366 
0C840914125048EL53000129197        201906000000217510021751KDN262S112  80068142   K527345C2939P00154333 
1C840914125048EL530399229206616    201906410400217510000000NEVILLIE ALBERT                    P00154333 
0C810316125534EL53000129232        201906000000241670024167KDN262S069  80037339   K527345C2939P00141774 
1C810316125534EL530399229221265    201906410100241670000000JACQULINE JAMES                    P00141774 
0C751009125297EL53000129285        201906000000491670049167KDN262F141  80086910   K527345C2939P00139476 
1C751009125297EL530399229244305    201906410400491670000000JAFFRINIH BIN YUSOF                P00139476 
0C880831025689EL53000129302        201906000000096670009667KDN262F141  80100320   K527345C2939P00163038 
1C880831025689EL530399229253597    201906410400096670000000MOHD AMATURRAHMAN BIN ABD RANI     P00163038 
0C810816125573EL53000129390        201906000000241680024168KDN262S081  80089021   K527345C2939P00150089 
1C810816125573EL530399229290074    201906410800120840000000MD ZUL BIN MAIDIN                  P00150089 
1C810816125573EL530399235100475    201906411200120840000000MD ZUL BIN MAIDIN                  P00150089 
0C730613125303EL53000129409        201906000000410850041085KDN262S052  80063726   K527345C2939P00134953 
1C730613125303EL530399235693185    201906411500169170000000HASSAN BIN SIDEK                   P00134953 
1C730613125303EL530399236253866    201906411600169170000000HASSAN BIN SIDEK                   P00134953 
1C730613125303EL530399237063616    201906411700072510000000HASSAN BIN SIDEK                   P00134953 
0C751211125477EL53000129434        201906000000241670024167KDN262F141  80096287   K527345C2939P00140792 
1C751211125477EL530399229308868    201906410400241670000000JIM BIN HASSAN                     P00140792 
0C790731125691EL53000129770        201906000000737090073709KDN262S083  80083182   K527345C2939R00016695 
1C790731125691EL530399232136622    201906411200737090000000HENDRIKUS PATI B KOPONG            R00016695 
0C650605126533EL53000129904        201906000000649540064954KDN262S052  80062349   K527345C2939P00117689 
1C650605126533EL530399231497331    201906411200198340000000JAUBIN BIN MAILIP  (KPL:P00017689) P00117689 
1C650605126533EL530399232704676    201906411400368340000000JAUBIN BIN MAILIP  (KPL:P00017689) P00117689 
1C650605126533EL530399236276502    201906411500082860000000JAUBIN BIN MAILIP  (KPL:P00017689) P00117689 
0C881006055575EL53000130077        201906000000072510007251KDN262M01D  80121134   K527345C2939E00021518 
1C881006055575EL530399229648772    201906410400072510000000MOHAMMAD ALIFF BIN ABDUL MANAP     E00021518 
0C850901126171EL53000130210        201906000000181260018126KDN262S117  80113848   K527345C2939P00169531 
1C850901126171EL530399229727685    201906410400181260000000ZORNI BIN ABDUL RAKAT              P00169531 
0C810530065819EL53000130263        201906000000253760025376KDN262F111  80096300   K527345C2939P00149146 
1C810530065819EL530399229759617    201906410400253760000000MOHD HAFAS BIN ABD HALIM           P00149146 
0C830208125279EL53000130286        201906000000132920013292KDN262F141  80043535   K527345C2939P00151484 
1C830208125279EL530399229772347    201906410400132920000000MAAROF BIN NASILUDDIN              P00151484 
0C790526125123EL53000130612        201906000000229600022960KDN262S112  80088082   K527345C2939P00139797 
1C790526125123EL530399234074497    201906411500072510000000IMRAN BIN SARIDI                   P00139797 
1C790526125123EL530399236057846    201906411600157090000000IMRAN BIN SARIDI                   P00139797 
0C820826015625EL53000130683        201906000000410840041084KDN262S069  80130844   K527345C2939P00179316 
1C820826015625EL530399231885634    201906411200410840000000MOHAMAD ESMEY BIN MOHAMAD NORANI   P00179316 
0C860214356273EL53000130776        201906000000362510036251KDN262S083  80133603   K527345C2939P00182213 
1C860214356273EL530399229987868    201906410800241670000000MOHAMAD FADZLI BIN MOHAMAD FADZIL  P00182213 
1C860214356273EL530399237265797    201906411200120840000000MOHAMAD FADZLI BIN MOHAMAD FADZIL  P00182213 
0C600721125532EL53000130859        201906000000440960044096KDN262S116  80136239   K527345C2939CH0462585 
1C600721125532EL530399232061951    201906410400440960000000JOANNI BINTI JOHN IBRAHIM          CH0462585 
0C760201126163EL53000130886        201906000000604170060417KDN262S052  80073130   K527345C2939R00015251 
1C760201126163EL530399230030712    201906410700604170000000JAMZAMI BIN JUBIN                  R00015251 
0C880929065435EL53000130970        201906000000483340048334KDN262F141  80148753   K527345C2939P00191477 
1C880929065435EL530399230067286    201906410400483340000000ZULHELMI BIN ABD WAHAB             P00191477 
0C871002525999EL53000131003        201906000000362510036251KDN262F141  80116892   K527345C2939P00171670 
1C871002525999EL530399230079616    201906410400362510000000RAPHAEL REBOTY ANAK UDIN           P00171670 
0C910606075203EL53000131152        201906000000169170016917KDN262F511  80128991   K527345C2939P00176689 
1C910606075203EL530399230143270    201906410400169170000000MUHAMMAD AZLAN SHAH BIN YUSOF      P00176689 
0C881128025243EL53000131197        201906000000676680067668KDN262S082  80144945   K527345C2939P00189411 
1C881128025243EL530399232543618    201906411400616260000000KUMARAGURU A/L TANDAPANY           P00189411 
1C881128025243EL530399235128565    201906411500060420000000KUMARAGURU A/L TANDAPANY           P00189411 
0C660718055021EL53000131238        201906000000556980055698KDN262F131  80094117   K527345C2939P00124210 
1C660718055021EL530399230178333    201906410800181260000000NSRUDDIN BIN MALEK                 P00124210 
1C660718055021EL530399237083521    201906411200375720000000NSRUDDIN BIN MALEK                 P00124210 
0C841003126159EL53000131508        201906000000326260032626KDN262S081  80112837   K527345C2939P00168663 
1C841003126159EL530399231392550    201906411200326260000000ABDUL HANDI BIN ABD RASIT          P00168663 
0C870810525909EL53000131570        201906000000386670038667KDN262F131  80109600   K527345C2939P00166220 
1C870810525909EL530399230299985    201906410800386670000000ANDREW BOB ANAK SINGUN             P00166220 
0C820812125436EL53000131806        201906000000386670038667KDN262S116  80127152   K527345C2939          
1C820812125436EL530399230396783    201906410400386670000000NURLINA BINTI S ARASID                       
0C860215526094EL53000131956        201906000000253760025376KDN262S131  80110467   K527345C2939P00166876 
1C860215526094EL530399230450741    201906410100253760000000AVECHIL ANAK SIKIN                 P00166876 
0C880126025261EL53000131983        201906000000362510036251KDN262S081  80143457   K527345C2939P00187101 
1C880126025261EL530399230458320    201906410800241670000000ISMAIL BIN MD AKHIR                P00187101 
1C880126025261EL530399237539118    201906411200120840000000ISMAIL BIN MD AKHIR                P00187101 
0C890204235117EL53000132177        201906000000362510036251KDN262S081  80144684   K527345C2939P00187412 
1C890204235117EL530399238143952    201906411400362510000000MOHD FADZIL BIN SAFARUDIN PATI     P00187412 
0C840630126161EL53000132396        201906000000193340019334KDN262S116  80133223   K527345C2939P00180574 
1C840630126161EL530399234596580    201906411200193340000000MOHD AIDIL BIN MOHD NOOR           P00180574 
0C900830125587EL53000132436        201906000000483340048334KDN262S117  80149553   K527345C2939          
1C900830125587EL530399237561649    201906411400483340000000MOHD. NAZRIN SHAH BIN MUSIRIN                
0C840924125279EL53000132909        201906000000507510050751KDN262S116  80127196   K527345C2939          
1C840924125279EL530399235265476    201906411400507510000000A. SHAHRIZAN BIN DAMING                      
0C800515136405EL53000132937        201906000000120840012084KDN262F141  80095615   K527345C2939P00146223 
1C800515136405EL530399230799032    201906410400120840000000KONG SIONG ANAK SINAU              P00146223 
0C680313016233EL53000132988        201906000000283340028334KDN262F141  80096150   K527345C2939P00124053 
1C680313016233EL530399230818432    201906410400283340000000MOHD KHOLID BIN SUHAIMI            P00124053 
0C870416105033EL53000133105        201906000000749170074917KDN262F131  80152712   K527345C2939          
1C870416105033EL530399232829968    201906411200749170000000MOHD NOOR FIKRI BIN MOHD NAWI                
0C840624065307EL53000133195        201906000001365440136544KDN262S043  80135590   K527345C2939R00020508 
1C840624065307EL530399233720146    201906411400217510000000YUSMA BIN MD YUSOFF                R00020508 
1C840624065307EL530399234805132    201906411500048340000000YUSMA BIN MD YUSOFF                R00020508 
1C840624065307EL530399232839264    201906411201099590000000YUSMA BIN MD YUSOFF                R00020508 
0C870709525605EL53000133203        201906000000350420035042KDN262S081  80143246   K527345C2939P00187389 
1C870709525605EL530399232101559    201906411200350420000000MOHD NAINEE JULIAN BIN HASSAN      P00187389 
0C850207135684EL53000133221        201906000000452650045265KDN262S114  80126936   K527345C2939          
1C850207135684EL530399230922102    201906410400132920000000ROSE ANGELINA ANAK JILIAM                    
1C850207135684EL530399233592026    201906411200241670000000ROSE ANGELINA ANAK JILIAM                    
1C850207135684EL530399236298124    201906411400078060000000ROSE ANGELINA ANAK JILIAM                    
0C890403135119EL53000133287        201906000000205420020542KDN262S113  80112244   K527345C2939P00168238 
1C890403135119EL530399234881621    201906411200205420000000MOHAMMAD RIZUAN BIN SULIMAN        P00168238 
0C770413125137EL53000133308        201906000000942520094252KDN2674023  07527039   K527345C2939          
1C770413125137EL530399232759139    201906410100725010000000PETRUS BIN FRANCIS                           
1C770413125137EL530399236475552    201906411200217510000000PETRUS BIN FRANCIS                           
0C871009305200EL53000133316        201906000000096670009667KDN262S081  80026818   K527345C2939P00159042 
1C871009305200EL530399231496119    201906410800096670000000NAZIRA BINTI ROSLI KAN             P00159042 
0C850610125523EL53000133364        201906000000241670024167KDN262S113  80017691   K527345C2939P00157089 
1C850610125523EL530399230975753    201906410400241670000000MUHAMMAD ALY FAISAL BIN TU         P00157089 
0C801202125355EL53000133387        201906000000531680053168KDN262S069  80008655   K527345C2939P00141590 
1C801202125355EL530399231016775    201906410100181260000000FAKHRUL ANUAR  BIN MD ALLI         P00141590 
1C801202125355EL530399235055918    201906411200350420000000FAKHRUL ANUAR  BIN MD ALLI         P00141590 
0C841009125480EL53000133389        201906000000422930042293KDN262S203  00110619   K527345C2939          
1C841009125480EL530399230982120    201906410700132920000000FAEZAH BINTI AHMAD                           
1C841009125480EL530399235119269    201906411500241670000000FAEZAH BINTI AHMAD                           
1C841009125480EL530399236739169    201906411600048340000000FAEZAH BINTI AHMAD                           
0C841030126015EL53000133392        201906000000555840055584KDN262S041  80089008   K527345C2939P00149926 
1C841030126015EL530399236603672    201906411400555840000000SALMAN BIN JUBIDEH                 P00149926 
0C830729135202EL53000133480        201906000001135840113584KDN262S069  80105952   K527345C2939P00164719 
1C830729135202EL530399236217591    201906411401135840000000SALIANA BINTI SAZALI               P00164719 
0C850512125458EL53000133630        201906000000241670024167KDN262F141  80093929   K527345C2939          
1C850512125458EL530399231079827    201906410400241670000000HADIRA BINTI AZMAN                           
0C870821015859EL53000133857        201906000000422930042293KDN262S211  80060932   K527345C2939P00160036 
1C870821015859EL530399231245636    201906410100241670000000MOHAMAD FITRI FAIZAL BIN OTHMAN    P00160036 
1C870821015859EL530399235979135    201906411200181260000000MOHAMAD FITRI FAIZAL BIN OTHMAN    P00160036 
0C700328086731EL53000133894        201906000000725010072501KDN262S112  80064071   K527345C2939P00126548 
1C700328086731EL530399237061289    201906411200725010000000MOHD NOR FADZIL BIN ADAM           P00126548 
0C830927125152EL53000133930        201906000000277930027793KDN262S211  80141853   K527345C2939          
1C830927125152EL530399231420236    201906410100120840000000DAHLIATY BINTI DALAMAS                       
1C830927125152EL530399236110285    201906411200157090000000DAHLIATY BINTI DALAMAS                       
0C871012025701EL53000133944        201906000000483340048334KDN262P044  80101648   K527345C2939P00184433 
1C871012025701EL530399231335764    201906410400483340000000MOHD NUR AZAN BIN MAT ISA          P00184433 
0C890822085021EL53000133988        201906000000277930027793KDN262F131  80109429   K527345C2939P00166151 
1C890822085021EL530399231371130    201906410800169170000000LOPE KHAIROL JAMAL BIN ZAKHIRI     P00166151 
1C890822085021EL530399232978805    201906411200108760000000LOPE KHAIROL JAMAL BIN ZAKHIRI     P00166151 
0C871030496435EL53000133989        201906000000265840026584KDN262S241  80118699   K527345C2939P00172823 
1C871030496435EL530399231371433    201906410800265840000000JIMMY RONI                         P00172823 
0C900726136999EL53000134009        201906000000459170045917KDN262S081  80143228   K527345C2939P00187376 
1C900726136999EL530399234335286    201906411200459170000000JOSEPH NGUMBANG CHANG              P00187376 
0C860406526839EL53000134016        201906000000410840041084KDN262S067  80144943   K527345C2939P00189409 
1C860406526839EL530399231453679    201906410100410840000000JOHN ETEN                          P00189409 
0C800624085053EL53000134121        201906000000555840055584KDN262S083  80095605   K527345C2939P00142874 
1C800624085053EL530399231470655    201906410800555840000000MOHD HILMI BIN ISMAIL              P00142874 
0C820825125443EL53000134285        201906000000410840041084KDN262S211  80059569   K527345C2939E00016321 
1C820825125443EL530399232596057    201906411200410840000000RUJIS BIN RAIMIN                   E00016321 
0C930215125881EL53000134373        201906000001015020101502KDN262S116  80149480   K527345C2939          
1C930215125881EL530399237361484    201906411500785420000000JHAIRI BIN JAAFAR                            
1C930215125881EL530399237754134    201906411600120840000000JHAIRI BIN JAAFAR                            
1C930215125881EL530399238269244    201906411700108760000000JHAIRI BIN JAAFAR                            
0C840426126041EL53000134464        201906000000132920013292KDN262F131  80091313   K527345C2939P00158702 
1C840426126041EL530399231670820    201906410800132920000000AZREE BIN ADIS                     P00158702 
0C850201125397EL53000134564        201906000000253760025376KDN262S081  80049801   K527345C2939P00153154 
1C850201125397EL530399231722855    201906410800253760000000MELBOY B MOTUSAI                   P00153154 
0C781122125261EL53000134621        201906000000169170016917KDN262S063  80043400   K527345C2939P00138418 
1C781122125261EL530399231748521    201906410100169170000000IRWAN BIN KARANA                   P00138418 
0C861030135091EL53000134637        201906000000132920013292KDN262S072  80103793   K527345C2939P00163534 
1C861030135091EL530399231751147    201906410800132920000000ABDUL AJIB BIN SAMAILE             P00163534 
0C740419125931EL53000134669        201906000000205420020542KDN262S069  80064531   K527345C2939P00131198 
1C740419125931EL530399231762766    201906410100205420000000MOHD SHAH SUNTIK                   P00131198 
0C830104125645EL53000134743        201906000000157090015709KDN262S073  80049006   K527345C2939P00152998 
1C830104125645EL530399231792977    201906410800157090000000VINCENT YONG TET EAN               P00152998 
0C900405086011EL53000134800        201906000000483340048334KDN262S062  80121881   K527345C2939P00173707 
1C900405086011EL530399231817532    201906410100483340000000MOHAMAD DAHRUL IRMAN BIN ABD AZIZ  P00173707 
0C880109355445EL53000134806        201906000000483340048334KDN262S133  80137820   K527345C2939P00184448 
1C880109355445EL530399231878661    201906410100483340000000THILEK A/L SANMUTHAM               P00184448 
0C840418135984EL53000134919        201906000000604180060418KDN262S051  80062190   K527345C2939P00155417 
1C840418135984EL530399231872597    201906410700241670000000HAMISAH BINTI MASRI                P00155417 
1C840418135984EL530399234251323    201906411200120840000000HAMISAH BINTI MASRI                P00155417 
1C840418135984EL530399235341157    201906411400241670000000HAMISAH BINTI MASRI                P00155417 
0C760705125551EL53000134948        201906000000575520057552KDN262S112  80067318   K527345C2939P00157455 
1C760705125551EL530399231886038    201906410400060420000000ADMI BIN ASMARAN                   P00157455 
1C760705125551EL530399232912117    201906411200084590000000ADMI BIN ASMARAN                   P00157455 
1C760705125551EL530399233247573    201906411400430510000000ADMI BIN ASMARAN                   P00157455 
0C850319035733EL53000134978        201906000000543770054377KDN262T034  80060300   K527345C2939R00017261 
1C850319035733EL530399231901192    201906410400362510000000SYAMSURI BIN HAMAT                 R00017261 
1C850319035733EL530399234545858    201906411400181260000000SYAMSURI BIN HAMAT                 R00017261 
0C910320015491EL53000134996        201906000000060420006042KDN262S069  80131045   K527345C2939P00179327 
1C910320015491EL530399231906044    201906410100060420000000MOHD FUAD BIN AHMAD                P00179327 
