0C690222125169EL530                2019060000015507901550790812110059  52640704   K529788C2953CH0732891 
1C690222125169EL530399221676180    201906411000249860000000ALADIN BIN LUGIMAN                 CH0732891 
1C690222125169EL530399238110206    201906411401300930000000ALADIN BIN LUGIMAN                 CH0732891 
0C791212125061EL530                2019060000002416700241670812110092  10910198   K529788C2953          
1C791212125061EL530399234769766    201906411000241670000000RAZLEE BIN HASSAN @ JAMES                    
0C880430125638EL530                2019060000003262600326260812510033  20326301   K529788C2953          
1C880430125638EL530399234888489    201906411200326260000000NORAFIZAH BINTI JAMILAN                      
0C691104125429EL530KGD0588540      2019060000006125100612510812110047  10631521   K529788C2953CH0735149 
1C691104125429EL530KGD0588540      201906411200612510000000MOURINE OMBOU                      CH0735149 
0C750311125568EL53000029414        2019060000002458400245840812510035  10758480   K529788C2953CH0896819 
1C750311125568EL530399238143043    201906411100245840000000SALIHA BINTI LOBOU @ SAIP          CH0896819 
0C691002125225EL53000032404        2019060000003131000313100812510039  10646966   K529788C2953CH0002200 
1C691002125225EL530399237618334    201906411100313100000000DAVID JOHNNY BIN STEPHEN LOIMIN    CH0002200 
0C650213125064EL53000035162        2019060000012440901244090812110007  05081880   K529788C2953CH0626470 
1C650213125064EL530399223830287    201906410100463320000000JOAN BINTI JEROME                  CH0626470 
1C650213125064EL530399232697909    201906411200510350000000JOAN BINTI JEROME                  CH0626470 
1C650213125064EL530399236861532    201906411400270420000000JOAN BINTI JEROME                  CH0626470 
0C700321125400EL53000037806        2019060000002275700227570812660008  52548204   K529788C2953CH0779182 
1C700321125400EL530399223656091    201906410100106730000000JUANAH BT ISMAIL @ JUANAH BT SAMUNTCH0779182 
1C700321125400EL530399230909570    201906411200120840000000JUANAH BT ISMAIL @ JUANAH BT SAMUNTCH0779182 
0C700705125995EL53000038233        2019060000003131000313100812660008  52548402   K529788C2953CH0732866 
1C700705125995EL530399237589941    201906411400313100000000ESAH BIN ALLI @ ESA                CH0732866 
0C621116125385EL53000040079        2019060000023236202323620812110123  60051900   K529788C2953CH0677607 
1C621116125385EL530399235466045    201906411400601260000000RAIM @ GEORGE BIN ANSIKOP          CH0677607 
1C621116125385EL530399236988036    201906411500248040000000RAIM @ GEORGE BIN ANSIKOP          CH0677607 
1C621116125385EL530399232816632    201906411201474320000000RAIM @ GEORGE BIN ANSIKOP          CH0677607 
0C651123125209EL53000046715        2019060000006637600663760812110181  05057799   K529788C2953CH0639147 
1C651123125209EL530399233191191    201906411100663760000000YONG TET KEE                       CH0639147 
0C690905125600EL53000057467        2019060000009008500900850812110146  10900082   K529788C2953CH0767770 
1C690905125600EL53000057467        201906411000900850000000LILY BINTI OLAK @ OLOK             CH0767770 
0C790415125024EL53000065862        2019060000014500101450010812110184  10913705   K529788C2953          
1C790415125024EL530399228743743    201906410101450010000000CHONG SUK FONG                               
0C680924125359EL53000066098        2019060000007566400756640812110127  10637460   K529788C2953CH0715502 
1C680924125359EL530399225517279    201906411000241670000000GERARD LAZURUS @ GERARD LAZARUS    CH0715502 
1C680924125359EL530399232749237    201906411200302090000000GERARD LAZURUS @ GERARD LAZARUS    CH0715502 
1C680924125359EL530399236879518    201906411400212880000000GERARD LAZURUS @ GERARD LAZARUS    CH0715502 
0C741117125041EL53000068011        2019060000009512700951270812110059  10646248   K529788C2953CH0871013 
1C741117125041EL530399221667793    201906411000552510000000JUSTINE BIN SALIM                  CH0871013 
1C741117125041EL530399232761058    201906411200398760000000JUSTINE BIN SALIM                  CH0871013 
0C741030125524EL53000068581        2019060000011116801111680812110057  10647170   K529788C2953CH0870737 
1C741030125524EL530399232237561    201906411200688760000000IVY CHRISTOPHER GISSONG            CH0870737 
1C741030125524EL530399237026028    201906411400422920000000IVY CHRISTOPHER GISSONG            CH0870737 
0C690720125858EL53000068972        2019060000016312601631260812110024  10908770   K529788C2953CH0730633 
1C690720125858EL530399231053050    201906410701631260000000ALINAH BINTI ASI @ ASIH            CH0730633 
0C721013125225EL53000069151        2019060000006041700604170812110236  10626752   K529788C2953CH0819640 
1C721013125225EL530399232771263    201906411100604170000000ZAINAL BIN MANAF                   CH0819640 
0C820428125132EL5300007265         2019060000010000101000010812110056  08897555   K529788C2953          
1C820428125132EL5300007265         201906410100395840000000VICTORIA JOHANNES JUANIS                     
1C820428125132EL530399234921532    201906411200604170000000VICTORIA JOHANNES JUANIS                     
0C810219125567EL53000072816        2019060000019741801974180812110130  10990489   K529788C2953          
1C810219125567EL530399237216893    201906411400628340000000LYDIUS BIN KASIN                             
1C810219125567EL530399224085622    201906411001345840000000LYDIUS BIN KASIN                             
0C660221125418EL53000073587        2019060000010571201057120812110145  60051815   K529788C2953CH0645455 
1C660221125418EL530399236047136    201906411400907980000000KAMARIAH BINTI SAIDIN @ HJ SAIDIN  CH0645455 
1C660221125418EL530399237342892    201906411500149140000000KAMARIAH BINTI SAIDIN @ HJ SAIDIN  CH0645455 
0C650306125290EL53000073664        2019060000002835300283530813610223  10642692   K529788C2953CH0650047 
1C650306125290EL530399237766864    201906411100283530000000JAMILAH BINTI ALI                  CH0650047 
0C770622125678EL53000074204        2019060000011054301105430812110151  10919512   K529788C2953CH0959589 
1C770622125678EL53000074204        201906410100356260000000SITI CYNTHIA DEWI BINTI SHAWAL     CH0959589 
1C770622125678EL530399232670829    201906411400326250000000SITI CYNTHIA DEWI BINTI SHAWAL     CH0959589 
1C770622125678EL530399234940225    201906411500422920000000SITI CYNTHIA DEWI BINTI SHAWAL     CH0959589 
0C800621125152EL53000075126        2019060000006766700676670812110062  60052470   K529788C2953          
1C800621125152EL530399237787072    201906411100676670000000NADZARIAH BINTI JUMAH                        
0C670314125512EL53000085978        2019060000003933400393340812110155  10633717   K529788C2953CH0696103 
1C670314125512EL530399235023683    201906411000393340000000MATILDAH @ IMELDA BINTI JULIUS @ KACH0696103 
0C820529125473EL53000086392        2019060000006041700604170812110087  60052517   K529788C2953          
1C820529125473EL530399237384322    201906411200604170000000SAMRI BIN JOHARI                             
0C780711125150EL53000116407        2019060000002441800244180813610225  60053120   K529788C2953          
1C780711125150EL530399224643067    201906410400087090000000BABY SAMSIAH BINTI SAMAT                     
1C780711125150EL530399231804903    201906411400157090000000BABY SAMSIAH BINTI SAMAT                     
0C880602125360EL53000121110        2019060000024045902404590812110032  20447622   K529788C2953          
1C880602125360EL530399232526945    201906411402404590000000JECKLIN ISHAK                                
0C830613125416EL53000121651        2019060000003020900302090812510035  20113749   K529788C2953          
1C830613125416EL530399237824054    201906411200302090000000ELVYANA BITNI ZAINAL                         
0C850616125364EL53000127423        2019060000010270901027090812110060  20524667   K529788C2953          
1C850616125364EL530399232922322    201906411201027090000000PHYLLICIA TAUPIK                             
0C871225495352EL53000127669        2019060000009062700906270812510039  20221768   K529788C2953          
1C871225495352EL530399233998416    201906411200543760000000ELVIE CORRINELEA FELIX                       
1C871225495352EL530399235456850    201906411400229590000000ELVIE CORRINELEA FELIX                       
1C871225495352EL530399237021782    201906411500132920000000ELVIE CORRINELEA FELIX                       
0C880314495770EL53000128078        2019060000008941700894170812510033  20464618   K529788C2953          
1C880314495770EL530399235375109    201906411000894170000000AMIDAH BINTI AMUN                            
0C880430495110EL53000129024        2019060000006645900664590812510033  20468524   K529788C2953          
1C880430495110EL530399231325357    201906410400664590000000MUSRINNA BINTI MUSTAPA                       
0C691119715069EL53000129362        2019060000003383400338340812110219  52636827   K529788C2953CA1414891 
1C691119715069EL530399229293209    201906410400338340000000MOHAMMAD FUAD BIN ABU BAKAR        CA1414891 
0C830717125664EL53000130347        2019060000004712600471260812510018  60043716   K529788C2953          
1C830717125664EL530399237432620    201906411000471260000000ALICE BINTI LANGIAN                          
0C860510495470EL53000135079        2019060000005437600543760812510039  20109345   K529788C2953          
1C860510495470EL530399235706424    201906411200543760000000JESSICA BINTI ANSAIN                         
0C630101127577EL53000135093        2019060000003780400378040812110157  60051782   K529788C2953CH0447930 
1C630101127577EL530399231957978    201906411000378040000000JUNIS BIN GULOROW @ DURULOU        CH0447930 
0C710101125619EL53000135161        2019060000013412601341260812110139  52637494   K529788C2953CH0799647 
1C710101125619EL530399231974550    201906411000604170000000DANIEL LEONG                       CH0799647 
1C710101125619EL530399233873427    201906411200604170000000DANIEL LEONG                       CH0799647 
1C710101125619EL530399235457557    201906411400132920000000DANIEL LEONG                       CH0799647 
0C931015126884EL53000135423        2019060000003020900302090812510035  20411628   K529788C2953          
1C931015126884EL530399237251451    201906411300060420000000NORIZAH MOKSIN                               
1C931015126884EL530399237764541    201906411400241670000000NORIZAH MOKSIN                               
0C860819125320EL53000136873        2019060000004287600428760812510033  60038202   K529788C2953          
1C860819125320EL530399232685579    201906411000428760000000EVYLIN BINTI ENGAH @ DAHLAN                  
0C820313125343EL53000136904        2019060000002416700241670812110226  20059089   K529788C2953          
1C820313125343EL530399232712053    201906410900241670000000HENRY JIKISAI                                
0C770619125423EL53000136951        2019060000003141800314180812110074  20279916   K529788C2953          
1C770619125423EL530399232730645    201906411100217510000000AWANG MARALI BIN AMIN                        
1C770619125423EL530399233945266    201906411200096670000000AWANG MARALI BIN AMIN                        
0C800625125459EL53000136966        2019060000007854300785430812110025  20568542   K529788C2953          
1C800625125459EL530399232739941    201906411000241670000000VINUS BIN TAYOK @ KAYUK                      
1C800625125459EL530399234268602    201906411200386670000000VINUS BIN TAYOK @ KAYUK                      
1C800625125459EL530399237855982    201906411400157090000000VINUS BIN TAYOK @ KAYUK                      
0C820613125839EL53000136967        2019060000003020900302090812510018  20417478   K529788C2953          
1C820613125839EL530399237529418    201906411200302090000000MUHAMAD BIN OMAR                             
0C860320125524EL53000136973        2019060000005558500555850812110138  20100906   K529788C2953          
1C860320125524EL530399232740951    201906411000483340000000LINDA JOHN LINTUNGAN                         
1C860320125524EL530399234794220    201906411200072510000000LINDA JOHN LINTUNGAN                         
0C730816125151EL53000137040        2019060000003020900302090812110236  10907301   K529788C2953CH0862043 
1C730816125151EL530399232772778    201906411100302090000000JUSLI BIN DULAH                    CH0862043 
0C900330125708EL53000137046        2019060000001208400120840812510038  20193642   K529788C2953          
1C900330125708EL530399232775509    201906410100120840000000GRACE LAURA SIKOR                            
0C860729495408EL53000137050        2019060000002416700241670812110032  20283183   K529788C2953          
1C860729495408EL530399232777327    201906410100241670000000HENLEY BINTI PAINIS                          
0C871004065797EL53000137105        2019060000024166702416670812510033  20361706   K529788C2953          
1C871004065797EL530399232814612    201906411002416670000000AHMAD SYAFIQ BIN ISMAIL                      
0C891201125080EL53000137228        2019060000012083401208340812110024  20497475   K529788C2953          
1C891201125080EL530399232866546    201906411100604170000000SYLVIA JOHNNY                                
1C891201125080EL530399234523125    201906411200604170000000SYLVIA JOHNNY                                
0C920310125952EL53000137234        2019060000014500101450010812110083  20566280   K529788C2953          
1C920310125952EL530399232868768    201906410801450010000000TRACY JAMES                                  
0C820819125367EL53000137394        2019060000017762701776270812110093  20280962   K529788C2953          
1C820819125367EL530399232929291    201906411000966670000000HAZRAIN BIN LAZARUS                          
1C820819125367EL530399236259627    201906411200447090000000HAZRAIN BIN LAZARUS                          
1C820819125367EL530399237158693    201906411400362510000000HAZRAIN BIN LAZARUS                          
0C921031126586EL53000137444        2019060000010875101087510812110062  20566263   K529788C2953          
1C921031126586EL530399232950513    201906411101087510000000WANN AZWANI BINTI DENIS                      
0C930903126968EL53000137561        2019060000014862701486270812510039  20407848   K529788C2953          
1C930903126968EL530399233015076    201906411100362510000000HALIFAH BINTI KISNO                          
1C930903126968EL530399233710749    201906411200604170000000HALIFAH BINTI KISNO                          
1C930903126968EL530399237570137    201906411500519590000000HALIFAH BINTI KISNO                          
0C821221125658EL53000138119        2019060000004229300422930812510033  20397354   K529788C2953          
1C821221125658EL530399233269502    201906411000241670000000CLARICE BINTI BITIH                          
1C821221125658EL530399236364812    201906411200181260000000CLARICE BINTI BITIH                          
0C710923125597EL53000138289        2019060000004833400483340812110030  10628303   K529788C2953CH0784022 
1C710923125597EL530399233489972    201906411000483340000000MAISIN BIN MADI                    CH0784022 
0C920228126497EL53000138518        2019060000015950101595010812510035  20408086   K529788C2953          
1C920228126497EL530399233459458    201906411101595010000000STANIS WALTER BIN SANARON                    
0C880426495265EL53000138767        2019060000004350200435020812510039  20447945   K529788C2953          
1C880426495265EL530399234235559    201906411200241670000000MOHAMMAD FAUZI JAMISIN                       
1C880426495265EL530399237061794    201906411400120840000000MOHAMMAD FAUZI JAMISIN                       
1C880426495265EL530399237862753    201906411500072510000000MOHAMMAD FAUZI JAMISIN                       
0C730807125758EL53000139503        2019060000005437700543770812110167  60052972   K529788C2953CH0859597 
1C730807125758EL530399233966989    201906411000435010000000ANITA OMPUDAK                      CH0859597 
1C730807125758EL530399235531218    201906411200108760000000ANITA OMPUDAK                      CH0859597 
0C761103125786EL53000139525        2019060000011600201160020812510039  10903128   K529788C2953CH0968871 
1C761103125786EL530399233974972    201906411000507510000000HELEN BINTI MOJIKON                CH0968871 
1C761103125786EL530399237181834    201906411200652510000000HELEN BINTI MOJIKON                CH0968871 
0C840805125014EL53000140833        2019060000003141800314180812510033  20340570   K529788C2953          
1C840805125014EL530399234749558    201906410100181260000000AVEAH BINTI JIRAN                            
1C840805125014EL530399237483746    201906411000132920000000AVEAH BINTI JIRAN                            
0C860717495638EL53000141317        2019060000022354202235420812110057  20334055   K529788C2953          
1C860717495638EL530399235018734    201906411002235420000000LIANAH BINTI SIKANA                          
0C790213125018EL53000141609        2019060000014500101450010812110054  08883456   K529788C2953          
1C790213125018EL530399235177267    201906411001450010000000SCHOLASTICA MICHAEL YUPANG                   
0C860629496219EL53000142719        2019060000005104300510430812110031  20338069   K529788C2953          
1C860629496219EL530399235703390    201906411100306260000000ABDU ZIAD HJ HASSAN                          
1C860629496219EL530399237046842    201906411200204170000000ABDU ZIAD HJ HASSAN                          
0C790823125103EL53000143967        2019060000003062600306260812650013  60035957   K529788C2953          
1C790823125103EL530399236474037    201906410100306260000000MALAI DELHAIZAM BIN MALAI HUSSIN             
0C750306125504EL53000144841        2019060000006525100652510812510035  10648038   K529788C2953CH0896818 
1C750306125504EL530399237051589    201906410100652510000000ALICE TAN @ ALICE HENRY            CH0896818 
0C810723125195EL53000145967        2019060000002645900264590812110055  08887556   K529788C2953          
1C810723125195EL530399237772019    201906410500264590000000JACKSON BIN GINUIN                           
0C910202125278EL53000145981        2019060000003383400338340812110215  20570708   K529788C2953          
1C910202125278EL530399237778685    201906410100096670000000VIVIAN BINTI EDWIN                           
1C910202125278EL530399238248228    201906411200241670000000VIVIAN BINTI EDWIN                           
0C810826125083EL53000146006        2019060000009062600906260812110071  60042775   K529788C2953          
1C810826125083EL530399237788082    201906411100906260000000FAIDZAL BIN MANAP                            
0C731016125609EL53000146199        2019060000003504200350420812110060  10899557   K529788C2953CH0835546 
1C731016125609EL530399237897412    201906411100350420000000OKTABIANUS ANSIKIT                 CH0835546 
0C820302125241EL53000146214        2019060000012041701204170812110142  20189487   K529788C2953          
1C820302125241EL530399237909536    201906411101204170000000SAMSIR BIN YASYO                             
0C840927125442EL53000146298        2019060000007250100725010812110177  20038699   K529788C2953          
1C840927125442EL530399237958541    201906411100725010000000CHUNG SHOUK FUI                              
0C920404125136EL53000146560        2019060000006305600630560812110142  20564816   K529788C2953          
1C920404125136EL530399238110711    201906411100630560000000FARAH NAJWA BINTI ABDUL AZIZ                 
0C820818125189EL53000146707        2019060000006404200640420812910034  20438846   K529788C2953          
1C820818125189EL530399238194573    201906411100640420000000ASHRAF SEMUIL BIN ABDULLAH                   
0C740729125179EL5300085987         2019060000011841701184170812110126  10899698   K529788C2953CH0913169 
1C740729125179EL530399232695582    201906411201184170000000JULIUS BIN MOJIKON                 CH0913169 
0C751018125336EL530008765          2019060000019454301945430812110004  10919645   K529788C2953CH0884290 
1C751018125336EL530399236696329    201906411500193340000000ROZITA BINTI FRANCIS               CH0884290 
1C751018125336EL530399237439791    201906411600567920000000ROZITA BINTI FRANCIS               CH0884290 
1C751018125336EL530399231558056    201906411201184170000000ROZITA BINTI FRANCIS               CH0884290 
0C610108125541EL530012161          2019060000006993600699360812310211  04677985   K529788C2953CH0473166 
1C610108125541EL530012161          201906411000699360000000STEPHEN BIN LAMANTIS               CH0473166 
0C660927125399EL530012703          2019060000010864001086400812110210  05211958   K529788C2953CH0664533 
1C660927125399EL530012703          201906410100443280000000DUALI BIN SALAGAN                  CH0664533 
1C660927125399EL530399233203521    201906411400416300000000DUALI BIN SALAGAN                  CH0664533 
1C660927125399EL530399236719466    201906411500226820000000DUALI BIN SALAGAN                  CH0664533 
0C700707125673EL530012801          2019060000011358401135840812110130  10913622   K529788C2953CH0898023 
1C700707125673EL530399234109964    201906411401135840000000JAHRIN @ JAHIRIN BIN MADAN @ MIDIN CH0898023 
0C690301125175EL530013482          2019060000021713002171300812110095  52635084   K529788C2953CH0790503 
1C690301125175EL530399222837150    201906411000429380000000WYLFREDY @ KUILIK BIN AHTAL        CH0790503 
1C690301125175EL530399236307218    201906411600652510000000WYLFREDY @ KUILIK BIN AHTAL        CH0790503 
1C690301125175EL530399237203658    201906411701089410000000WYLFREDY @ KUILIK BIN AHTAL        CH0790503 
0C841103125700EL5300139635         2019060000002416700241670812110114  20268583   K529788C2953          
1C841103125700EL530399234037216    201906411000241670000000SUZAHAINI BINTI JUANIS                       
0C820613125150EL5300139639         2019060000008095900809590812510033  15144777   K529788C2953          
1C820613125150EL530399236877393    201906411200809590000000MURINA BINTI BARIS @ BORIS                   
0C860627125246EL5300139645         2019060000007370900737090812110019  20575492   K529788C2953          
1C860627125246EL530399238143346    201906411200737090000000AINAH BINTI JOHARI                           
0C860701125392EL5300139649         2019060000004833400483340812110019  20575494   K529788C2953          
1C860701125392EL530399234041963    201906411000483340000000SALZIAH BINTI LAKUNSIM                       
0C600820125853EL530014112          2019060000018437601843760812110102  60051808   K529788C2953CH0419524 
1C600820125853EL530399229189842    201906411001843760000000AMPAKU BIN MANTIS                  CH0419524 
0C670107125405EL530014162          2019060000028241002824100812110064  05083928   K529788C2953CH0664598 
1C670107125405EL530399230602305    201906411200773340000000NETTY BIN ENDAP @ INDAB            CH0664598 
1C670107125405EL530399236819395    201906411500467510000000NETTY BIN ENDAP @ INDAB            CH0664598 
1C670107125405EL530399222910508    201906411101583250000000NETTY BIN ENDAP @ INDAB            CH0664598 
0C640701125283EL530014203          2019060000012190501219050812660008  04733515   K529788C2953CH0624322 
1C640701125283EL530399224825347    201906411000604170000000TIK HING BIN INKIAS @ PHILIP       CH0624322 
1C640701125283EL530399233588487    201906411400165710000000TIK HING BIN INKIAS @ PHILIP       CH0624322 
1C640701125283EL530399237016227    201906411600449170000000TIK HING BIN INKIAS @ PHILIP       CH0624322 
0C740317125455EL530014263          2019060000006337600633760812660008  09079732   K529788C2953CH0857005 
1C740317125455EL530399224297002    201906410100150420000000JUSTINE DUBIS                      CH0857005 
1C740317125455EL530399234183019    201906411500483340000000JUSTINE DUBIS                      CH0857005 
0C670809125055EL530014355          2019060000018749001874900812110026  10913119   K529788C2953CH0692605 
1C670809125055EL530014355          201906411000303460000000ROMANUS JOANNES                    CH0692605 
1C670809125055EL530399229386973    201906411200604170000000ROMANUS JOANNES                    CH0692605 
1C670809125055EL530399234061363    201906411400550970000000ROMANUS JOANNES                    CH0692605 
1C670809125055EL530399235187371    201906411500416300000000ROMANUS JOANNES                    CH0692605 
0C700814125599EL530014610          2019060000007733500773350812110027  05218037   K529788C2953CH0736187 
1C700814125599EL530399230729718    201906411100483340000000AZLIE BIN ABBAS                    CH0736187 
1C700814125599EL530399236346826    201906411200290010000000AZLIE BIN ABBAS                    CH0736187 
0C620514125220EL530015153          2019060000025962402596240812110237  04975173   K529788C2953CH0694021 
1C620514125220EL530399227326129    201906411200193200000000ASNAH @ MONALISA BT SANGKAR @ MOHAMCH0694021 
1C620514125220EL530399236682585    201906411400567510000000ASNAH @ MONALISA BT SANGKAR @ MOHAMCH0694021 
1C620514125220EL530399222475725    201906411001835530000000ASNAH @ MONALISA BT SANGKAR @ MOHAMCH0694021 
0C630127125537EL530015328          2019060000023034802303480812110113  05211149   K529788C2953CH0780230 
1C630127125537EL530399228753039    201906411002303480000000JOANNES BIN F ASANG                CH0780230 
0C620615125246EL530018384          2019060000014853401485340812110027  10640035   K529788C2953CH0414373 
1C620615125246EL530399232041844    201906411400441390000000JULINAH BINTI LAMINIT              CH0414373 
1C620615125246EL530399223364384    201906411101043950000000JULINAH BINTI LAMINIT              CH0414373 
0C640127125560EL530018797          2019060000004057000405700812110196  60052016   K529788C2953CH0618190 
1C640127125560EL530399233398329    201906411000405700000000RAHIMA BINTI USMAN                 CH0618190 
0C740324125242EL530019003          2019060000008579200857920812510018  10703130   K529788C2953CH0861533 
1C740324125242EL530399232463388    201906411200857920000000ROSMI BINTI TAWID                  CH0861533 
0C690424125327EL530019043          2019060000024835602483560812110229  05210620   K529788C2953CH0719413 
1C690424125327EL530399222875546    201906411100429380000000KHABRIN @ ABDUL KARIM BIN S IDRIS  CH0719413 
1C690424125327EL530399235498478    201906411500652510000000KHABRIN @ ABDUL KARIM BIN S IDRIS  CH0719413 
1C690424125327EL530399232221090    201906411201401670000000KHABRIN @ ABDUL KARIM BIN S IDRIS  CH0719413 
0C720630125429EL530019231          2019060000003504300350430812110180  10626083   K529788C2953CH0816000 
1C720630125429EL530399235016108    201906411000181260000000CHARLES PODTUNG @ CHARLES RAYMOND TCH0816000 
1C720630125429EL530399237227708    201906411200169170000000CHARLES PODTUNG @ CHARLES RAYMOND TCH0816000 
0C690328125175EL530019247          2019060000008591900859190812110215  05215140   K529788C2953CH0740922 
1C690328125175EL530399224021055    201906410100279170000000JOHARI AG DAMIT                    CH0740922 
1C690328125175EL530399227484561    201906411200290010000000JOHARI AG DAMIT                    CH0740922 
1C690328125175EL530399236612160    201906411400290010000000JOHARI AG DAMIT                    CH0740922 
0C730702125604EL530019262          2019060000008458500845850812110180  10654853   K529788C2953CH0854593 
1C730702125604EL530399227435758    201906411100652510000000AISAH @ SITI AISAH BT SUPIN @ ABD ACH0854593 
1C730702125604EL530399236611655    201906411200193340000000AISAH @ SITI AISAH BT SUPIN @ ABD ACH0854593 
0C701203125244EL530019289          2019060000012083401208340812110201  05214622   K529788C2953CH0772664 
1C701203125244EL530399231255437    201906411201208340000000RAIYAH BINTI AWANG                 CH0772664 
0C670416125038EL530019359          2019060000004350100435010812110180  52637163   K529788C2953CH0665294 
1C670416125038EL530399231981826    201906411000435010000000FLORA SUBIL YUNDAHAL               CH0665294 
0C700812125771EL530019631          2019060000005679300567930812110070  52632628   K529788C2953CH0745241 
1C700812125771EL530399229531261    201906411100362510000000RAYMOND BIN RICHARD                CH0745241 
1C700812125771EL530399236640856    201906411200205420000000RAYMOND BIN RICHARD                CH0745241 
0C720521125657EL530019759          2019060000012678101267810812110172  52610251   K529788C2953CH0863326 
1C720521125657EL530399231838447    201906411200169170000000DAUD BIN SAIDIN                    CH0863326 
1C720521125657EL530399222693468    201906411101098640000000DAUD BIN SAIDIN                    CH0863326 
0C670116125116EL530020089          2019060000010899801089980812110187  04943478   K529788C2953CH0685822 
1C670116125116EL530399231616256    201906411200453340000000AGNES BINTI KIMLIN                 CH0685822 
1C670116125116EL530399233693470    201906411400169130000000AGNES BINTI KIMLIN                 CH0685822 
1C670116125116EL530399236527385    201906411600467510000000AGNES BINTI KIMLIN                 CH0685822 
0C740101125421EL530020107          2019060000015921901592190812110054  10631315   K529788C2953CH0870616 
1C740101125421EL530399220751953    201906411000408010000000ANGONG BIN LOHOH                   CH0870616 
1C740101125421EL530399236250129    201906411600725010000000ANGONG BIN LOHOH                   CH0870616 
1C740101125421EL530399237386948    201906411700459170000000ANGONG BIN LOHOH                   CH0870616 
0C670105125129EL530020228          2019060000011395001139500812510035  05217294   K529788C2953CH0796910 
1C670105125129EL530399232437726    201906411201139500000000BASRAN BIN ETIN                    CH0796910 
0C690529125454EL530020270          2019060000020561302056130812110030  10626281   K529788C2953CH0732998 
1C690529125454EL530399228707973    201906411200362510000000AIMAH BINTI YAHYA                  CH0732998 
1C690529125454EL530399224084713    201906411001693620000000AIMAH BINTI YAHYA                  CH0732998 
0C680627125125EL530020286          2019060000013895901389590812110168  52637445   K529788C2953CH0702654 
1C680627125125EL530399234845043    201906411500169170000000LUCUS BIN MALIBIN                  CH0702654 
1C680627125125EL530399231837639    201906411401220420000000LUCUS BIN MALIBIN                  CH0702654 
0C691023125152EL530020336          2019060000006504700650470812110058  05217732   K529788C2953CH0733080 
1C691023125152EL530399228065955    201906411000650470000000VERUS BINTI LONTOU                 CH0733080 
0C670124125255EL530020395          2019060000013766501376650812110143  52606184   K529788C2953CH0663500 
1C670124125255EL530399231346878    201906411400340300000000UNUS BIN JIKO                      CH0663500 
1C670124125255EL530399224055815    201906411101036350000000UNUS BIN JIKO                      CH0663500 
0C670810125634EL530020459          2019060000014908801490880812110169  10634616   K529788C2953CH0709529 
1C670810125634EL530399224324179    201906411100853370000000LAILI BINTI SANGGAU                CH0709529 
1C670810125634EL530399237195069    201906411600637510000000LAILI BINTI SANGGAU                CH0709529 
0C671203125047EL530020471          2019060000004833400483340812110019  10628857   K529788C2953CH0690491 
1C671203125047EL530399233236055    201906411000483340000000JAIMES BIN ANGUN                   CH0690491 
0C641015125675EL530020894          2019060000004083400408340812110115  60046851   K529788C2953CH0764980 
1C641015125675EL530399237017439    201906411000408340000000NURDIN BIN ZAINUDDIN               CH0764980 
0C670609016399EL530020916          2019060000004954200495420812110019  05051180   K529788C2953CA0716775 
1C670609016399EL530399232493094    201906411000495420000000MD ZULKIFLI BIN MD ZAINUDDIN       CA0716775 
0C661030125321EL530021041          2019060000005359800535980812110095  60051798   K529788C2953CH0674907 
1C661030125321EL530399238159817    201906411400535980000000JUPININ BIN O T GIGING             CH0674907 
0C670624125497EL530021370          2019060000004724900472490812110027  60051948   K529788C2953CH0671211 
1C670624125497EL530399235914467    201906411000203310000000JOSEPH JAMES                       CH0671211 
1C670624125497EL530399236888107    201906411200155840000000JOSEPH JAMES                       CH0671211 
1C670624125497EL530399237516987    201906411400113340000000JOSEPH JAMES                       CH0671211 
0C730822125318EL530021525          2019060000013658501365850812110180  05083092   K529788C2953CH0854602 
1C730822125318EL530021525          201906411000435420000000FIDELIA BT LANGANG                 CH0854602 
1C730822125318EL530399231950605    201906411400543760000000FIDELIA BT LANGANG                 CH0854602 
1C730822125318EL530399234845245    201906411500386670000000FIDELIA BT LANGANG                 CH0854602 
0C701130125576EL530021828          2019060000020993302099330812110019  10649150   K529788C2953CH0742074 
1C701130125576EL530399230897749    201906411200398760000000HARRYANI BINTI BRAHIM              CH0742074 
1C701130125576EL530399234618711    201906411400169170000000HARRYANI BINTI BRAHIM              CH0742074 
1C701130125576EL530399224441286    201906411001531400000000HARRYANI BINTI BRAHIM              CH0742074 
0C650914125163EL530022027          2019060000003966700396670812510039  10640415   K529788C2953CH0628695 
1C650914125163EL530399227577723    201906411000396670000000MANSUET BIN DULLAH                 CH0628695 
0C650920125485EL530022102          2019060000017348301734830812110032  04971727   K529788C2953CH0636085 
1C650920125485EL530399229128713    201906411200442320000000JOANNES AKIM @ E ALBAN AKIM        CH0636085 
1C650920125485EL530399236270943    201906411401292510000000JOANNES AKIM @ E ALBAN AKIM        CH0636085 
0C671109125681EL530022449          2019060000020371102037110812110005  05213822   K529788C2953CH0692495 
1C671109125681EL530399222468247    201906411000587330000000THADIUS BIN GUGAU                  CH0692495 
1C671109125681EL530399236031776    201906411700260190000000THADIUS BIN GUGAU                  CH0692495 
1C671109125681EL530399234794321    201906411501189590000000THADIUS BIN GUGAU                  CH0692495 
0C610613125219EL530022823          2019060000007691800652810812510033  04714390  ZK529788C2953CH0672904 
1C610613125219EL530399223579505    201906411000547920000000JOHN BIN BANTAK                    CH0672904 
1C610613125219EL530399232221292    201906411400221260000000JOHN BIN BANTAK                    CH0672904 
0C651126125343EL530022969          2019060000010633401063340812110059  10937886   K529788C2953CH0673164 
1C651126125343EL530399228440417    201906411001063340000000CHALES BIN ETIN                    CH0673164 
0C730202125739EL530023633          2019060000011863601186360812110198  52621431   K529788C2953CH0935601 
1C730202125739EL530399222542918    201906411000195510000000SAPPARI BIN SAIDAL                 CH0935601 
1C730202125739EL530399237402510    201906411400918340000000SAPPARI BIN SAIDAL                 CH0935601 
1C730202125739EL530399238259746    201906411500072510000000SAPPARI BIN SAIDAL                 CH0935601 
0C650114125157EL530023690          2019060000024982202498220812110228  60046814   K529788C2953CH0638377 
1C650114125157EL530399230342829    201906411200949170000000ESMAEL @ ISMAIL BIN HOSEN          CH0638377 
1C650114125157EL530399221948588    201906411101549050000000ESMAEL @ ISMAIL BIN HOSEN          CH0638377 
0C660623125445EL530024055          2019060000005964200596420812660008  52640167   K529788C2953CH0650073 
1C660623125445EL530399228798812    201906411000447280000000JONIGO BIN AMIT @ JENIGO AHMAD     CH0650073 
1C660623125445EL530399233145624    201906411200149140000000JONIGO BIN AMIT @ JENIGO AHMAD     CH0650073 
0C700516125750EL530024891          2019060000006110900611090812510033  60051859   K529788C2953CH0819594 
1C700516125750EL530024891          201906411000369420000000VIAH @ SELVIAH BINTI MEKILIN       CH0819594 
1C700516125750EL530399236675414    201906411500241670000000VIAH @ SELVIAH BINTI MEKILIN       CH0819594 
0C721119125696EL530024896          2019060000013959401395940812110002  60052211   K529788C2953CH0828677 
1C721119125696EL530399229960586    201906411200048340000000AZRAH BINTI MOHD ZAKARIA           CH0828677 
1C721119125696EL530399233716005    201906411400302090000000AZRAH BINTI MOHD ZAKARIA           CH0828677 
1C721119125696EL530399222179368    201906411101045510000000AZRAH BINTI MOHD ZAKARIA           CH0828677 
0C751229125053EL530025018          2019060000001329200132920812110233  10917094   K529788C2953          
1C751229125053EL530399229506609    201906411000132920000000GANY BIN LARTODE                             
0C720706125645EL530025586          2019060000015357501535750812510039  52633584   K529788C2953CH0860642 
1C720706125645EL530399224380460    201906411000883240000000CHRISTOPHER B PAUL                 CH0860642 
1C720706125645EL530399231562096    201906411400350420000000CHRISTOPHER B PAUL                 CH0860642 
1C720706125645EL530399233381151    201906411500302090000000CHRISTOPHER B PAUL                 CH0860642 
0C730620125109EL530026246          2019060000016533601653360812110060  10633600   K529788C2953CH0824987 
1C730620125109EL530399222734389    201906411100807510000000FLORENTIUS ALEX                    CH0824987 
1C730620125109EL530399234358427    201906411500145010000000FLORENTIUS ALEX                    CH0824987 
1C730620125109EL530399237383413    201906411600700840000000FLORENTIUS ALEX                    CH0824987 
0C620909125364EL530026259          2019060000017659701765970812110233  04966933   K529788C2953CH0603239 
1C620909125364EL530399223353270    201906411100416300000000SAIBAH BINTI SABIN                 CH0603239 
1C620909125364EL530399235071577    201906411500196670000000SAIBAH BINTI SABIN                 CH0603239 
1C620909125364EL530399231703859    201906411401153000000000SAIBAH BINTI SABIN                 CH0603239 
0C650724125381EL530026335          2019060000005634000563400812110156  52582930   K529788C2953CH0649362 
1C650724125381EL530399236932765    201906411400563400000000SUHAIBI BIN SAIMIN                 CH0649362 
0C740405125076EL530026573          2019060000009621100962110812110132  10910230   K529788C2953CH0868543 
1C740405125076EL530399224299426    201906411000261260000000AZIZAH BINTI SALLEH @ ANAPIL       CH0868543 
1C740405125076EL530399231496422    201906411400580010000000AZIZAH BINTI SALLEH @ ANAPIL       CH0868543 
1C740405125076EL530399234079450    201906411500120840000000AZIZAH BINTI SALLEH @ ANAPIL       CH0868543 
0C620215125618EL530026621          2019060000005512000551200812110199  05029152   K529788C2953CH0401113 
1C620215125618EL530399235047531    201906411100551200000000JAWITA @ JUITAH BINTI DAIGO        CH0401113 
0C610919125377EL530026667          2019060000031204303120430812110143  05211404   K529788C2953CH0602602 
1C610919125377EL530399235173025    201906411200252230000000WILFRED DAUSIP                     CH0602602 
1C610919125377EL530399224989540    201906411102868200000000WILFRED DAUSIP                     CH0602602 
0C690611125509EL530026902          2019060000006404200640420812110236  52638237   K529788C2953CH0714709 
1C690611125509EL530399235842426    201906411400640420000000ABDUL KAMAL BIN KARMIN             CH0714709 
0C610609125187EL530027234          2019060000003285200328520812110005  04757415   K529788C2953CH0607201 
1C610609125187EL530399232041036    201906411200245840000000PRIMUS BIN JUDI @ UDEH             CH0607201 
1C610609125187EL530399233508261    201906411400082680000000PRIMUS BIN JUDI @ UDEH             CH0607201 
0C621006125106EL530027245          2019060000027785302778530812510035  05128137   K529788C2953CH0635560 
1C621006125106EL530399231457622    201906411202778530000000RODIAH BINTI SAIDI                 CH0635560 
0C750924125042EL530027444          2019060000018775301877530812110150  10915684   K529788C2953          
1C750924125042EL530399223906877    201906410100657090000000SUZIANAH @ JOVIETA BINTI ENSIL @ IN          
1C750924125042EL530399231927262    201906411400447090000000SUZIANAH @ JOVIETA BINTI ENSIL @ IN          
1C750924125042EL530399232784094    201906411500132920000000SUZIANAH @ JOVIETA BINTI ENSIL @ IN          
1C750924125042EL530399234894957    201906411600386670000000SUZIANAH @ JOVIETA BINTI ENSIL @ IN          
1C750924125042EL530399235316707    201906411700253760000000SUZIANAH @ JOVIETA BINTI ENSIL @ IN          
0C630516125696EL530027537          2019060000005247800524780812110001  05052618   K529788C2953CH0620910 
1C630516125696EL530399224500395    201906411000260190000000MAIMUNA BINTI EMIK                 CH0620910 
1C630516125696EL530399231456309    201906411400264590000000MAIMUNA BINTI EMIK                 CH0620910 
0C700317125715EL530027569          2019060000002698400269840812110030  52637759   K529788C2953CH0784646 
1C700317125715EL530399221063969    201906411000269840000000KHAIRUL AKHMAL ABDULLAH            CH0784646 
0C720110125361EL530027575          2019060000013533401353340812110128  10627701   K529788C2953CH0821047 
1C720110125361EL530027575          201906411000966670000000WONG LOI FAH @ WONG LAI FAH        CH0821047 
1C720110125361EL530399232953442    201906411200386670000000WONG LOI FAH @ WONG LAI FAH        CH0821047 
0C660325125500EL530027983          2019060000009183400918340812110080  05086814   K529788C2953CH0649062 
1C660325125500EL530399227783847    201906411000918340000000FLORENCE JEROME YAPAS              CH0649062 
0C700915125037EL530028106          2019060000017366801736680812110094  10634921   K529788C2953CH0750565 
1C700915125037EL530399231204715    201906411200265840000000SALIM @ TINUS BIN LINGGI           CH0750565 
1C700915125037EL530399224095221    201906410101470840000000SALIM @ TINUS BIN LINGGI           CH0750565 
0C680825125679EL530028240          2019060000011276801127680812110136  52638401   K529788C2953CH0730788 
1C680825125679EL530399234012257    201906411400331420000000AJIRIN BIN ABD RAHIM               CH0730788 
1C680825125679EL530399237663905    201906411500796260000000AJIRIN BIN ABD RAHIM               CH0730788 
0C690425125847EL530028271          2019060000007975100797510812110133  10631752   K529788C2953CH0733232 
1C690425125847EL530399230036570    201906411000797510000000DUMANDAN BIN TINGGI                CH0733232 
0C620110126235EL530028272          2019060000016271501627150812110232  60051962   K529788C2953CH0414093 
1C620110126235EL530399235435632    201906411200606310000000DIN WIDDIE BIN POIN                CH0414093 
1C620110126235EL530399230468424    201906411001020840000000DIN WIDDIE BIN POIN                CH0414093 
0C610809125528EL530028429          2019060000018950101895010812110103  05083753   K529788C2953CH0476007 
1C610809125528EL530399230228146    201906411200449170000000LAIDAH BTE SUFI                    CH0476007 
1C610809125528EL530399220853906    201906411001445840000000LAIDAH BTE SUFI                    CH0476007 
0C641015126627EL530028430          2019060000025925102592510812650013  04904421   K529788C2953CH0690000 
1C641015126627EL530399230285740    201906411002592510000000SHAHROL B ABDULLAH @ UKIT BIN TIMBACH0690000 
0C651013125726EL530028709          2019060000022837202283720812110070  10911824   K529788C2953CH0640557 
1C651013125726EL530399227455057    201906411200495420000000JULIANA BINTI SAIMON               CH0640557 
1C651013125726EL530028709          201906411101788300000000JULIANA BINTI SAIMON               CH0640557 
0C700301125323EL530028888          2019060000001087600108760812110083  10519874   K529788C2953CH0786466 
1C700301125323EL530399232191788    201906411000108760000000JUMAN BIN LANTAYAN                 CH0786466 
0C691003125403EL530029025          2019060000011240501124050812110010  10632370   K529788C2953CH0737282 
1C691003125403EL530399224658932    201906411000241950000000UBING BIN YOWON                    CH0737282 
1C691003125403EL530399231082453    201906411400483340000000UBING BIN YOWON                    CH0737282 
1C691003125403EL530399236761906    201906411500398760000000UBING BIN YOWON                    CH0737282 
0C730711125606EL530029055          2019060000006583900658390812110027  10634871   K529788C2953CH0888172 
1C730711125606EL530399224198685    201906411100187130000000ROZAINEN BINTI BIJUN @ RITHAUDDIN  CH0888172 
1C730711125606EL530399235372479    201906411500471260000000ROZAINEN BINTI BIJUN @ RITHAUDDIN  CH0888172 
0C630510125767EL530029142          2019060000031640003164000812110005  52582245   K529788C2953CH0438205 
1C630510125767EL530399237790409    201906411700688990000000GORDIAN PIUS                       CH0438205 
1C630510125767EL530399222619508    201906411002475010000000GORDIAN PIUS                       CH0438205 
0C711107125120EL530029178          2019060000018301301830130812110162  52632446   K529788C2953CH0784558 
1C711107125120EL530399236892248    201906411200108760000000ASLINAH BINTI MD YUSOF WATTY       CH0784558 
1C711107125120EL530399221749538    201906411001721370000000ASLINAH BINTI MD YUSOF WATTY       CH0784558 
0C630815125696EL530029254          2019060000001783400178340812510035  04770434   K529788C2953CH0603783 
1C630815125696EL530399228828720    201906411100178340000000ALIMAH BINTI JUNAH                 CH0603783 
0C631211125382EL530029317          2019060000010325101032510812110236  04961983   K529788C2953CH0617131 
1C631211125382EL530399223982356    201906411100809590000000ROSSILEN @ ROSSLIEN BINTI RUSANI   CH0617131 
1C631211125382EL530399229491653    201906411200222920000000ROSSILEN @ ROSSLIEN BINTI RUSANI   CH0617131 
0C741128125477EL530029342          2019060000005199700519970812110204  10638377   K529788C2953CH0895469 
1C741128125477EL530999260367975    201906410100459550000000LAURIAN BIN KAUNSIR                CH0895469 
1C741128125477EL530399235023380    201906411100060420000000LAURIAN BIN KAUNSIR                CH0895469 
0C650708125373EL530029353          2019060000026686502668650812110135  05210877   K529788C2953CH0696838 
1C650708125373EL530399232088324    201906411400850010000000DUIL @ ALAXENDER BIN GOMBOT        CH0696838 
1C650708125373EL530399221623640    201906411001818640000000DUIL @ ALAXENDER BIN GOMBOT        CH0696838 
0C720127125499EL530029466          2019060000012642401264240812110155  10638179   K529788C2953CH0806507 
1C720127125499EL530399222783802    201906411000623820000000ABDUL SAHIDI BIN DULASIN           CH0806507 
1C720127125499EL530399235739362    201906411200640420000000ABDUL SAHIDI BIN DULASIN           CH0806507 
0C670924125122EL530029468          2019060000005314200531420812110153  05014543   K529788C2953CH0721248 
1C670924125122EL530399221362043    201906411000265580000000MOITAH BTE INGGIT                  CH0721248 
1C670924125122EL530399233585558    201906411200265840000000MOITAH BTE INGGIT                  CH0721248 
0C721208125532EL530029520          2019060000002416700241670812110057  10628675   K529788C2953CH0831025 
1C721208125532EL530399233824624    201906411000241670000000JANIAH BINTI SIBIN                 CH0831025 
0C700930125318EL530029535          2019060000019849801984980812110192  52633048   K529788C2953CH0736326 
1C700930125318EL530399229010592    201906411200229590000000EASTER BINTI GUSOP                 CH0736326 
1C700930125318EL530399222919501    201906411001755390000000EASTER BINTI GUSOP                 CH0736326 
0C710416125568EL530029700          2019060000019665601966560812110159  52638799   K529788C2953CH0801496 
1C710416125568EL530029700          201906411000238630000000HARIN BINTI GEORGE @ SITAYUN       CH0801496 
1C710416125568EL530399238060086    201906411400519590000000HARIN BINTI GEORGE @ SITAYUN       CH0801496 
1C710416125568EL530399234761682    201906411201208340000000HARIN BINTI GEORGE @ SITAYUN       CH0801496 
0C770319125616EL530029837          2019060000006162600616260812110187  10642346   K529788C2953CH0960939 
1C770319125616EL530399236519608    201906411400616260000000YANTI BINTI LAJIM                  CH0960939 
0C720227125533EL530029877          2019060000008302000830200812110095  10636801   K529788C2953CH0821414 
1C720227125533EL530399224373184    201906411000636860000000ALEXANDER BIN MUSIN                CH0821414 
1C720227125533EL530399231171571    201906411200193340000000ALEXANDER BIN MUSIN                CH0821414 
0C690531125234EL530029985          2019060000005780700578070812110029  05214721   K529788C2953CH0715054 
1C690531125234EL530399224504237    201906411000155150000000ANGELA BINTI DAVID                 CH0715054 
1C690531125234EL530399229377071    201906411200422920000000ANGELA BINTI DAVID                 CH0715054 
0C720731125145EL530030123          2019060000010029201002920812110060  10645398   K529788C2953CH0817993 
1C720731125145EL530399226536991    201906411101002920000000GILBERT ONDOI                      CH0817993 
0C730914125198EL530030267          2019060000010340301034030812110219  10639573   K529788C2953CH0856982 
1C730914125198EL530399221888267    201906411000574860000000JUANITA BINTI RIBUS                CH0856982 
1C730914125198EL530399232654459    201906411400459170000000JUANITA BINTI RIBUS                CH0856982 
0C620907125424EL530030399          2019060000017553001755300812110005  04757506   K529788C2953CH0623664 
1C620907125424EL530399233678316    201906411400081670000000RUBINAH BINTI HASHIM               CH0623664 
1C620907125424EL530399229772852    201906411001673630000000RUBINAH BINTI HASHIM               CH0623664 
0C621002125619EL530030753          2019060000026256202625620812110219  52640829   K529788C2953CH0605950 
1C621002125619EL530399230224611    201906411200370420000000ZAZALI @ SAZALI BIN ASRI @ ASRIE   CH0605950 
1C621002125619EL530399222543928    201906411002255200000000ZAZALI @ SAZALI BIN ASRI @ ASRIE   CH0605950 
0C650311125797EL530031063          2019060000023293002329300812110001  04941126   K529788C2953CH0622876 
1C650311125797EL530399232282930    201906411200311670000000PAULUS BIN SAUT                    CH0622876 
1C650311125797EL530399237658750    201906411400207920000000PAULUS BIN SAUT                    CH0622876 
1C650311125797EL530399221982439    201906411001809710000000PAULUS BIN SAUT                    CH0622876 
0C661101125012EL530031144          2019060000006353500635350813610223  10642676   K529788C2953CH0724614 
1C661101125012EL530399234661652    201906411100243980000000MARIA @ MARLIA BINTI SULAKOI @ MOHDCH0724614 
1C661101125012EL530399237342084    201906411200391370000000MARIA @ MARLIA BINTI SULAKOI @ MOHDCH0724614 
0C750610125891EL530031432          2019060000004954200495420812110132  10918977   K529788C2953CH0909371 
1C750610125891EL530399232253426    201906411000495420000000AZIZ AMBOU @ AMBIU                 CH0909371 
0C750319125378EL530031433          2019060000024313002431300812510033  10647113   K529788C2953CH0887466 
1C750319125378EL530399224587089    201906411000328780000000SABARIAH ASHIK                     CH0887466 
1C750319125378EL530399234241825    201906411500108760000000SABARIAH ASHIK                     CH0887466 
1C750319125378EL530399232541190    201906411401993760000000SABARIAH ASHIK                     CH0887466 
0C700402125138EL530031445          2019060000005039000503900812510018  10748234   K529788C2953CH6029614 
1C700402125138EL530399224726024    201906411000149730000000RITA BINTI AJIN                    CH6029614 
1C700402125138EL530399235144632    201906411500354170000000RITA BINTI AJIN                    CH6029614 
0C620805125538EL530031462          2019060000017776201777620813610223  10642601   K529788C2953CH0605263 
1C620805125538EL530399231771759    201906411400585950000000ANGELIE @ AISAH BINTI ULLAP        CH0605263 
1C620805125538EL530399222115512    201906411101191670000000ANGELIE @ AISAH BINTI ULLAP        CH0605263 
0C700803125630EL530031597          2019060000013261001326100812110191  52638930   K529788C2953CH0745259 
1C700803125630EL530399223614665    201906411100915260000000SAKURAH BINTI JAPERI               CH0745259 
1C700803125630EL530399228499324    201906411200169170000000SAKURAH BINTI JAPERI               CH0745259 
1C700803125630EL530399236376229    201906411400241670000000SAKURAH BINTI JAPERI               CH0745259 
0C650617125589EL530031598          2019060000021416702141670812110187  04974598   K529788C2953CH0650188 
1C650617125589EL530399221966978    201906411102141670000000YACOB BIN MUSA                     CH0650188 
0C710722125216EL530031613          2019060000004833400483340812510033  05217302   K529788C2953CH0765578 
1C710722125216EL530399231977681    201906411400483340000000ALIMAH BINTI MANAB                 CH0765578 
0C691228125543EL530031706          2019060000006887600688760812110060  52638732   K529788C2953CH0821593 
1C691228125543EL530399235691771    201906411100688760000000RUSLIN @ ROSLAN BIN LADI           CH0821593 
0C700421125731EL530031711          2019060000016916701691670812660008  52548527   K529788C2953CH0755239 
1C700421125731EL530399231148232    201906411401691670000000JANIL BIN AMPASOK                  CH0755239 
0C740326125481EL530031724          2019060000002779300277930812510039  10646750   K529788C2953CH0896177 
1C740326125481EL530399230034449    201906411000181260000000MARIUS BIN MANING                  CH0896177 
1C740326125481EL530399234959524    201906411200096670000000MARIUS BIN MANING                  CH0896177 
0C650628125381EL530031734          2019060000005577800557780812110022  05215504   K529788C2953CH0641783 
1C650628125381EL530399234124819    201906411000368760000000LEE KIM SANG                       CH0641783 
1C650628125381EL530399237738774    201906411200189020000000LEE KIM SANG                       CH0641783 
0C660510126337EL530031763          2019060000018137101813710812110027  10909943   K529788C2953CH0744065 
1C660510126337EL530399236915789    201906411600626200000000MOHD NAZRI BIN ABDULLAH            CH0744065 
1C660510126337EL530399223575562    201906411101187510000000MOHD NAZRI BIN ABDULLAH            CH0744065 
0C610925125509EL530031927          2019060000002449600244960812110152  10648699   K529788C2953CH0621648 
1C610925125509EL530399231592614    201906411000244960000000HAJIN @ ALI BIN KINGON @ YINGON    CH0621648 
0C661122125185EL530031999          2019060000026994402699440812110239  52635332   K529788C2953CH0659623 
1C661122125185EL530399223465024    201906410100690900000000NG MIN HOO @ MIKE EPING            CH0659623 
1C661122125185EL530399234416930    201906411500230420000000NG MIN HOO @ MIKE EPING            CH0659623 
1C661122125185EL530399231808236    201906411401778120000000NG MIN HOO @ MIKE EPING            CH0659623 
0C671115125135EL530032407          2019060000022961002296100812110210  60052190   K529788C2953CH0767900 
1C671115125135EL530399231513293    201906411400338340000000SOIPIN @ SAIFULLAH BIN DUARI       CH0767900 
1C671115125135EL530399222507552    201906411001957760000000SOIPIN @ SAIFULLAH BIN DUARI       CH0767900 
0C620609125290EL530032496          2019060000003563000356300812510038  04654919   K529788C2953CH0608023 
1C620609125290EL530399233879689    201906411200356300000000MENJALA AWOL                       CH0608023 
0C630202125917EL530032526          2019060000010669501066950812510039  60052120   K529788C2953CH0604352 
1C630202125917EL530399223344984    201906411000237920000000MARCUS BIN MADUSIN                 CH0604352 
1C630202125917EL530399231834912    201906411400829030000000MARCUS BIN MADUSIN                 CH0604352 
0C610611125274EL530032573          2019060000003780400378040813610223  10642734   K529788C2953CH0602153 
1C610611125274EL530399228757887    201906411100378040000000KUMAGIT BINTI SARUDIN              CH0602153 
0C751217125208EL530032700          2019060000000845900084590812110153  10637965   K529788C2953CH0914912 
1C751217125208EL530399232628389    201906411000084590000000LEONG LAN CHING @ JENNY FELICITY   CH0914912 
0C730407125812EL530032706          2019060000017365001736500812110153  05217492   K529788C2953CH0822623 
1C730407125812EL530399224747545    201906411000117320000000JUINAH @ INAH BINTI UNGGI          CH0822623 
1C730407125812EL530399237335519    201906411500592090000000JUINAH @ INAH BINTI UNGGI          CH0822623 
1C730407125812EL530399236786962    201906411401027090000000JUINAH @ INAH BINTI UNGGI          CH0822623 
0C600130125135EL530032730          2019060000015787001578700812110159  05055827   K529788C2953CH0455203 
1C600130125135EL530399223046712    201906411001578700000000BILIH BIN EBIN                     CH0455203 
0C740314125302EL530032731          2019060000011950101195010812110028  10636785   K529788C2953CH0856847 
1C740314125302EL530399224373588    201906411100530420000000SITI FARIDAH @ ANGELIA BT LAWADIN  CH0856847 
1C740314125302EL530399234068437    201906411200664590000000SITI FARIDAH @ ANGELIA BT LAWADIN  CH0856847 
0C660810125985EL530032798          2019060000023039402303940812110070  05051800   K529788C2953CH0657414 
1C660810125985EL530399231490459    201906411200225400000000ZAINUDDIN @ ZAINUDIN BIN BOTUI @ BOCH0657414 
1C660810125985EL530399238215589    201906411400828530000000ZAINUDDIN @ ZAINUDIN BIN BOTUI @ BOCH0657414 
1C660810125985EL530399224053892    201906411101250010000000ZAINUDDIN @ ZAINUDIN BIN BOTUI @ BOCH0657414 
0C720614125648EL530032924          2019060000003254700325470812110166  10634590   K529788C2953CH0800111 
1C720614125648EL530399223987612    201906410100083800000000SARIMAH BINTI SADI @ SAIMAH        CH0800111 
1C720614125648EL530399228829932    201906411200241670000000SARIMAH BINTI SADI @ SAIMAH        CH0800111 
0C780401125411EL530033096          2019060000001570900157090812110145  10900306   K529788C2953          
1C780401125411EL530399237744333    201906411000157090000000REYNALDO S TIPAY                             
0C701002125141EL530033148          2019060000004470900447090812110213  10635514   K529788C2953CH0772665 
1C701002125141EL530399233547162    201906411200447090000000TRINITAS KILAT BIN DANIEL APING    CH0772665 
0C770117125036EL530033156          2019060000001301000130100812110021  10648558   K529788C2953          
1C770117125036EL530399234091675    201906411200130100000000ROSIE ANGKIR                                 
0C710822125280EL530033322          2019060000007083400708340812110128  10558591   K529788C2953CH0789022 
1C710822125280EL530399228324522    201906411000708340000000NITHA BTE EDWIN                    CH0789022 
0C601214125604EL530033400          2019060000003933400393340812110159  10641207   K529788C2953CH0419276 
1C601214125604EL530399230076885    201906411000393340000000ROSNEH WASILIN                     CH0419276 
0C630831125565EL530033409          2019060000017141801714180812110099  10641413   K529788C2953CH0636964 
1C630831125565EL530399235003677    201906411400510420000000JAHEDI BIN SIAMBANG                CH0636964 
1C630831125565EL530399229041615    201906411001203760000000JAHEDI BIN SIAMBANG                CH0636964 
0C630315125235EL530033707          2019060000010609801060980812110144  04974911   K529788C2953CH0605878 
1C630315125235EL530399231580688    201906411200864310000000WASRIN @ HAIP BIN RUSLAN           CH0605878 
1C630315125235EL530399236349755    201906411400196670000000WASRIN @ HAIP BIN RUSLAN           CH0605878 
0C771124125151EL530033750          2019060000006358600635860812510033  60034137   K529788C2953          
1C771124125151EL530033750          201906411000297510000000NESTOR BIN PIUS @ LAJIMIN                    
1C771124125151EL530399227487288    201906411200084590000000NESTOR BIN PIUS @ LAJIMIN                    
1C771124125151EL530399234892432    201906411400253760000000NESTOR BIN PIUS @ LAJIMIN                    
0C801118125029EL530033843          2019060000009425200942520812660008  10823359   K529788C2953          
1C801118125029EL530399234903950    201906411100604170000000VICTOR JOANNES                               
1C801118125029EL530399235425326    201906411200253760000000VICTOR JOANNES                               
1C801118125029EL530399237603176    201906411400084590000000VICTOR JOANNES                               
0C710325125749EL530033869          2019060000007975100797510812110237  10628808   K529788C2953CH0757953 
1C710325125749EL530399233628806    201906411400120840000000DONIUS BIN SIPAT                   CH0757953 
1C710325125749EL530399236249826    201906411500676670000000DONIUS BIN SIPAT                   CH0757953 
0C791209125482EL530033915          2019060000012729301272930813610223  10901106   K529788C2953          
1C791209125482EL530399223931533    201906411100910420000000SURIANI @ FARRAH BT KALIADU                  
1C791209125482EL530399237765753    201906411300362510000000SURIANI @ FARRAH BT KALIADU                  
0C730629125367EL530033957          2019060000007854300785430812110019  10645554   K529788C2953CH0824903 
1C730629125367EL530399237368861    201906411000483340000000JASPHA BIN ANIK                    CH0824903 
1C730629125367EL530399238225491    201906411600302090000000JASPHA BIN ANIK                    CH0824903 
0C720123125168EL530034055          2019060000005558400555840812510039  10636439   K529788C2953CH0791725 
1C720123125168EL530399229599161    201906411100555840000000JAMIAH BINTI MARDAM                CH0791725 
0C600607125205EL530034115          2019060000002245900224590812510033  10756559   K529788C2953CH0461617 
1C600607125205EL530399227813351    201906411000224590000000YOWON BIN SAIMIE                   CH0461617 
0C760320125374EL530034217          2019060000008854300885430812110219  10641264   K529788C2953CH0914891 
1C760320125374EL530399235811306    201906411500616260000000DIANA JOSEPH                       CH0914891 
1C760320125374EL530399224140384    201906440100269170000000DIANA JOSEPH                       CH0914891 
0C771012125704EL530034218          2019060000003304300330430812510039  60052658   K529788C2953CH0949767 
1C771012125704EL530399224175043    201906411100221670000000EMILDA BINTI JOSPIN @ EMILDA DZULKICH0949767 
1C771012125704EL530399237228617    201906411200108760000000EMILDA BINTI JOSPIN @ EMILDA DZULKICH0949767 
0C591015125330EL530034330          2019060000004545900454590812110144  04816351   K529788C2953CH0403371 
1C591015125330EL530399221529468    201906411000454590000000RUPIAH BINTI GAMBARIU              CH0403371 
0C690321125615EL530034367          2019060000009666700966670812110057  52639995   K529788C2953CH0722427 
1C690321125615EL530399227984921    201906411000966670000000GILBERT BIN JOSUE KATING           CH0722427 
0C720509125013EL530034536          2019060000008096000809600812110062  10632107   K529788C2953CH0828697 
1C720509125013EL530399231409930    201906411200773340000000SABRIN BIN DEWIN                   CH0828697 
1C720509125013EL530399234497762    201906411400036260000000SABRIN BIN DEWIN                   CH0828697 
0C610522125109EL530034625          2019060000016789601678960812110005  04757399   K529788C2953CH0467512 
1C610522125109EL530399230192780    201906411200267230000000ROBERT BIN SIKOK                   CH0467512 
1C610522125109EL530399233551509    201906411400110240000000ROBERT BIN SIKOK                   CH0467512 
1C610522125109EL530399222241713    201906411001301490000000ROBERT BIN SIKOK                   CH0467512 
0C731019125364EL530034788          2019060000025598302559830812110060  10638187   K529788C2953CH0903396 
1C731019125364EL530399235610636    201906411400181260000000SABINI BINTI ANSUMOR               CH0903396 
1C731019125364EL530399237228314    201906411500567920000000SABINI BINTI ANSUMOR               CH0903396 
1C731019125364EL530999260299267    201906410101810650000000SABINI BINTI ANSUMOR               CH0903396 
0C671113125094EL530034792          2019060000007975100797510812110027  52632651   K529788C2953CH0722729 
1C671113125094EL530399227518412    201906411100797510000000STELLA BINTI BIBIS                 CH0722729 
0C620606125033EL530034823          2019060000018025201802520812110140  04974986   K529788C2953CH0419376 
1C620606125033EL530399224105830    201906411000467510000000DUAKIM @ NORDIN BIN LAWANDING      CH0419376 
1C620606125033EL530399229483771    201906411200370420000000DUAKIM @ NORDIN BIN LAWANDING      CH0419376 
1C620606125033EL530399236018844    201906411400964590000000DUAKIM @ NORDIN BIN LAWANDING      CH0419376 
0C630315126086EL530034964          2019060000029149802914980812110131  04965158   K529788C2953CH0441893 
1C630315126086EL530399224644380    201906411000780560000000MARY S SAMMY                       CH0441893 
1C630315126086EL530399234031354    201906411400673760000000MARY S SAMMY                       CH0441893 
1C630315126086EL530399237514664    201906411501460660000000MARY S SAMMY                       CH0441893 
0C670811125310EL530035071          2019060000003527800352780812110161  05054085   K529788C2953CH0702593 
1C670811125310EL530399237032088    201906411000352780000000MASLINAH BINTI KASIN               CH0702593 
0C641201125206EL530035110          2019060000015427701542770812110161  04971495   K529788C2953CH0627676 
1C641201125206EL530399222539985    201906411000214480000000LASINEH @ ZALEHA BINTI BERUTAN     CH0627676 
1C641201125206EL530399229357974    201906411201328290000000LASINEH @ ZALEHA BINTI BERUTAN     CH0627676 
0C670506125306EL530035151          2019060000012242301224230812110219  52632883   K529788C2953CH0674031 
1C670506125306EL530399231546033    201906411200326260000000VIOLETTA BINTI JIMMY               CH0674031 
1C670506125306EL530399234403590    201906411400416300000000VIOLETTA BINTI JIMMY               CH0674031 
1C670506125306EL530399236685215    201906411500481670000000VIOLETTA BINTI JIMMY               CH0674031 
0C700801125397EL530035243          2019060000009666700966670812110132  05214101   K529788C2953CH0752776 
1C700801125397EL530399231413465    201906411200966670000000LAZARUS GOVEN JABLEE               CH0752776 
0C700918125390EL530035257          2019060000019209201920920812110147  10636579   K529788C2953CH0742049 
1C700918125390EL530399231713761    201906411400640420000000HANNIEFAH FOO                      CH0742049 
1C700918125390EL530399223984679    201906410101280500000000HANNIEFAH FOO                      CH0742049 
0C650917125257EL530035385          2019060000002041700204170812110066  05029590   K529788C2953CH0691822 
1C650917125257EL530399230299480    201906411100204170000000PETRUS BIN TANGGAU                 CH0691822 
0C731102125197EL530035445          2019060000008958500895850812510038  10836856   K529788C2953CH0854624 
1C731102125197EL530399224823731    201906411000134590000000BEDE RUKASIM                       CH0854624 
1C731102125197EL530399231539363    201906411400761260000000BEDE RUKASIM                       CH0854624 
0C650730125767EL530035745          2019060000009654700965470812660008  52640142   K529788C2953CH0638270 
1C650730125767EL530399224380965    201906411000588200000000MATNI BIN MASIR                    CH0638270 
1C650730125767EL530399230216931    201906411200377270000000MATNI BIN MASIR                    CH0638270 
0C700302126061EL530036297          2019060000002078000207800812660008  10639722   K529788C2953CH0785601 
1C700302126061EL530399228434858    201906411200084590000000SELIH BIN AJIS                     CH0785601 
1C700302126061EL530399224277194    201906440100123210000000SELIH BIN AJIS                     CH0785601 
0C640810125813EL530036345          2019060000006261000626100812110001  05014915   K529788C2953CH0681325 
1C640810125813EL530399227104847    201906411000626100000000JAULIS BIN MASULIM                 CH0681325 
0C680701125845EL530036580          2019060000009445200944520812110019  52675882   K529788C2953CH0699796 
1C680701125845EL530399238088782    201906411200944520000000THEOBOLD BIN JAMES LAUDI           CH0699796 
0C660503125811EL530036611          2019060000015573801557380812110098  05087929   K529788C2953CH0673096 
1C660503125811EL530036611          201906440100442790000000DANIOL BIN ANTHONY ANDIPAI         CH0673096 
1C660503125811EL530399230988079    201906411201114590000000DANIOL BIN ANTHONY ANDIPAI         CH0673096 
0C710414125337EL530037361          2019060000020767402076740812110215  10512473   K529788C2953CH0756924 
1C710414125337EL530399236275589    201906411400930420000000WILLIAM BURUGU                     CH0756924 
1C710414125337EL530037361          201906410101146320000000WILLIAM BURUGU                     CH0756924 
0C691006125492EL530037452          2019060000008791200879120812110059  10626307   K529788C2953CH0729980 
1C691006125492EL530399228830639    201906411000362510000000CHARLOTTE BINTI ANTHONY ALEX       CH0729980 
1C691006125492EL530399233915661    201906411200516610000000CHARLOTTE BINTI ANTHONY ALEX       CH0729980 
0C710823125151EL530037466          2019060000024220402422040812110024  10634178   K529788C2953CH0776669 
1C710823125151EL530399221188049    201906411000609530000000DANNY BIN SULIMIN                  CH0776669 
1C710823125151EL530399237700580    201906411700749170000000DANNY BIN SULIMIN                  CH0776669 
1C710823125151EL530399232656378    201906411501063340000000DANNY BIN SULIMIN                  CH0776669 
0C680625125631EL530037489          2019060000007379000737900812110060  52636769   K529788C2953CH0733819 
1C680625125631EL530399222195132    201906411100556640000000JOKBUS BIN ATAT                    CH0733819 
1C680625125631EL530399228803862    201906411200060420000000JOKBUS BIN ATAT                    CH0733819 
1C680625125631EL530399233992857    201906411400120840000000JOKBUS BIN ATAT                    CH0733819 
0C720514125421EL530038032          2019060000002416700241670812110068  10628956   K529788C2953CH0827437 
1C720514125421EL530399236665916    201906411100241670000000JOS BIN BISA                       CH0827437 
0C700601125894EL530038158          2019060000011479201147920812510038  60052257   K529788C2953CH0730232 
1C700601125894EL530399230668686    201906411001147920000000PETRONELLA BINTI LAZARUS           CH0730232 
0C731031125690EL530038346          2019060000016400101640010812510033  10557957   K529788C2953CH0861902 
1C731031125690EL530399237253572    201906411400141670000000HASMAH BINTI HASSAN                CH0861902 
1C731031125690EL530399234786237    201906411201498340000000HASMAH BINTI HASSAN                CH0861902 
0C720205125364EL530038479          2019060000014741701474170812110022  10626117   K529788C2953CH0795571 
1C720205125364EL530399236061280    201906411201474170000000JURIAH GABRIEL JAKUIL              CH0795571 
0C721016125511EL530038488          2019060000017552101755210812110214  10633881   K529788C2953CH0857279 
1C721016125511EL530399234206055    201906411400314170000000ABD RAHIM BIN MOHD ALI @ ALI       CH0857279 
1C721016125511EL530399236717547    201906411500205420000000ABD RAHIM BIN MOHD ALI @ ALI       CH0857279 
1C721016125511EL530038488          201906411001235620000000ABD RAHIM BIN MOHD ALI @ ALI       CH0857279 
0C701215125540EL530038542          2019060000010150101015010812110092  05215579   K529788C2953CH0752995 
1C701215125540EL530399235964381    201906411001015010000000HELIZAH BT MAJID @ FLORENCE MAJIT  CH0752995 
0C680316125654EL530039475          2019060000008209600820960812110169  60052155   K529788C2953CH0718087 
1C680316125654EL530399223490585    201906411100446370000000NORSILI BINTI LAJUIN               CH0718087 
1C680316125654EL530399231486419    201906411400374590000000NORSILI BINTI LAJUIN               CH0718087 
0C660909125010EL530039478          2019060000014959101495910812110200  05051784   K529788C2953CH0661650 
1C660909125010EL530399224363080    201906411100795070000000FLORENCE BINTI DOMINIC             CH0661650 
1C660909125010EL530399228284005    201906411200700840000000FLORENCE BINTI DOMINIC             CH0661650 
0C660316125146EL530039648          2019060000033141103314110812110028  04972196   K529788C2953CH0674686 
1C660316125146EL530399237268124    201906411203314110000000ROSBINI MALAJIM                    CH0674686 
0C730615125067EL530039988          2019060000015225201522520812110060  10644474   K529788C2953CH0868852 
1C730615125067EL530399231604738    201906411400543760000000BARANSIM BIN KOLOK                 CH0868852 
1C730615125067EL530399236958330    201906411500978760000000BARANSIM BIN KOLOK                 CH0868852 
0C671101125070EL530039995          2019060000009310800931080812110019  60051865   K529788C2953CH0711876 
1C671101125070EL530039995          201906411000834410000000RAPIAH BINTI LAKUNSIM              CH0711876 
1C671101125070EL530399227240647    201906411200096670000000RAPIAH BINTI LAKUNSIM              CH0711876 
0C670624125278EL530040081          2019060000010150101015010812110145  10632610   K529788C2953CH0720946 
1C670624125278EL530399229310585    201906411001015010000000HAILLIN BINTI MANIAH               CH0720946 
0C740711125592EL530040082          2019060000013896001389600812110153  10631455   K529788C2953CH0888760 
1C740711125592EL530399234908697    201906411200845840000000JOSIE BINTI MANIAH                 CH0888760 
1C740711125592EL530399237579433    201906411400543760000000JOSIE BINTI MANIAH                 CH0888760 
0C641205125553EL530040466          2019060000001932000193200812660008  52640217   K529788C2953CH0744316 
1C641205125553EL530399231558662    201906411200193200000000SAPRI BIN AJIS                     CH0744316 
0C670227125194EL530040867          2019060000002033100203310812110073  10635373   K529788C2953CH0705802 
1C670227125194EL530399235916689    201906411100203310000000AZIAH BINTI RUNGGI                 CH0705802 
0C630304125192EL530040912          2019060000003116700311670812110159  05055140   K529788C2953CH0663397 
1C630304125192EL530399227132937    201906411000311670000000RAHIMAH BINTI RAHAMAT @ RAHMAT     CH0663397 
0C680229125330EL530040992          2019060000008456100845610812110160  05085659   K529788C2953CH0702442 
1C680229125330EL530399236390777    201906411200845610000000DORIS @ NURHANISAH BT ALIND @ ABDULCH0702442 
0C761105125800EL530041028          2019060000005595900559590812110219  10641686   K529788C2953CH0936414 
1C761105125800EL530041028          201906410100245420000000ALIZAH @ ALFIDAH BINTI AJMAAIN     CH0936414 
1C761105125800EL530399238217108    201906411500314170000000ALIZAH @ ALFIDAH BINTI AJMAAIN     CH0936414 
0C750603125383EL530041050          2019060000006001400600140812110032  10924595   K529788C2953CH0884272 
1C750603125383EL530041050          201906411000406800000000GEORGE J.DOMINIC                   CH0884272 
1C750603125383EL530399236115844    201906411400193340000000GEORGE J.DOMINIC                   CH0884272 
0C740602125630EL530041195          2019060000006283400628340812110002  20109379   K529788C2953CH0858720 
1C740602125630EL530399231098924    201906411100459170000000SURIYANI BINTI SIPON               CH0858720 
1C740602125630EL530399234186958    201906411200169170000000SURIYANI BINTI SIPON               CH0858720 
0C670930125233EL530041327          2019060000007375100737510812110090  10634137   K529788C2953CH0702275 
1C670930125233EL530399237696742    201906411000737510000000GIBIN BIN GANSAYAK                 CH0702275 
0C690705125921EL530041335          2019060000009406300940630812110128  60051933   K529788C2953CH0959364 
1C690705125921EL530399223158866    201906411000940630000000PAUJI BIN TAMAIN                   CH0959364 
0C750319125319EL530041369          2019060000003866800386680812510035  10660181   K529788C2953CH0899445 
1C750319125319EL530399231052242    201906411100314170000000AZLAN BIN MISDEH                   CH0899445 
1C750319125319EL530399233755310    201906411200072510000000AZLAN BIN MISDEH                   CH0899445 
0C720403125488EL530041425          2019060000010633401063340812110009  52639664   K529788C2953CH0806045 
1C720403125488EL530399232541392    201906411200785420000000JALYAH @ JULIANA BINTI MD AG ASING CH0806045 
1C720403125488EL530399236301255    201906411400277920000000JALYAH @ JULIANA BINTI MD AG ASING CH0806045 
0C690609125542EL530041431          2019060000009840400984040812110133  52634913   K529788C2953CH0734339 
1C690609125542EL530399224217681    201906410100549030000000FELICIA BINTI RAJIE                CH0734339 
1C690609125542EL530399231451760    201906411400435010000000FELICIA BINTI RAJIE                CH0734339 
0C720701125953EL530041513          2019060000022131702213170812110176  10631414   K529788C2953CH0833024 
1C720701125953EL530399224494638    201906411100694600000000JAMRI BIN MOHD HASSIM              CH0833024 
1C720701125953EL530399234081571    201906411500250440000000JAMRI BIN MOHD HASSIM              CH0833024 
1C720701125953EL530399235948621    201906411600216870000000JAMRI BIN MOHD HASSIM              CH0833024 
1C720701125953EL530399231815310    201906411401051260000000JAMRI BIN MOHD HASSIM              CH0833024 
0C710324125667EL530041608          2019060000012194701219470812110201  52639177   K529788C2953CH0767797 
1C710324125667EL530999249096676    201906410100784460000000JUPLY BIN SANI                     CH0767797 
1C710324125667EL530399228844177    201906411200435010000000JUPLY BIN SANI                     CH0767797 
0C720613125144EL530041692          2019060000002054200205420812110218  10635001   K529788C2953CH0800879 
1C720613125144EL530399231766204    201906411000205420000000AMSIAH BINTI AMPAKAT               CH0800879 
0C730725125471EL530041762          2019060000017560801756080812110209  10636900   K529788C2953CH0861538 
1C730725125471EL530041762          201906411000716910000000JOINIS BIN LONGKIAD                CH0861538 
1C730725125471EL530399237156471    201906411401039170000000JOINIS BIN LONGKIAD                CH0861538 
0C700805125490EL530041790          2019060000015225101522510812110150  10626877   K529788C2953CH0741610 
1C700805125490EL530399231617771    201906411201522510000000SOPIAH BINTI MALAI SALLEH          CH0741610 
0C740806125106EL530041837          2019060000020325202032520812110174  10634384   K529788C2953CH0856812 
1C740806125106EL530399220770141    201906411100510010000000RITA G.GALLOS                      CH0856812 
1C740806125106EL530399233641031    201906411500350420000000RITA G.GALLOS                      CH0856812 
1C740806125106EL530399231078817    201906411401172090000000RITA G.GALLOS                      CH0856812 
0C750522125250EL530041841          2019060000006645900664590812110028  10644672   K529788C2953CH0884266 
1C750522125250EL530399228263995    201906411100664590000000AILEEN CHONG                       CH0884266 
0C700801125485EL530041947          2019060000010184201018420812110005  52672368   K529788C2953CH0753559 
1C700801125485EL530399223566165    201906411000692160000000AZIZ BIN HADANI                    CH0753559 
1C700801125485EL530399231546134    201906411200326260000000AZIZ BIN HADANI                    CH0753559 
0C771206125286EL530042289          2019060000008579200857920812110153  10643526   K529788C2953CH0969953 
1C771206125286EL530399236704110    201906411400857920000000RAMLAYATI BINTI SAIN               CH0969953 
0C700118125018EL530042363          2019060000006317200631720812110219  10899292   K529788C2953CH0737237 
1C700118125018EL530399222729238    201906411000341710000000ANNIE PETRUS @ NUER ANNIE BINTI ABDCH0737237 
1C700118125018EL530399237845474    201906411400290010000000ANNIE PETRUS @ NUER ANNIE BINTI ABDCH0737237 
0C680620125149EL530042563          2019060000009584100958410812110142  05086285   K529788C2953CH0000840 
1C680620125149EL530399233812702    201906411100495420000000SHAMSUDIN BIN AKIL                 CH0000840 
1C680620125149EL530399235962866    201906411400137750000000SHAMSUDIN BIN AKIL                 CH0000840 
1C680620125149EL530399237474955    201906411500325240000000SHAMSUDIN BIN AKIL                 CH0000840 
0C760505125338EL530042709          2019060000012083401208340812510033  10878007   K529788C2953CH0917029 
1C760505125338EL530399233242826    201906411200277920000000LATIFAH BINTI DATU ABDUL LATIF     CH0917029 
1C760505125338EL530399237269437    201906411400930420000000LATIFAH BINTI DATU ABDUL LATIF     CH0917029 
0C750522125146EL530042719          2019060000006041700604170812110010  10644342   K529788C2953CH0897967 
1C750522125146EL530399234340441    201906411000604170000000MILIANI BINTI TAMRIN               CH0897967 
0C701219125134EL530042740          2019060000009293800929380812110236  10641231   K529788C2953CH0745267 
1C701219125134EL530399224037930    201906411100276870000000RAPIAH BINTI BASARI                CH0745267 
1C701219125134EL530399237845575    201906411500652510000000RAPIAH BINTI BASARI                CH0745267 
0C691222125374EL530042786          2019060000012389501238950812110065  60052242   K529788C2953CH0003462 
1C691222125374EL530399229215912    201906411100978760000000SARIMAH BINTI TAIP                 CH0003462 
1C691222125374EL530399236435641    201906411200260190000000SARIMAH BINTI TAIP                 CH0003462 
0C600816125172EL530043104          2019060000003969400396940812110093  60052033   K529788C2953CH0463799 
1C600816125172EL530399227538418    201906411000396940000000SATILIM @ NORHAZIAH BINTI SUMBING  CH0463799 
0C630510125249EL530043435          2019060000003505800350580812110110  04757431   K529788C2953CH0621816 
1C630510125249EL530043435          201906411000156550000000FRANCIS BIN A.ANGAD @ ALEXIUS      CH0621816 
1C630510125249EL530399232676384    201906411400194030000000FRANCIS BIN A.ANGAD @ ALEXIUS      CH0621816 
0C740521125794EL530043502          2019060000006404300640430812110019  10641157   K529788C2953CH0870991 
1C740521125794EL530399232380637    201906411200555840000000HILDAH @ NURUL HIDAYAH BINTI MAROP CH0870991 
1C740521125794EL530399233857360    201906411400084590000000HILDAH @ NURUL HIDAYAH BINTI MAROP CH0870991 
0C761209125776EL530043518          2019060000012380101238010812110162  10903425   K529788C2953CH0958198 
1C761209125776EL530399221069528    201906411000911740000000RUJINAH BINTI SUNDANG              CH0958198 
1C761209125776EL530399233249290    201906411200072510000000RUJINAH BINTI SUNDANG              CH0958198 
1C761209125776EL530399237467376    201906411400253760000000RUJINAH BINTI SUNDANG              CH0958198 
0C730306125194EL530043540          2019060000013515701351570812110071  10558708   K529788C2953CH0825587 
1C730306125194EL530399223973464    201906411100227810000000NORANI BINTI NAPSIN                CH0825587 
1C730306125194EL530399229766384    201906411201123760000000NORANI BINTI NAPSIN                CH0825587 
0C650509125119EL530043671          2019060000005383400538340812110053  05054994   K529788C2953CH0626683 
1C650509125119EL530399231957271    201906411200538340000000JULIAN BIN GUBAU                   CH0626683 
0C680717125989EL530043822          2019060000006402100640210812110005  52635886   K529788C2953CH0733558 
1C680717125989EL530399224536973    201906411000184350000000ALEXIUS BIN JAMARI                 CH0733558 
1C680717125989EL530399235376624    201906411400205420000000ALEXIUS BIN JAMARI                 CH0733558 
1C680717125989EL530399236291555    201906411500250440000000ALEXIUS BIN JAMARI                 CH0733558 
0C630303125799EL530044032          2019060000013338301333830812110074  60052145   K529788C2953CH0707423 
1C630303125799EL530399222208872    201906411100928130000000RASHID BIN LATING                  CH0707423 
1C630303125799EL530399232184314    201906411400405700000000RASHID BIN LATING                  CH0707423 
0C681201125755EL530044131          2019060000010265901026590812510039  10646719   K529788C2953CH0003247 
1C681201125755EL530399232262520    201906411000250440000000ELIGIUS LINUS                      CH0003247 
1C681201125755EL530399236575885    201906411700510010000000ELIGIUS LINUS                      CH0003247 
1C681201125755EL530399237581857    201906411800266140000000ELIGIUS LINUS                      CH0003247 
0C720813125181EL530044153          2019060000014877701487770812110215  10898732   K529788C2953CH0804499 
1C720813125181EL530044153          201906411000968180000000HAROLD ANTHONY                     CH0804499 
1C720813125181EL530399237767975    201906411400519590000000HAROLD ANTHONY                     CH0804499 
0C680407125588EL530044194          2019060000002779200277920812110151  10648509   K529788C2953CH0741837 
1C680407125588EL530399228891162    201906411000277920000000JUITAH BINTI SIBIN                 CH0741837 
0C620327125209EL530044328          2019060000004900100490010812110141  04969580   K529788C2953CH0400710 
1C620327125209EL530399231011321    201906411000490010000000SATOE BIN ANDIBONG                 CH0400710 
0C680131125009EL530044373          2019060000011116701111670812110009  05090261   K529788C2953CH0760912 
1C680131125009EL530399231553713    201906411201111670000000MARTINUS JOHNY BIN DULLAH          CH0760912 
0C680408125715EL530044525          2019060000006525100652510812110048  60052214   K529788C2953CH0705544 
1C680408125715EL530399231545831    201906411200652510000000JOHNY MAKAJIL                      CH0705544 
0C791025125453EL530044567          2019060000005316700531670812110218  10905685   K529788C2953          
1C791025125453EL530399231643033    201906411200531670000000ERWAN JAIL                                   
0C790623125336EL530044997          2019060000000966700096670812110179  10903680   K529788C2953          
1C790623125336EL530399227266818    201906411000096670000000MAGDELINA CHEW MEI LING                      
0C721018125785EL530045034          2019060000008820900882090812110002  52636942   K529788C2953CH0833213 
1C721018125785EL530399231168440    201906411200882090000000ALIZAN BIN OSMAN                   CH0833213 
0C690523125226EL530045203          2019060000015709201570920812510039  52567600   K529788C2953CH0716246 
1C690523125226EL530399231938275    201906411200782740000000MASNIAH BINTI RAWI                 CH0716246 
1C690523125226EL530399233457741    201906411400298270000000MASNIAH BINTI RAWI                 CH0716246 
1C690523125226EL530399237450909    201906411700489910000000MASNIAH BINTI RAWI                 CH0716246 
0C790718125400EL530045337          2019060000015958601595860812110206  10905842   K529788C2953          
1C790718125400EL530399223391969    201906411100870840000000LANJUIN BT ANDAWAI                           
1C790718125400EL530399230781652    201906411200362510000000LANJUIN BT ANDAWAI                           
1C790718125400EL530399234087938    201906411400362510000000LANJUIN BT ANDAWAI                           
0C661220125285EL530045339          2019060000026804102680410812110064  10712685   K529788C2953CH0674330 
1C661220125285EL530399230318375    201906411200302090000000LINJON BIN CHINSANG @ CHIN CHANG   CH0674330 
1C661220125285EL530399234466339    201906411400379510000000LINJON BIN CHINSANG @ CHIN CHANG   CH0674330 
1C661220125285EL530399221616667    201906411101998810000000LINJON BIN CHINSANG @ CHIN CHANG   CH0674330 
0C640201126327EL530045470          2019060000002835300283530812110019  60051944   K529788C2953CH0622717 
1C640201126327EL530399235090876    201906411200283530000000SAIMUN @ NICHOLAS BIN SITIMIN      CH0622717 
0C791211125190EL530045529          2019060000002804300280430812110219  60052472   K529788C2953          
1C791211125190EL530045529          201906410100087090000000SHALINAH BINTI MOHD SARUDIN                  
1C791211125190EL530399227325523    201906411200193340000000SHALINAH BINTI MOHD SARUDIN                  
0C780222135323EL530045597          2019060000002416700241670812110057  10902153   K529788C2953          
1C780222135323EL530399231493893    201906411200241670000000IRMAN MOHAMAD                                
0C720520125671EL530045861          2019060000005402600540260812660008  09080318   K529788C2953CH0800123 
1C720520125671EL530399224659134    201906411000117320000000SAFRI BIN JOHNTAN                  CH0800123 
1C720520125671EL530399230217537    201906411200217510000000SAFRI BIN JOHNTAN                  CH0800123 
1C720520125671EL530399232787936    201906411400132920000000SAFRI BIN JOHNTAN                  CH0800123 
1C720520125671EL530399234302146    201906411500072510000000SAFRI BIN JOHNTAN                  CH0800123 
0C770326125956EL530045926          2019060000002804300280430812110219  60052471   K529788C2953CH0967587 
1C770326125956EL530045926          201906410100087090000000SARIFAH BINTI MISIM                CH0967587 
1C770326125956EL530399227330472    201906411200193340000000SARIFAH BINTI MISIM                CH0967587 
0C690727125199EL530045950          2019060000007584100758410812110005  05214770   K529788C2953CH0733977 
1C690727125199EL530399224040556    201906411100456320000000SAMIUL @ SAMUEL BIN STIMIN         CH0733977 
1C690727125199EL530399235039952    201906411400302090000000SAMIUL @ SAMUEL BIN STIMIN         CH0733977 
0C670301125636EL530046038          2019060000026350002635000812110029  05215330   K529788C2953CH0702165 
1C670301125636EL530399231381234    201906411400592090000000DORA PONGOD                        CH0702165 
1C670301125636EL530046038          201906411002042910000000DORA PONGOD                        CH0702165 
0C700316125537EL530046062          2019060000004108500410850812110197  10914026   K529788C2953CH0730323 
1C700316125537EL530399233104497    201906411200108760000000MAURICE MARACUS @ MAURIE MARCUS    CH0730323 
1C700316125537EL530399237239428    201906411400302090000000MAURICE MARACUS @ MAURIE MARCUS    CH0730323 
0C761102126146EL530046083          2019060000018008501800850812110059  60052721   K529788C2953CH0883836 
1C761102126146EL530399237030371    201906411400217510000000HANIZAH BINTI HASSAN               CH0883836 
1C761102126146EL530046083          201906411001583340000000HANIZAH BINTI HASSAN               CH0883836 
0C630416125437EL530046236          2019060000036385403638540812110076  10648285   K529788C2953CH0603020 
1C630416125437EL530399233126224    201906411500396940000000WONG AH KAT @ TONY LAUKIT HASSAI   CH0603020 
1C630416125437EL530399237545279    201906411600964590000000WONG AH KAT @ TONY LAUKIT HASSAI   CH0603020 
1C630416125437EL530399222191694    201906411102277010000000WONG AH KAT @ TONY LAUKIT HASSAI   CH0603020 
0C691028125020EL530046403          2019060000016114701611470812110005  60052215   K529788C2953CH0732894 
1C691028125020EL530399222250197    201906411000656870000000PHYLLIS LIM @ LIM LEE MOI          CH0732894 
1C691028125020EL530399229418602    201906411200362510000000PHYLLIS LIM @ LIM LEE MOI          CH0732894 
1C691028125020EL530399237359969    201906411400592090000000PHYLLIS LIM @ LIM LEE MOI          CH0732894 
0C790531125507EL530046420          2019060000011116701111670812110207  60053057   K529788C2953          
1C790531125507EL530399237815566    201906411501111670000000JULIUS BIN ANTODIN                           
0C680803125088EL530046464          2019060000007348700734870812110167  05213905   K529788C2953CH0711803 
1C680803125088EL530399233691450    201906411000734870000000LIM LEE CHIN @ THERESA LIM         CH0711803 
0C660910125499EL530046546          2019060000012403001240300812110153  04969390   K529788C2953CH0702169 
1C660910125499EL530399231067804    201906411000738800000000LAJIM @ MOHD ASRIN BIN LAKUI @ HALICH0702169 
1C660910125499EL530399234976803    201906411200501500000000LAJIM @ MOHD ASRIN BIN LAKUI @ HALICH0702169 
0C651008125721EL530046583          2019060000003470900347090812110027  05210687   K529788C2953CH0661498 
1C651008125721EL530399236401992    201906411100347090000000PATERIP BIN USIT @ PATRICK USIT    CH0661498 
0C710725125086EL530046615          2019060000006887700688770812110019  20023332   K529788C2953CH0778431 
1C710725125086EL530399234427135    201906411600616260000000HAFSAH BINTI DAMIT                 CH0778431 
1C710725125086EL530399236424830    201906411700072510000000HAFSAH BINTI DAMIT                 CH0778431 
0C670426125445EL530046633          2019060000022041302204130812510033  60052273   K529788C2953CH0003232 
1C670426125445EL530399233494622    201906411200490420000000SULAIMAN M SAID                    CH0003232 
1C670426125445EL530399234818064    201906411400626200000000SULAIMAN M SAID                    CH0003232 
1C670426125445EL530046633          201906411001087510000000SULAIMAN M SAID                    CH0003232 
0C711024125360EL530046710          2019060000010995901099590812510033  10736452   K529788C2953CH0786861 
1C711024125360EL530399231454689    201906411201099590000000ASNIH BINTI MAIR                   CH0786861 
0C650612125467EL530046771          2019060000009567300956730812110010  60051812   K529788C2953CH0629934 
1C650612125467EL530399224705210    201906411000317130000000MARK BIN MEDI                      CH0629934 
1C650612125467EL530399231763372    201906411400595010000000MARK BIN MEDI                      CH0629934 
1C650612125467EL530399233244240    201906411500044590000000MARK BIN MEDI                      CH0629934 
0C620304125345EL530046800          2019060000007134900713490812110102  52635068   K529788C2953CH0445183 
1C620304125345EL530399227986840    201906411000440980000000ANGAU BIN SONGOROU                 CH0445183 
1C620304125345EL530399238130818    201906411200272510000000ANGAU BIN SONGOROU                 CH0445183 
0C690118125644EL530046952          2019060000006880700688070812110133  05214739   K529788C2953CH0734065 
1C690118125644EL530399224220210    201906410100204730000000JULIDAH BINTI JUMPA                CH0734065 
1C690118125644EL530399228849332    201906411200483340000000JULIDAH BINTI JUMPA                CH0734065 
0C730511125759EL530046979          2019060000007760000776000812660008  52520294   K529788C2953CH0838165 
1C730511125759EL530399224374093    201906411000268490000000YAPP VUI KHEN @ STANLEY            CH0838165 
1C730511125759EL530399237036738    201906411700338340000000YAPP VUI KHEN @ STANLEY            CH0838165 
1C730511125759EL530399237735340    201906411800169170000000YAPP VUI KHEN @ STANLEY            CH0838165 
0C761223125684EL530047129          2019060000019216801921680812110024  10910826   K529788C2953CH0964075 
1C761223125684EL530399237945407    201906411200338340000000FELICIA BINTI LOSUMIN              CH0964075 
1C761223125684EL530399223861815    201906411001583340000000FELICIA BINTI LOSUMIN              CH0964075 
0C721211125111EL530047132          2019060000008643500864350812660008  52640159   K529788C2953CH0822253 
1C721211125111EL530399220650711    201906411000248090000000SABIUS @ HAMIRIN BIN KECHIN        CH0822253 
1C721211125111EL530399236436449    201906411600616260000000SABIUS @ HAMIRIN BIN KECHIN        CH0822253 
0C780124125770EL530047213          2019060000018475201847520812110139  10904415   K529788C2953CH0958228 
1C780124125770EL530399235749062    201906411600362510000000MELISSA ALFRED                     CH0958228 
1C780124125770EL530399237299547    201906411700265840000000MELISSA ALFRED                     CH0958228 
1C780124125770EL530399223207467    201906410201219170000000MELISSA ALFRED                     CH0958228 
0C680322135656EL530047351          2019060000023764902376490812110162  60052276   K529788C2953CK0162111 
1C680322135656EL530399236879417    201906411200793570000000DAYANG HURAIYAH BINTI AWANG SHARI  CK0162111 
1C680322135656EL530399228684735    201906411001582920000000DAYANG HURAIYAH BINTI AWANG SHARI  CK0162111 
0C760731125109EL530047415          2019060000002416700241670812660008  10639201   K529788C2953CH0934491 
1C760731125109EL530399234890412    201906411000241670000000JUNAIDIN BIN MANAP                 CH0934491 
0C720405125115EL530047495          2019060000001933400193340812110228  10637445   K529788C2953CH0808385 
1C720405125115EL530399233880093    201906411400193340000000ELVES SUNGGIP                      CH0808385 
0C670809125725EL530047532          2019060000017258501725850812110025  52641058   K529788C2953CH0692517 
1C670809125725EL530399228673318    201906411200241670000000JOHN BIN MADAIS                    CH0692517 
1C670809125725EL530399221313139    201906411001484180000000JOHN BIN MADAIS                    CH0692517 
0C650511125759EL530047589          2019060000026018602601860812110161  04969200   K529788C2953CH0762696 
1C650511125759EL530399228067975    201906411002601860000000RASAMIN BIN SARIMAN @ SAM          CH0762696 
0C680106125621EL530047617          2019060000013160801316080812110182  60052639   K529788C2953CH0702546 
1C680106125621EL530399230962417    201906411100531670000000AMIN BIN PAIMAN                    CH0702546 
1C680106125621EL530399234239397    201906411400459170000000AMIN BIN PAIMAN                    CH0702546 
1C680106125621EL530399236472623    201906411600325240000000AMIN BIN PAIMAN                    CH0702546 
0C680105125689EL530047801          2019060000013850001385000812110024  60052714   K529788C2953CH0720996 
1C680105125689EL530399222693266    201906411000871310000000JOSEPH BIN PETER TINGGI            CH0720996 
1C680105125689EL530399231882301    201906411400513690000000JOSEPH BIN PETER TINGGI            CH0720996 
0C640825125226EL530047912          2019060000007182600718260812110027  10928018   K529788C2953CH0610155 
1C640825125226EL530399231880176    201906411200718260000000HO MOI LIN @ GRACE HO              CH0610155 
0C631214125070EL530047924          2019060000015016701501670812510035  05127949   K529788C2953CH0620758 
1C631214125070EL530399228090308    201906411101501670000000EPICHUS @ EPICHUS LUCY BT EDWIN EDICH0620758 
0C770913125715EL530048047          2019060000003745900374590812110057  60052716   K529788C2953CH0928357 
1C770913125715EL530399231669810    201906411200374590000000BEDE BIN LAKUN                     CH0928357 
0C721017125441EL530048058          2019060000019900301990030812110153  10636322   K529788C2953CH0871177 
1C721017125441EL530399235394913    201906411200181260000000MARCELLUS BIN KANDU                CH0871177 
1C721017125441EL530399236497881    201906411400108760000000MARCELLUS BIN KANDU                CH0871177 
1C721017125441EL530048058          201906411001700010000000MARCELLUS BIN KANDU                CH0871177 
0C721205125334EL530048216          2019060000007896000789600812110174  52636728   K529788C2953CH0815640 
1C721205125334EL530399226971471    201906411100543760000000RUHANI BINTI MOKTI                 CH0815640 
1C721205125334EL530399234331852    201906411200245840000000RUHANI BINTI MOKTI                 CH0815640 
0C730124125169EL530048274          2019060000017762701776270812110069  10627958   K529788C2953CH0817038 
1C730124125169EL530399231082655    201906411200990840000000SANI BIN AWANG ALI                 CH0817038 
1C730124125169EL530399236936203    201906411700640420000000SANI BIN AWANG ALI                 CH0817038 
1C730124125169EL530399237460407    201906411800145010000000SANI BIN AWANG ALI                 CH0817038 
0C700626125794EL530048598          2019060000004833400483340812110208  10635787   K529788C2953CH0814268 
1C700626125794EL530399227250044    201906411000483340000000JUDAH BINTI ANSARI                 CH0814268 
0C691221125268EL530048623          2019060000004293100429310812510033  05210406   K529788C2953CH0733006 
1C691221125268EL530399230578154    201906411000429310000000SABINAH BINTI DARMIN               CH0733006 
0C741111125120EL530048632          2019060000019869401986940812110158  10637486   K529788C2953CH0869150 
1C741111125120EL530048632          201906411000331510000000MARIEANNE O. FRANCIS               CH0869150 
1C741111125120EL530399237449087    201906411600640420000000MARIEANNE O. FRANCIS               CH0869150 
1C741111125120EL530399232585044    201906411401015010000000MARIEANNE O. FRANCIS               CH0869150 
0C740823125351EL530048787          2019060000007441700744170812110174  10644649   K529788C2953CH0841480 
1C740823125351EL530399224662972    201906411100744170000000RAFIAN BIN YAHYA                   CH0841480 
0C630723125218EL530048885          2019060000006296800629680812110158  05054887   K529788C2953CH0602901 
1C630723125218EL530399231779540    201906411400629680000000JAMILAH BINTI AHMAD                CH0602901 
0C740923125762EL530048887          2019060000002054200205420812110149  10913812   K529788C2953CH0869195 
1C740923125762EL530399228984829    201906411000205420000000CAROLINE BINTI JUNAS               CH0869195 
